:020000040800F2
:1000000000C00120B94A0008054B0008054B000854
:10001000054B0008054B0008054B000800000000D8
:10002000000000000000000000000000054B000878
:10003000054B000800000000054B0008ED1100080A
:10004000054B0008054B0008054B0008054B000850
:10005000054B0008054B0008054B0008054B000840
:10006000054B000809120008054B0008054B000865
:10007000054B0008054B0008054B0008054B000820
:10008000054B0008054B0008054B0008054B000810
:10009000054B0008054B0008054B0008054B000800
:1000A000054B0008054B0008054B0008054B0008F0
:1000B000054B0008054B0008054B0008054B0008E0
:1000C000054B0008054B0008054B00081D120008F1
:1000D000054B0008054B0008054B0008054B0008C0
:1000E000054B0008054B0008054B0008054B0008B0
:1000F000054B0008054B0008054B0008054B0008A0
:10010000054B0008054B0008054B0008054B00088F
:10011000054B0008054B0008054B0008054B00087F
:10012000054B0008054B0008054B0008054B00086F
:10013000054B00080000000000000000054B00080F
:10014000054B0008054B0008054B0008F911000895
:10015000054B0008054B0008054B0008054B00083F
:10016000054B0008054B0008054B0008054B00082F
:10017000054B0008054B00080000000000000000CF
:10018000054B0008054B000812230B800048704700
:100190002000002004230B80004870471C00002032
:1001A00010B50A46034C0448214601F043FB2046A3
:1001B00010BD00BF74010020984C000810B50A461D
:1001C000034C0448214601F035FB204610BD00BF1A
:1001D00074010020AC4C000810B50A46034C0448DA
:1001E000214601F027FB204610BD00BF740100200E
:1001F000C04C000810B50A46034C0448214601F0E3
:1002000019FB204610BD00BF74010020D04C00082F
:1002100010B50A46034C0448214601F00BFB20466A
:1002200010BD00BF74010020DC4C00080368B3F16E
:10023000A04F22D130B587B0104B5A6B42F08002EC
:100240005A635A6C42F480425A644FF4C05301938B
:10025000022302930024039404940A250595084878
:1002600001A904F06FFA43202946224604F062FBFC
:10027000432004F091FB07B030BD704700380240C6
:100280000000024008B50146D0F8B00301F56071E6
:1002900001F034FB08BD00BF08B5C1EBC1039B00F2
:1002A0000344D0F8B003D3F8E42101F055FB08BDB6
:1002B00008B5C1EBC1039B000344D0F8B0031A6C2E
:1002C00001F07AFB08BD00BF08B5D0F8B00301F01B
:1002D000FBFB08BD10B50446C3680BB9002100E064
:1002E0000121D4F8B00301F0DBFBD4F8B00301F036
:1002F000B7FB10BD10B50446D0F8B00301F0D4FB35
:100300002268D2F8003E43F00103C2F8003E10BD5F
:1003100008B50268D2F8003E23F00103C2F8003E9F
:10032000D0F8B00301F0CAFB08BD00BF08B5D0F893
:10033000B00301F0D7FB08BD08B5D0F8B00301F059
:10034000CFFB08BD08B5D0F8B00301F0CDFB08BD68
:1003500008B5D0F8B00301F0C9FB08BD08B5D0F866
:10036000B00301F0CFFB08BD38B503782BBB144CAC
:10037000C4F8B003C0F820424FF0A0432360072325
:1003800063600223E360002525616561A361E56187
:100390002562A562E5622563204603F0ADFD204697
:1003A000802103F04DFD20462946402203F024FD24
:1003B00020460121802203F01FFD002038BD00BF30
:1003C0007403002008B5D0F8200203F005FE0020D9
:1003D00008BD00BF08B5D0F8200203F013FE0020CE
:1003E00008BD00BF10B51446D0F820021A462346B7
:1003F00004F058F8002010BD08B5D0F8200204F031
:1004000085F8002008BD00BF08B5D0F8200204F030
:100410007DF9002008BD00BF08B5D0F8200204F027
:1004200017F9002008BD00BF08B5D0F8200204F07D
:1004300041F9002008BD00BFD0F8202211F0800F44
:1004400008D001F07F03C3EBC3039B00134493F870
:100450003600704701F07F01C1EBC10189001144F2
:1004600091F8DA01704700BF08B5D0F8200204F017
:1004700007F8002008BD00BF08B5D0F8200204F03E
:10048000B3F8002008BD00BF08B5D0F8200204F082
:1004900069F8002008BD00BF08B5D0F8200204F0BC
:1004A00099F808BD08B503480349002201F0E0F9B6
:1004B00008BD00BF280700200000002008B5012269
:1004C00006490A70828000218171C27100F038FAF9
:1004D00010B9034800F0F8F908BD00BF480100203A
:1004E000BD05000810B500F00FF900F075F918B956
:1004F00003220E4B1A7010BD044640F20113838094
:1005000000238371C371FF2205E0E1180A722732CC
:10051000D2B201339BB2B3F5007FF6D3204600F090
:100520000FFA10B9024800F0CFF910BD48010020C1
:100530005905000808B50322044B1A70044B1B78B8
:10054000012B02D1034801F0B7F908BD4801002092
:10055000490100202807002008B5174B1B78022B03
:1005600028D803B928B9642000F008FEFFF7E2FF9D
:10057000FEE7828840F201139A4214D0642000F012
:10058000FDFDFFF7D7FFFEE7C118097A914205D0BC
:10059000642000F0F3FDFFF7CDFFFEE72732D2B273
:1005A00001339BB201E0FF220023B3F5007FEBD3C0
:1005B000FFF784FF08BD00BF480100201F4B1B78D8
:1005C000022B3AD810B5012B00D128B9642000F0D5
:1005D000D5FDFFF7AFFFFEE78388022B05D064202F
:1005E00000F0CCFDFFF7A6FFFEE7037A012B01D058
:1005F000002400E0012400F011F92CB9642000F07F
:10060000BDFDFFF797FFFEE70D4B1B783BB19C420A
:1006100005D0642000F0B2FDFFF78CFFFEE7022258
:10062000064B1A70064B1C70064C2046064901F01A
:1006300035F9204601F03AF910BD70474801002015
:1006400049010020280700208000002008B5084B41
:100650001B78032B07D0022B07D0642000F08EFDFF
:10066000FFF768FFFEE7012008BD002008BD00BFBE
:100670004801002008B5084B1B78012B05D06420E9
:1006800000F07CFDFFF756FFFEE7044801F014F987
:10069000034800F071F808BD490100202807002038
:1006A000BD04000808B5134B1B78082B21D802465F
:1006B000052B05D0642000F061FDFFF73BFFFEE74E
:1006C00006210C4B19700C4B1860002322F8043FD4
:1006D0004FF480100949886109490B6009480223D9
:1006E00002F0BCFE28B1642000F048FDFFF722FFB5
:1006F000FEE708BD4A0100205C0B0020000002401C
:100700004C0900206C0D002008B50023144A13701A
:10071000144A13701448154A026080F851304FF49F
:100720008272426083604FF40062C2600361436181
:100730004FF4007282611022C261036243624FF47F
:10074000005383620723C36202F046FE084B1B6915
:1007500013F0080F02D10122064B1A7008BD00BF2A
:10076000600B0020540900206C0D00200030014077
:10077000000002405501002008B5134B1B78082BE0
:100780001FD80346114A12682AB1642000F0F6FC13
:10079000FFF7D0FEFEE70E4A12782AB90C48012274
:1007A00002709847002008BD0A4A12782AB9094801
:1007B000012202709847002008BD044A1060002002
:1007C00008BD012008BD00BF4A0100204C010020E7
:1007D000600B00205409002008B50D4B1B78082B36
:1007E00013D80C4B1B781BB90A480123037008BDB2
:1007F000094B1B781BB908480123037008BD64200E
:1008000000F0BCFCFFF796FEFEE7002008BD00BF2D
:100810004A010020600B00205409002008B50D4B50
:100820001B78082B15D80C4B984208D00B4B9842DC
:1008300005D0642000F0A2FCFFF77CFEFEE7084B29
:100840001B6823B10021064A1160984708BD0023A8
:10085000037008BD4A010020600B002054090020ED
:100860004C0100200122034B1A70A02383F311884E
:10087000704700BF5401002010B5104B1B78082BA7
:1008800016D8042B05D9642000F078FCFFF752FE3F
:10089000FEE77BB90522094B1A70094B1B785BB147
:1008A0000024074B1C700748FFF766FF204610BD69
:1008B000012010BD002010BD002010BD4A01002005
:1008C00055010020A506000808B50A4B1B78082B27
:1008D0000DD8094A12682AB1642000F04FFCFFF7D6
:1008E00029FEFEE7044A1060FFF7C6FF08BD01209D
:1008F00008BD00BF4A0100205801002008B50223AE
:100900000A4A13704FF48011094A9161094A11682B
:1009100009480431094A02F0A1FD28B1642000F021
:100920002DFCFFF707FEFEE708BD00BF4A010020CF
:10093000000002405C0B00206C0D00204C090020E0
:1009400010B5274B1A78082A45D80346254988420E
:1009500008D02549884205D0642000F00FFCFFF73D
:10096000E9FDFEE71978012904D1998811B1B1F5A3
:10097000817F05D3642000F001FCFFF7DBFDFEE77B
:100980001A49096829B1642000F0F8FBFFF7D2FD8D
:10099000FEE72AB1042A18D8144A1360002010BDBB
:1009A00001210F4A1170124A13609979114A11708E
:1009B000DA79114B1A70114B1B7873B100240F4B6D
:1009C0001C70FFF79BFF204610BD642000F0D6FB93
:1009D000FFF7B0FDFEE7012010BD002010BD00BFF5
:1009E0004A010020600B0020540900205001002023
:1009F0005C0B0020680D00205009002055010020EC
:100A000008B504220C4B1A704FF480120B4B9A61FC
:100A10000B4B1B689A1D9B880A481146022B38BF56
:100A2000022302F01BFD28B1642000F0A7FBFFF7B2
:100A300081FDFEE708BD00BF4A0100200000024022
:100A40005C0B00206C0D002008B508220C4B1A70BE
:100A50004FF480120B4B9A610B4B1B689A1D9B88BD
:100A60000A481146022B38BF022302F0F7FC28B1D6
:100A7000642000F083FBFFF75DFDFEE708BD00BFCB
:100A80004A010020000002405C0B00206C0D002099
:100A900010B51022514B9A61514B1B78082B00F274
:100AA0009C80022B0DD103224D4B1A704D4B1B78AD
:100AB000002B00F0928000224A4B1A70FFF7A0FF33
:100AC00010BD042B33D1484B1B6843B1474B1B6807
:100AD0002BB9642000F052FBFFF72CFDFEE7444BDE
:100AE0001C68424B1B68B3B101213D4A1170404A5A
:100AF000136000213D4A116099793E4A1170DA79FC
:100B00003D4B1A70374B1B786BB10022354B1A7076
:100B1000FFF7F4FE07E00022314B1A70374B1B68D9
:100B20000BB1FFF7A9FE2046FFF778FE10BD062B9C
:100B30001AD12F4B1B689B88013B9BB2B3F5807F7A
:100B400005D9642000F01AFBFFF7F4FCFEE707224A
:100B5000234B1A70234B1B78002B3ED00022214BD5
:100B60001A70FFF771FF10BD082B30D100221C4B0B
:100B70001A70224B1A682AB9642000F0FFFAFFF7B6
:100B8000D9FCFEE71A4B1868C388B3F5817F07D1FB
:100B9000FFF744FE0022194B1A60FFF76BFD10BDF2
:100BA0008179144B1B784B4013F07F0F04D1C1792E
:100BB000114B1B78994205D0642000F0DFFAFFF753
:100BC000B9FCFEE700210D4B1960904710BD642071
:100BD00000F0D4FAFFF7AEFCFEE710BD00000240C3
:100BE0004A010020550100204C0100205001002046
:100BF0005C0B0020680D00205009002058010020E7
:100C0000064B1B7843B110B50024044B1C70FFF752
:100C10003FFF84F3118810BD704700BF54010020CE
:100C200008B5124B1B78082B1ED8072B16D8DFE807
:100C300003F00408150B150E151201220C4B1A7047
:100C400008BDFFF75BFE08BDFFF7DAFE08BD0948E7
:100C5000FFF792FD08BDFFF7F7FE08BD642000F026
:100C60008DFAFFF767FCFEE708BD00BF4A010020D0
:100C700055010020A506000808B5054B1B78082B78
:100C800005D8642000F07AFAFFF754FCFEE708BDAF
:100C90004A01002010B50446FFF7D8FCB0B92CB9C2
:100CA0000B4B1B6801460246984710BDA388052BD5
:100CB00006D0074B1B68002001460246984710BD2E
:100CC000034B1B682046A168E268984710BD00BF2F
:100CD000DC0D002010B50446FFF7B8FCC8B924B9F4
:100CE0000C4B1B680120984710BDA388022B01D133
:100CF000237A3BB12046FFF791FD064B1B6801208C
:100D0000984710BD2046FFF789FD024B1B68002065
:100D1000984710BDE40D002038B50446FFF796FC57
:100D2000D8B924B90D4B1B680120984738BDA3885A
:100D3000022B03D1257A4DB1022D07D02046FFF7B3
:100D40006DFD064B1B680120984738BD2046FFF714
:100D500065FD024B1B682846984738BDE40D00200E
:100D600010B504460123838083710023C371FFF70C
:100D7000E7FD58B92046FFF751FD0848FFF7A4FDED
:100D800058B1074B1B680120984710BD2046FFF75C
:100D900045FD034B1B680120984710BDD50C00088A
:100DA000E40D002010B504460723838001238371DE
:100DB0000323C3710F4BD3E90023C0E902230E4B79
:100DC0001B680361FFF7BCFD58B92046FFF726FDFD
:100DD0000A48FFF779FD58B1094B1B680120984775
:100DE00010BD2046FFF71AFD054B1B6801209847F0
:100DF00010BD00BFD00D0020E00D0020190D00082F
:100E0000E40D002010B50446FFF720FC28B9044B80
:100E10001C600448FFF7B0FC10BD012010BD00BFEE
:100E2000E40D0020610D000810B50446FFF70EFC2C
:100E300078B90B4B1C60FFF7CFFC60B101228280B8
:100E40008271C271FFF77CFD38B90648FFF73CFD9F
:100E500010BD012010BD012010BD012010BD00BF3C
:100E6000DC0D0020950C0008D0B5044616461F4640
:100E7000FFF7ECFBE8B90023114A1360114A137025
:100E8000114B059A1A60114B1C60FFF7A5FC90B13D
:100E900007228280012282710222C271C0E90267A8
:100EA000049A0261FFF74CFD38B90948FFF70CFDC1
:100EB000D0BD0120D0BD0120D0BD0120D0BD00BFDC
:100EC000C80D0020D80D0020EC0D0020E40D0020FE
:100ED000D50C000838B50546FFF7B8FBB8B904468D
:100EE0000C4B1D600C4B1B7893B901220A4B1A70F6
:100EF0000A4B186830B12DB100F014F80022074BEE
:100F00001A6005E00648FFF7DFFC044600E0012414
:100F1000204638BDE80D0020D80D0020C80D002067
:100F2000250F000838B504460022164B1A70FFF74B
:100F30008DFB30BB144B1B6813B9144B1C6038BDC0
:100F40001CB900200146984738BDA288511E4900AF
:100F500089B294F90600002805DA012A03D90C4A5F
:100F60001268914203D900200146984738BD084DC8
:100F7000521A2A60204698472B6813B10020FFF7C9
:100F8000A9FF38BDD80D0020E80D0020C80D0020B5
:100F9000EC0D0020D0B5044616461F46FFF756FB61
:100FA00058B9074BC3E90067064B049A1A60064B11
:100FB0001C600648FFF7E0FBD0BD0120D0BD00BF9C
:100FC000D00D0020E00D0020E40D0020A50D00084C
:100FD00038B505460C46FFF739FB68B914F0010F28
:100FE0000CD164080134AC808123AB710323EB7115
:100FF0002846FFF7A5FC38BD012038BD012038BDCB
:101000002DE9F04186B0294B1A6B42F001021A63B8
:101010001A6B42F002021A631A6B42F004021A635E
:101020001A6B42F008021A6341F6FF730193002520
:1010300002954FF00108CDF80C80049505951C48E9
:1010400001A903F07FFB4FF6E7730193194E304679
:1010500001A903F077FB4FF6FF730193164C20466E
:1010600001A903F06FFB154801A903F06BFB1023E6
:10107000019303230293204601A903F063FB4FF47D
:1010800080570197CDF808800395204601A903F009
:1010900059FBA76120230193304601A903F052FBBD
:1010A0004FF40013B36106B0BDE8F0810038024090
:1010B000000002400004024000080240000C024010
:1010C00000B593B01C4A136C43F080531364A2F52F
:1010D000E432136823F4404343F4004313600123D4
:1010E0000693079302230C934FF480030D93082378
:1010F0000E934FF4A8730F930423109307231193B7
:1011000006A802F073FB00B1FEE70D230193022154
:101110000291002303934FF4A05304934FF48053A0
:10112000059301A802F0EAFC00B1FEE7042003F0F9
:101130004FFC13B05DF804FB0038024008B5FFF720
:10114000BFFF03F063FCFFF75BFF00F007F8FFF75A
:10115000A9F9FFF7C7F9FFF753FDFCE710B5064CF7
:101160004FF08053A3614FF4FA7003F077FC4FF413
:101170008053A36110BD00BF00080240054B1880DA
:1011800030B90022044B1A704FF48052034B9A611D
:10119000704700BF5E0100205C0100200008024093
:1011A0000E4B1A88CAB10E490B8801339BB20B80D3
:1011B0009A4212D800220A800A4B1B7833B1094B9D
:1011C0001A704FF48052084B9A6170470122054B08
:1011D0001A704FF08052044B9A6170475E010020F4
:1011E000600100205C0100200008024008B503F007
:1011F00027FCFFF7D5FF08BD08B5024802F01AFF2B
:1012000008BD00BF7403002008B50822024B5A61D4
:10121000FFF706FD08BD00BF003C014010B5054CBE
:101220002023A361044802F07BFA4FF40013A3616A
:1012300010BD00BF000402406C0D002008B54FF047
:10124000FF300221002203F075FB08BD02681F4B2E
:101250009A4239D1F0B587B01D4A536C43F480539C
:101260005364E0230193022302930393012604961F
:1012700005230593174C204601A903F063FA1023B8
:10128000A3610193029600250395204601A903F06E
:1012900059FA08270197104B02930396204601A99B
:1012A00003F050FA09200A212A4603F043FB0920E3
:1012B00003F072FB232039462A4603F03BFB232030
:1012C00003F06AFB07B0F0BD704700BF003001407B
:1012D00000380240000002400000211038B50D46E1
:1012E00013460222C0F8F4218361C36100212A461B
:1012F000FFF7C2F8002038BD10B50C461346002198
:101300002246FFF7B9F8002010BD00BF10B50C460B
:10131000134600212246FFF7B7F8002010BD00BF9A
:1013200008B50423C0F8F43100210A460B46FFF744
:10133000A3F8002008BD00BF08B50523C0F8F431AC
:1013400000210A460B46FFF79FF8002008BD00BFAA
:101350000346002002E00130C0B201331A78002AAF
:10136000F9D170474B88012B0BD110B50446C0F85A
:101370000432D0F814329B6898472046FFF7D0FF1C
:1013800010BD70470B7803704B7843708B78CA7828
:1013900003EB022343800B794A7903EB022383801A
:1013A0008B79CA7903EB0223C380704710B50446DA
:1013B0008021FFF731F820460021FFF72DF810BDFE
:1013C00030B583B004460D464A88130A013B062B0C
:1013D00000F28580DFE803F0040D2383836573004A
:1013E000D0F810321B68007C0DF1060198470146C9
:1013F00079E0037C4BB9D0F81432DB6A0DF10600BA
:1014000098470146022343706DE0D0F814321B6BFD
:101410000DF10600984701460223437063E0D2B203
:10142000052A3AD8DFE802F0030C151E2730D0F861
:1014300010325B68007C0DF106019847014652E0CE
:10144000D0F810329B68007C0DF1060198470146E8
:1014500049E0D0F81032DB68007C0DF106019847B6
:10146000014640E0D0F810321B69007C0DF1060106
:101470009847014637E0D0F810325B69007C0DF1E7
:101480000601984701462EE0D0F810329B69007C97
:101490000DF106019847014625E02946FFF786FF32
:1014A0002EE0037C3BB9D0F814329B6B0DF10600A3
:1014B0009847014617E02946FFF778FF20E0037CB4
:1014C0004BB9D0F814325B6B0DF10600984701461A
:1014D0000723437007E02946FFF768FF10E029461D
:1014E000FFF764FF0CE0BDF806304BB1EA883AB173
:1014F0009A4228BF1A46ADF806202046FFF7EEFEB6
:1015000003B030BD38B504468B88E3B9CB88D3B976
:101510008D7805F07F0590F8FC31032B02D1FFF7A1
:1015200045FF38BD80F8FE512946FEF79DFF204655
:10153000FFF7F6FE1DB1022384F8FC3138BD01230C
:1015400084F8FC3138BD2046FFF730FF38BD00BFBE
:1015500038B504460D468978264B1970012903D900
:101560002946FFF723FF38BD90F8FC31022B02D04B
:10157000032B15D039E081B14160032380F8FC31A1
:1015800000F0A6F9022804D120462946FFF70EFFF5
:1015900038BD2046FFF7C4FE38BDFFF7C1FE38BD99
:1015A00049B9022380F8FC31416000F09FF92046E0
:1015B000FFF7B6FE38BD4368994213D0D9B200F0A8
:1015C00095F90C4B19786160204600F081F90228EA
:1015D00004D120462946FFF7E9FE38BD2046FFF733
:1015E0009FFE38BDFFF79CFE38BD2946FFF7DEFEA3
:1015F00038BD00BF6201002008B50346CA88012A31
:1016000002D0FFF7D3FE08BD90F8FC21022A02D0D9
:10161000032A08D00CE00146002241F8082F0122DD
:10162000FFF75CFE08BD191D0122FFF757FE08BD3C
:10163000FFF7BCFE08BD00BF08B5034690F8FC21CB
:10164000023A012A0DD80122C260D0F804220AB160
:101650000322C260184603F10C010222FFF73EFE8E
:1016600008BDFFF7A3FE08BD10B5044690F8FC3195
:10167000023B012B0DD84B88012B0CD10023C0F865
:101680000432D0F814329B6898472046FFF748FE92
:1016900010BDFFF78BFE10BD08B54B78092B1BD88A
:1016A000DFE803F011171A141A08051A0E0BFFF7DA
:1016B00087FE13E0FFF726FF10E0FFF749FF0DE07C
:1016C000FFF79AFF0AE0FFF7B7FF07E0FFF74AFED0
:1016D00004E0FFF7C9FF01E0FFF768FE002008BD46
:1016E00038B504460D4690F8FC31032B0FD10B7929
:1016F000012B09D8D0F814329B689847EB8843B97E
:101700002046FFF70DFE04E0FFF750FE01E0FFF773
:101710004DFE002038BD00BF38B505460C468A880E
:10172000D1B2237803F06003202B05D1D0F8143216
:101730009B68214698477BE06378012B26D0002BDD
:1017400048D0032B74D190F8FC31022B02D0032B2C
:1017500007D017E000296BD0802969D0FEF75CFE26
:1017600066E0638823B919B1802901D0FEF754FEE1
:10177000D5F814329B682846214698472846FFF73B
:10178000CFFD55E02146FFF711FE51E090F8FC3106
:10179000022B02D0032B07D018E0002948D0802963
:1017A00046D0FEF739FE43E06388002B40D111F0AC
:1017B0007F0F07D0FEF738FED5F814329B68284615
:1017C000214698472846FFF7ABFD31E02146FFF759
:1017D000EDFD2DE090F8FC31022B02D0032B06D05A
:1017E00023E011F07F0F23D0FEF716FE20E012F069
:1017F000800F05D001F07F0400EB0414143405E0E1
:1018000001F07F0400EB041404F582742846FEF70F
:1018100013FE10B10123236001E00023236028465A
:1018200021460222FFF75AFD02E02146FFF7BEFDE6
:10183000002038BDD0B170B50D4616460446FFF7FE
:1018400087FD0130400080B23080287003236B7028
:10185000022307E05A1CD2B20134E954531CDBB214
:101860000021A95421780029F4D170BD704700BF30
:1018700090B108B503460020C3F81402C3F818025B
:1018800009B1C3F81012012183F8FC111A7018462F
:10189000FEF76AFD002008BD0220704719B1C0F8AC
:1018A0001412002070470220704700BF08B5FEF7F1
:1018B00089FD002008BD00BF10B50446D0F81432E1
:1018C0005B68017998472046FEF784FD002010BD33
:1018D00008B5D0F8143223B11B68984718B102201C
:1018E00008BD022008BD002008BD00BF08B5D0F823
:1018F00014325B689847002008BD00BF38B5044625
:1019000000F502752846FFF73DFD0123C4F8F431C8
:10191000B4F80E32C4F8F83194F8081201F01F033D
:10192000012B08D013B1022B0AD00EE02046294625
:10193000FFF7B2FE0EE020462946FFF7D1FE09E090
:1019400020462946FFF7E8FE04E0204601F080012A
:10195000FEF762FD002038BD38B5044609BBD0F85B
:10196000F431032B26D1D0F80C31D0F810118B4272
:101970000AD95B1AC0F80C318B4228BF0B461146BE
:101980009AB2FFF7C3FC15E0D0F814321B6923B1FB
:1019900090F8FC21032A00D198472046FFF7C0FCAD
:1019A00008E0D0F814329B6923B190F8FC21032A97
:1019B00000D19847002038BD38B50446002944D1ED
:1019C000D0F8F431022B38D1C369016A8B4206D9B1
:1019D0005B1AC36111469AB2FFF78EFC04E0002146
:1019E0000A460B46FEF750FDA369216AB3FBF1F2EC
:1019F00001FB123272B98B420CD3D4F8F821934216
:101A000008D2204600210A46FFF776FC0023C4F8DE
:101A1000F83105E0204600210A460B46FEF734FD6A
:101A2000D4F81432DB682BB194F8FC21032A01D1DD
:101A3000204698472046FFF77FFC94F80032012BA0
:101A40000CD1002384F8003208E0D0F814325B692E
:101A500023B190F8FC21032A00D19847002038BD1B
:101A600038B5044600210A464023FEF7BBFC40255A
:101A7000C4F810512046802100222B46FEF7B2FC0C
:101A80002562012384F8FC31D4F818322BB1D4F844
:101A900014325B68204621799847002038BD00BF8A
:101AA00001740020704700BF90F8FC3180F8FD31D0
:101AB000042380F8FC310020704700BF90F8FD310E
:101AC00080F8FC310020704708B590F8FC31032BFA
:101AD00004D1D0F81432DB6903B19847002008BD67
:101AE00000207047002070470020704708B5012291
:101AF00080F8FC21D0F81422526801799047002028
:101B000008BD00BF08B5D0F814329B6A9847002082
:101B100008BD00BF08B5044B1B6800205881034B6B
:101B20001B68984708BD00BFF00D0020FC0D002089
:101B300008B5FEF751FE284B1B6818610830D860C5
:101B4000002306E0244A1268D2680021D1540133F0
:101B5000DBB2112BF6D9204B1A68D26870211170B4
:101B60001B68DA680C21D17193F8642093F8651032
:101B70008A4222D0D96803EBC20393F844308B70B9
:101B8000154B1B68D96893F8642003EBC20292F8E6
:101B900049200A73D96893F8642003EBC20292F8D3
:101BA00048204A7393F864200132D2B283F864204B
:101BB000042A02D1002283F86420074B1B681222FA
:101BC0005A81064A12681279122A00D85A81044BA7
:101BD0001B680020984708BDF00D0020F40D002080
:101BE000FC0D002008B5FEF7F7FD144B1A681061D4
:101BF0000830D060124B1B68597811F0010F08D1E2
:101C00001049097905311B798B4205D90B460D48DE
:101C100003E007230C4800E00A48538106E0013B3B
:101C20009BB2064A1268D268C15CD154002BF6D12F
:101C3000064B1B680020984708BD00BFF00D002030
:101C4000F40D0020EC4C0008104D0008FC0D0020A5
:101C500008B5FEF7C1FD0B4B1A6810610830D06063
:101C60000823538107E0013B9BB2064A1268D26801
:101C70000549C95CD154002BF5D1044B1B680020E9
:101C8000984708BDF00D0020204D0008FC0D0020F5
:101C900008B5FEF7A1FD0B4B1A6810610830D06043
:101CA0000823538107E0013B9BB2064A1268D268C1
:101CB0000549C95CD154002BF5D1044B1B680020A9
:101CC000984708BDF00D0020184D0008FC0D0020BD
:101CD00008B50B4B1B68186100F10802DA60DB6B7A
:101CE000B3F5007F28BF4FF400730649086801214F
:101CF0009BB2FEF7C9FB044B1B680020984708BD48
:101D0000F00D0020000E0020FC0D002010B4D0F8D3
:101D1000184294F8651001F1080004EBC00002714C
:101D20001B0283600131C9B284F86510042902D115
:101D3000002384F865305DF8044B704708B50A4B02
:101D40001B689B6E834202D30844834209D2074B2F
:101D50001868074B197805222123FFF7D7FFFF20CA
:101D600000E0002040B208BDF00D0020000E002071
:101D7000F80D002008B5154B1B685B7813F0020FB7
:101D80000DD0134B1868134B197805222423FFF745
:101D9000BDFF114B1B684FF0FF30984708BD0F4B3C
:101DA0001B68D86EB3F87010FFF7C8FF002805DA7B
:101DB000094B1B684FF0FF30984708BD074B1B6865
:101DC00000205881044B1B68984708BDF40D002083
:101DD000000E0020F80D0020FC0D0020F00D00206A
:101DE00008B588B10C4B18680C4B197802223A23BD
:101DF000FFF78CFF0A4B1B6805221A72094B1B6800
:101E00004FF0FF30984708BD054B1B6800205881F4
:101E1000044B1B68984708BD000E0020F80D0020F9
:101E2000F00D0020FC0D002008B5104B1B68DB698D
:101E30006BB10F4B18680F4B197805222023FFF761
:101E400065FF0D4B1B684FF0FF30984708BD094BED
:101E50001B781BB10120FFF7C3FF08BD0748FEF741
:101E6000D1FF10B10120FFF7BBFF08BDF00D00202E
:101E7000000E0020F80D0020FC0D0020E11D0008E0
:101E800038B568B9214B1868214B197802223A23DA
:101E9000FFF73CFF1F4B1B684FF0FF30984738BDE2
:101EA00004461D4803681C6104F10805DD6099665D
:101EB000A3F866200139090E2172DA689B6E013B96
:101EC000C3F3074353700368DA689B6E013BC3F3A7
:101ED000072393700368DA689B6E013BD370036835
:101EE000DA6800211171DA685171D968B3F8662097
:101EF000120A8A71DA6893F86610D17108225A8141
:101F0000044B1B680020984738BD00BF000E00201E
:101F1000F80D0020FC0D0020F00D002008B505484C
:101F2000FEF782FF20B1002001460246FFF7A8FF1E
:101F300008BD00BF811E000870B568B9204B186845
:101F4000204B197802223A23FFF7E0FE1E4B1B6854
:101F50004FF0FF30984770BD04461C4B1D68286148
:101F60000830E86000202072EC6860701C68E4684B
:101F7000A0701C68E4680825E5701B68DD684C1ECD
:101F8000260E2E71DD68C4F307466E71DD68C4F35A
:101F90000724AC71DC680139E171D96802240C7244
:101FA000D968C2F307444C72D968C2F307248C7213
:101FB000D968CA720C225A81034B1B68984770BDBE
:101FC000000E0020F80D0020FC0D0020F00D002078
:101FD00008B50548FEF728FF20B10020014602465B
:101FE000FFF7AAFF08BD00BF391F000810B568B988
:101FF000154B1868154B197804221123FFF786FE3C
:10200000134B1B684FF0FF30984710BD0C4602463B
:10201000104B1B68196901B1FEE718610832DA60DC
:10202000094B186881212346FEF726FA094B1A68E6
:10203000D36B1B1BD3630BB903231372044B1B68B5
:102040000020984710BD00BF000E0020F80D0020B2
:10205000FC0D0020F00D002008B568B10D4B18688C
:102060000D4B197802223A23FFF750FE0B4B1B68E9
:102070004FF0FF30984708BD094B1B6802221A72C7
:102080000848FEF727FF18B100200146FFF7AEFF12
:1020900008BD00BF000E0020F80D0020FC0D002040
:1020A000F00D0020ED1F000810B582B0364B1B6804
:1020B0001A7A002A5DD193F92020002A0DDB334AD9
:1020C000106893F8211005222023FFF71FFE304BE4
:1020D0001B684FF0FF30984753E02E4A1468A078F1
:1020E000E278120442EA0062207942EA0022607932
:1020F0001043D866E279217A41EA0221A3F87010F0
:10210000FFF71CFE00280FDA1F4B1B681F4A1068E0
:1021100093F8211005222023FFF7F8FD1C4B1B68C4
:102120004FF0FF3098472CE0174B1B68D969B3F884
:102130007000B3F8662002FB00F291420DD0134A02
:10214000106893F8211005222023FFF7DFFD104BC4
:102150001B684FF0FF30984713E0DA6E0090019152
:102160000D480023FEF780FE58B10120FFF774FFF1
:1021700007E00A48FEF7AEFE18B100200146FFF75F
:1021800035FF02B010BD00BFF00D0020000E002092
:10219000FC0D0020F40D002059200008ED1F000860
:1021A00008B502280DD1194B1868194B197802226D
:1021B0002723FFF7ABFD174B1B684FF0FF30984705
:1021C00008BD68B1114B1868114B197802223A23E7
:1021D000FFF79CFD0F4B1B684FF0FF30984708BD81
:1021E0000D4B1B6801221A720C48FEF7C5FA60B14C
:1021F000064B1868064B197802223A23FFF786FD32
:10220000044B1B684FF0FF30984708BD000E0020BC
:10221000F80D0020FC0D0020F00D0020D11C00085E
:1022200010B582B04F4B1A68137A002B5DD192F92A
:102230002030002B0DDA4C4B186892F82110052243
:102240002023FFF763FD494B1B684FF0FF30984791
:1022500085E0474B1C68A078E3781B0443EA0063E1
:10226000207943EA002360791843D066E379217A24
:1022700041EA0321A2F87010FFF760FD00280FDA91
:10228000384B1B68384A106893F821100522202328
:10229000FFF73CFD354B1B684FF0FF3098475EE081
:1022A000304B1B68D869B3F87010B3F8662002FB96
:1022B00001F290420DD02C4A106893F821100522AB
:1022C0002023FFF723FD294B1B684FF0FF30984771
:1022D00045E0DA6E009127480023FEF75BFE0028F8
:1022E0003DD00120FFF75CFF39E0D46BB4F5007FEF
:1022F00028BF4FF4007410692146FEF769FE68B1EB
:10230000194B18681C4B197804220323FFF7FEFCB5
:10231000164B1B684FF0FF30984720E0114B1A68AE
:10232000D36B1C1BD4634CB90F4B1868002100F011
:1023300051F90E4B1B680020984710E00F48FEF73C
:102340001BFA60B1084B18680B4B197802223A232C
:10235000FFF7DCFC054B1B684FF0FF30984702B0DD
:1023600010BD00BFF00D0020000E0020FC0D00206D
:10237000F40D0020A1210008F80D0020D11C000858
:1023800010B5364C2060364C2260364C2170364CED
:102390002360D0F81842354B1C6013785A2B53D861
:1023A000DFE803F02E5252315252525252525252E0
:1023B00052525252525234525252525252523D374B
:1023C00052523A52525252435246525249524C522F
:1023D0005252524F525252525252525252525252E0
:1023E00052525252525252525252525252525252CD
:1023F0005252525252525252525252525252400021
:10240000FFF712FD10BDFFF793FB10BDFFF7EAFBCE
:1024100010BDFFF77FFB10BDFFF77CFB10BDFFF782
:1024200017FC10BDFFF734FC10BDFFF7D1FD10BD48
:10243000FFF774FD10BDFFF737FE10BDFFF7F0FE8C
:1024400010BDFFF797FC10BD05222023FFF75EFCAF
:10245000054B1B684FF0FF30984710BD000E002061
:10246000F40D0020F80D0020FC0D0020F00D0020E0
:1024700038B50546D0F8184294F8203033B9E369EE
:1024800023B1637A13B90121FDF7C6FF28468121E4
:10249000FDF7C2FF637A022B06D12846012104F121
:1024A00014021F23FDF7F0FF38BD00BF38B5054605
:1024B000D0F81842A369A363E369E3630121FDF740
:1024C000EBFF1F280CD16269114B9A4208D194F896
:1024D0002110012904D894F822300BB1102B0CD90B
:1024E000284694F8211005222023FFF70FFC022331
:1024F00063722846FFF7BCFF38BD064B1D60064BD4
:102500001C60284604F12302044BFFF739FF38BD55
:1025100055534243040E0020080E00207526000883
:1025200010B50C46D0F81812CB699A4228BF1A464B
:1025300093B2CA6BD21ACA63002281F840200422E7
:102540000A7281212246FDF797FF10BD38B5054676
:10255000D0F8184200232372637284F8653084F83F
:1025600064300121FDF750FF28468121FDF74CFF23
:102570002846012104F114021F23FDF785FF38BD11
:1025800008B5D0F8182200231372012151721432B9
:102590001F23FDF779FF08BDD0F8183200221A7208
:1025A000704700BF08B5D0F81822137A13B1012B79
:1025B00003D008BDFFF77AFF08BD044B186092F8FE
:1025C00021102332024BFFF7DBFE08BD040E002072
:1025D0005D26000838B50546D0F818420A4B6363FB
:1025E00084F84010002323722361812104F1340216
:1025F0000D23FDF741FF2846012104F114021F239A
:10260000FDF742FF38BD00BF5553425308B5D0F81F
:102610001822137A022B03D00ED3042B09D908BD3C
:10262000064B186092F821102332054BFFF7A8FEE5
:1026300008BD0021FFF7CEFF08BD00BF040E00203B
:1026400045260008002806DA08B5034B1868012162
:10265000FFF7C0FF08BD7047040E0020002806DA0F
:1026600008B5034B18680121FFF7B4FF08BD704798
:10267000040E002008B500280FDA134B1B681B7AE4
:10268000052B05D1114B18680121FFF7A3FF08BDE9
:102690000E4B1868FFF7ECFE08BD0B4B19680B7A60
:1026A000013BDBB2022B0DD94A892AB1074B1868CE
:1026B000C968FFF735FF08BD22B9044B186800212F
:1026C000FFF788FF08BD00BF080E0020040E0020A1
:1026D00010B5D0F81842637A022B05D18121FDF79D
:1026E0009BFE0023637210BD11F0800F04D0012BFC
:1026F00002D00121FFF76EFF10BD00BF2023038031
:102700000048704760000020202303800048704785
:10271000BC000020202303800048704734000020C4
:102720000A230380004870475400002010B5044677
:10273000037C6BB9012102224FF40073FDF752FEB6
:102740002046812102224FF40073FDF74BFE0AE080
:10275000012102224023FDF745FE2046812102226D
:102760004023FDF73FFE742002F0CEF9C4F81802B2
:1027700038B12046FFF7EAFED4F81832002018617D
:1027800010BD012010BD00BF10B504460121FDF7AA
:1027900033FE20468121FDF72FFE2046FFF7FCFE89
:1027A000D4F8180220B102F0B7F90023C4F81832A7
:1027B000002010BD70B506460C46D0F818122378DC
:1027C00013F0600530D0202D6FD16278FE2A02D040
:1027D000FF2A13D023E0628852B9E288012A07D188
:1027E00013F0800F04D000250D60FEF777FD5DE04B
:1027F00030462146FEF7DAFD022557E0628842B9ED
:10280000E28832B913F0800F03D1FFF7B9FE00253B
:102810004CE030462146FEF7C9FD022546E0214640
:10282000FEF7C4FD022541E063780A2B04D00B2B90
:1028300007D0012B3AD107E004310122FEF74EFD0B
:1028400034E0A3784B6031E02179FDF7DDFD3046BF
:102850002179FDF7D1FD94F90430002B10DA337C97
:102860003BB93046812102224FF40073FDF7BAFDD7
:1028700016E03046812102224023FDF7B3FD0FE030
:10288000337C3BB93046012102224FF40073FDF73F
:10289000A9FD05E03046012102224023FDF7A2FDFB
:1028A00030462179FFF714FF00E00025284670BD6F
:1028B00008B5FFF7ABFE002008BD00BF08B5FFF765
:1028C00071FE002008BD00BFD0F8183263B11B694B
:1028D00053B110B504461846FDF7A0FFD4F81832DE
:1028E00000221A61002010BD002070470C4B01E04F
:1028F000013B10D00269002AFADA036943F00103B0
:102900000361074B01E0013B07D0026912F0010FA0
:10291000F9D100207047032070470320704700BFA3
:10292000400D030084B010B5044603A880E80E00F3
:10293000089B012B18D1A36B23F48033A363E368B6
:1029400023F4840323F04003E360E36823F440139B
:10295000E3600E9B012B03D1E36843F48013E36033
:102960002046FFF7C3FF09E0E36843F04003E3605C
:102970002046FFF7BBFF4FF48033A363069B012B78
:1029800007D1A36843F00C03A360A36843F02003BE
:10299000A3600020BDE8104004B07047836843F096
:1029A0000103836000207047836823F00103836084
:1029B0000020704708B5C36823F0C043C3600129F5
:1029C00004D1C36843F00053C36004E019B9C3687D
:1029D00043F08043C360322002F040F8002008BD7D
:1029E000890141F020010161054B01E0013B05D067
:1029F000026912F0200FF9D10020704703207047C0
:102A0000400D030010230361054B01E0013B05D09D
:102A1000026912F0100FF9D10020704703207047AF
:102A2000400D0300D0F800381943C0F8001800200A
:102A3000704700BF84B0F8B5044607A880E80E00D0
:102A4000A36B43F40023A363109E1EB9A36B43F44E
:102A50000013A3630023C4F8003E04F50065D4F816
:102A60000038C4F800380C9B012B0BD1099B23B90B
:102A700020460021FFF7D6FF08E020460121FFF79E
:102A8000D1FF03E020460321FFF7CCFF20461021B1
:102A9000FFF7A6FF2046FFF7B5FF00232B616B6110
:102AA0004FF0FF32AA61EB61079848B304F5106359
:102AB000002219461F68002F03DA4FF090471F606D
:102AC00001E000271F6000270F61FF278F600132A0
:102AD00020338242EDD304F53063002219461F688B
:102AE000002F03DA4FF090471F6001E000271F60BE
:102AF00000270F61FF278F60013220338242EDD122
:102B00002B6923F480732B610A9B012B0ED1184B88
:102B10002B632B6B43F4803343F003032B632B6B4A
:102B20000023A3616FF08043636109E00022A2618A
:102B30006FF0804262611BB9A36943F01003A36187
:102B4000A2690C4B1343A3610D9B1BB1A36943F016
:102B50000803A361012E05D1A36943F0804343F02C
:102B60000403A3610020BDE8F84004B0704700BF33
:102B70000001800000383C80D0F8083800F5006083
:102B800013F0060F10D0836803F00603022B0DD05C
:102B9000836803F00603062B0AD0836803F006035C
:102BA000042B07D102207047002070470320704794
:102BB000032070470020704770B44B78012B1FD161
:102BC000D0F81C280D78AB409BB21343C0F81C38DA
:102BD0000E78730103F510631A5812F4004F2DD1CB
:102BE0001C5844F0805545F400458A68C2F30A0435
:102BF0002C43CA7844EA824242EA86521A501DE0C7
:102C0000D0F81C280D784FF48033AB401343C0F844
:102C10001C380B785B0103F530631A5812F4004F2F
:102C20000CD11A5842F0805444F400448A68C2F32C
:102C30000A022243C97842EA81421A50002070BC3D
:102C4000704700BF30B44B78012B1BD1D0F83C58F3
:102C50000C7803FA04F4A4B225EA0404C0F83C4852
:102C6000D0F81C480D78AB409BB224EA0303C0F8AF
:102C70001C380B785B0103F510631A5822F40042EC
:102C80001A5019E0D0F83C480D78012202FA05F5F7
:102C900024EA0544C0F83C48D0F81C480D78AA4006
:102CA00024EA0242C0F81C280B785B0103F530636C
:102CB0001A5822F400421A50002030BC704700BF5E
:102CC00030B44B78012B68D14B69EBB90B7800EB32
:102CD0004313D3F8104924F0FF5424F4C014C3F86C
:102CE00010490B7800EB4313D3F8104944F4002447
:102CF000C3F810490B7800EB4313D3F81049E40CE8
:102D0000E404C3F810492CE00B7800EB4313D3F82C
:102D10001049E40CE404C3F810490B7800EB4313AA
:102D2000D3F8104924F0FF5424F4C014C3F8104918
:102D30008B684C699C4200D94B610B7800EB4313C4
:102D4000D3F8104944F40024C3F810490B7800EB81
:102D50004313D3F810594C69C4F312042C43C3F83D
:102D60001049012A06D10B7800EB43130A69C3F816
:102D7000142909E04B693BB1D0F834280D780123C0
:102D8000AB401343C0F834380B785B0103F5106394
:102D9000C25842F00442C2503BE00B7800EB4313B0
:102DA000D3F8104BE40CE404C3F8104B0B7800EBA1
:102DB0004313D3F8104B24F0FF5424F4C014C3F889
:102DC000104B4B690BB18B684B610B7800EB4313D5
:102DD000D3F8104B44F40024C3F8104B0B7800EBED
:102DE0004313D3F8105B8C68C4F312042C43C3F86C
:102DF000104B012A05D10B7800EB4313CA68C3F8C6
:102E0000142B0B785B0103F53063C25842F0044287
:102E1000C250002030BC704730B49DF8084064B9FF
:102E200003339B1009D000F5805000EB023251F8BB
:102E3000045B15600134A342F9D1002030BC704717
:102E400070B582B04B78012B40F0A9804B69EBB98B
:102E50000B7800EB4313D3F8104924F0FF5424F40B
:102E6000C014C3F810490B7800EB4313D3F8104992
:102E700044F40024C3F810490B7800EB4313D3F853
:102E80001049E40CE404C3F8104945E00B7800EB6A
:102E90004313D3F81049E40CE404C3F810490B7849
:102EA00000EB4313D3F8104924F0FF5424F4C0146A
:102EB000C3F810490C7800EB4414D4F810598E680C
:102EC0004B693344013BB3FBF6F3724E06EAC3434E
:102ED0002B43C4F810390B7800EB4313D3F8105987
:102EE0004C69C4F312042C43C3F81049CB78012B6E
:102EF00040F0C8800B7800EB4313D3F8104924F05E
:102F0000C044C3F810490B7800EB4313D3F81049C1
:102F100044F00054C3F81049012A06D10B7800EBA5
:102F200043130C69C3F814490CE0CB78012B0CD087
:102F30004B6903B3D0F834480E780123B3402343E0
:102F4000C0F83438CB78012B15D1D0F8083813F4F9
:102F5000807F08D10B785B0103F51063C45844F0FF
:102F60000054C45007E00B785B0103F51063C458AC
:102F700044F08054C4500B785B0103F51063C458CF
:102F800044F00444C450CB78012B7FD114460B4647
:102F9000C9681A789B8A0094FFF73EFF76E00B78A9
:102FA00000EB4313D3F8104BE40CE404C3F8104BCC
:102FB0000B7800EB4313D3F8104B24F0FF5424F4A8
:102FC000C014C3F8104B4B69A3B90B7800EB431343
:102FD000D3F8105B8C68C4F312042C43C3F8104B75
:102FE0000B7800EB4313D3F8104B44F40024C3F8E0
:102FF000104B1DE08D680C7800EB4414D4F8106B76
:103000002B44013BB3FBF5F39BB2224D05EAC345CC
:103010003543C4F8105B0C7800EB4414D4F8106B03
:103020008D6805FB03F3C3F312033343C4F8103B6D
:10303000012A05D10B7800EB4313CA68C3F8142B9F
:10304000CB78012B15D1D0F8083813F4807F08D144
:103050000B785B0103F53063C25842F00052C25056
:1030600007E00B785B0103F53063C25842F08052F1
:10307000C2500B785B0103F53063C25842F0044242
:10308000C25003E0012A7FF453AF47E7002002B0AB
:1030900070BD00BF0000F81F033292100FD030B493
:1030A0000C46002300F580552D6844F8045B01337D
:1030B0009A42F7D101EB8201084630BC70470846BE
:1030C000704700BF4B78012B13D10B785B0103F5E0
:1030D0001063C258002A03DBC25822F08042C2505B
:1030E0000B785B0103F51063C25842F40012C25022
:1030F00012E00B785B0103F53063C258002A03DB52
:10310000C25822F08042C2500B785B0103F5306355
:10311000C25842F40012C250002070474B78012B75
:1031200015D10B785B0103F51063C25822F400122D
:10313000C250CB78023BDBB2012B1DD80B785B0170
:1031400003F51063C25842F08052C25014E00B786D
:103150005B0103F53063C25822F40012C250CB78F1
:10316000023BDBB2012B07D80B785B0103F5306320
:10317000C25842F08052C2500020704738B5044611
:1031800000F5106300F52E60FF229A60C3F8082254
:1031900020338342F8D14FF0FF32C4F818280025BD
:1031A000C4F81058C4F81458C4F81C582046FFF747
:1031B00029FC20461021FFF713FC284638BD00BF2C
:1031C000D0F8003823F4FE63C0F80038D0F8003897
:1031D000090101F4FE610B43C0F80038002070477C
:1031E00008B5D0F8043823F00203C0F804380320EF
:1031F00001F034FC002008BD08B5D0F8043843F0D5
:103200000203C0F80438032001F028FC002008BDA8
:103210004369806918407047D0F8183800F500609D
:10322000C0691840000C704700F50063D0F818081A
:10323000DB69184080B2704700F5306303EB411141
:103240008B6800F5006040691840704710B4D0F8F2
:103250001048D0F8343800EB4110D0F80809CB40C2
:10326000DB01DBB2234318405DF8044B704700BF1D
:10327000406900F001007047D0F8003923F4FF6383
:1032800023F00703C0F8003900F500639A6802F0E4
:103290000602042A05D1D0F8002942F00302C0F842
:1032A00000295A6842F480725A600020704700BFBB
:1032B00010B40024C0F8104BD0F8104B44F4002494
:1032C000C0F8104BD0F8104B44F01804C0F8104B65
:1032D000D0F8104B44F0C044C0F8104B012905D180
:1032E000C0F8142B4FF08023C0F8003B00205DF89D
:1032F000044B70472DE9F04106460C4690461D46AA
:1033000001F0A6FB0746B8F1000F2AD05BE0B5F14B
:10331000FF3F26D025B101F09BFBC01BA84220D95E
:103320003268536823F0E00353603268136823F077
:1033300040031360B36AB3F5005F09D132681368C4
:1033400023F4005313603268136843F4005313608E
:10335000012386F85130002386F850300320BDE861
:10336000F08133689B682340A342D0D10020BDE8A0
:10337000F081B5F1FF3F26D025B101F069FBC01BFC
:10338000A84220D93268536823F0E00353603268C2
:10339000136823F040031360B36AB3F5005F09D1EB
:1033A0003268136823F4005313603268136843F4DF
:1033B00000531360012386F85130002386F8503003
:1033C0000320BDE8F08133689B682340A342D0D03E
:1033D0000020BDE8F08100BF00283DD010B50446B4
:1033E00090F8513013F0FF0F04D1002380F85030D3
:1033F000FDF72CFF022384F851302268136823F074
:103400004003136021686268A3681A43E3681A43A3
:1034100023691A4363691A43A36903F400731343CE
:10342000E2691343226A1343A26A1A430A602168BD
:10343000638B03F00402636A13434B602368E26A00
:103440001A612268D36923F40063D36100206065A8
:10345000012384F8513010BD0120704730B490F83A
:103460005140E4B2012C08D04568B5F5827F46D1C1
:103470008568002D45D1222C45D1002945D0002A50
:1034800045D0002B45D090F85040012C43D001246A
:1034900080F8504090F85140E4B2222C02D03224FF
:1034A00080F85140002444651D4CC4640163838648
:1034B000C3861C49816482638387C387836AB3F5AB
:1034C000005F09D10268136823F400531360026897
:1034D000136843F4005313600268536843F0E00339
:1034E0005360002380F8503003681A6812F0400FD0
:1034F00013D11A6842F040021A6000200EE0022048
:103500000CE002200AE0022008E0012006E0012091
:1035100004E0012002E0022000E0002030BC7047FF
:10352000C9350008ED360008704700BF704700BF7E
:1035300010B582B00446022100220B46FFF7DAFEE6
:1035400018B1636D43F0200363652268536823F06C
:103550008003536023685A6812F0400F31D15A68D3
:1035600022F020025A602046802101220223FFF728
:10357000C1FE18B1636D43F020036365A3682BB9E6
:103580002368DA6801929B680193019B636D93B98C
:1035900094F85130DBB2322B06D1012384F851303C
:1035A0002046FDF75FF90CE0012384F851302046F6
:1035B000FFF7BAFF05E0012384F851302046FDF7FC
:1035C0005BFB02B010BD00BF08B5C36833B9026829
:1035D000036B591C01631B78D36006E00368026B20
:1035E0001288DA60036B02330363C38E013B9BB224
:1035F000C38653B9836AB3F5005F04D102681368C8
:1036000043F480531360FFF793FF08BD10B582B0F9
:103610000446836AB3F5005F2DD101210022022305
:10362000FFF768FE18B1636D43F0200363652368FC
:10363000DB689BB2ADF80630BDF8063020460121AC
:103640000A460223FFF756FE18B1636D43F02003CC
:10365000636523689A6812F0100F0CD0626D42F017
:10366000020262651A6822F400521A602268136826
:1036700043F4005313602268536823F040035360FF
:1036800023685A6812F0800F2ED15A6822F0200267
:103690005A606368B3F5827F0BD1A368B3F5004F1E
:1036A00002D0B3F5806F04D12268136823F0400381
:1036B0001360636D93B994F85130DBB2322B06D1AD
:1036C000012384F851302046FDF7CCF80CE00123AB
:1036D00084F851302046FFF729FF05E0012384F8E4
:1036E00051302046FDF7C8FA02B010BD08B5C368D6
:1036F00033B9836B5A1C82630268D2681A7006E081
:10370000836B0268D2681A80836B02338363C38F32
:10371000013B9BB2C3870BB9FFF778FF08BD00BF21
:1037200010B584B00446036899685A6802F04002F4
:103730009B6803F0400311F0010F03D012B10BB9E5
:10374000836C9847236899685A6802F0800211F0E8
:10375000020F04D01AB1E36C2046984744E05A683F
:1037600012F0200F40D09A6812F0100F06D0626D50
:1037700042F0020262656FF010029A6023689A6854
:1037800012F0200F0AD0626D42F0010262659A6861
:1037900001921A6822F040021A60019B23689A681D
:1037A00012F0400F0DD094F85120D2B2122A08D056
:1037B000626D42F004026265DA6802929A680292CF
:1037C000029A9A6812F4807F06D0626D42F0080275
:1037D00062659B680393039B636D2BB1012384F89F
:1037E00051302046FDF748FA04B010BD38B5044604
:1037F000036813F0010F3AD0B34B9B6803F00C033E
:10380000042B00F04B81B04B9B6803F00C03082B9A
:1038100005D1AD4B5B6813F4800F40F0418100226D
:10382000AA4B1A7001F014F9054606E001F010F9F0
:10383000401BB0F5FA7F00F23581A34B1B6813F4EF
:10384000003FF3D12279A14B1A7063687BB101F07C
:10385000FFF8054606E001F0FBF8401BB0F5FA7FE3
:1038600000F22281984B1B6813F4003FF3D02368C9
:1038700013F0020F49D0944B9B6813F00C0F0AD041
:10388000914B9B6803F00C03082B09D18E4B5B68AE
:1038900013F4800F04D1E368012B40F0078126E088
:1038A000E36893B101228A4B1A6001F0D1F8054612
:1038B00005E001F0CDF8401B642800F2F980824B4E
:1038C0001B6813F0020FF4D011E00022804B1A6045
:1038D00001F0BEF8054605E001F0BAF8401B642887
:1038E00000F2E880784B1B6813F0020FF4D17648A1
:1038F000026822F0F8012269F82393FAA3F3B3FADD
:1039000083F3DBB29A400A430260236813F0080F86
:1039100026D0636993B101226E4B1A6001F098F8CA
:10392000054605E001F094F8401B642800F2C480CD
:10393000654B5B6F13F0020FF4D011E00022654B72
:103940001A6001F085F8054605E001F081F8401B9A
:10395000642800F2B3805C4B5B6F13F0020FF4D16C
:10396000236813F0040F42D0574A136C43F080537E
:103970001364A2F5E432136843F48073136001F01A
:1039800067F8054605E001F063F8401B642800F283
:103990009780514B1B6813F4807FF4D000224F4B6B
:1039A0001A7001F055F8054607E001F051F8401B88
:1039B00041F28833984200F28580434B1B6F13F02D
:1039C000020FF2D1227A454B1A70A3687BB101F045
:1039D0003FF8054606E001F03BF8401B41F2883312
:1039E00098427FD8384B1B6F13F0020FF3D0A369B6
:1039F000002B79D0344B9B6803F00C03082B75D057
:103A00000022374B1A6001F023F8054604E001F06C
:103A10001FF8401B64286BD82B4B1B6813F0007FEA
:103A2000F5D1A369022B65D1216A626A47F6C0739A
:103A300093FAA3F3B3FA83F3DBB29A401143A36A78
:103A40005B08013B4FF4403292FAA2F2B2FA82F2E2
:103A5000D2B293400B43E2691343E26A4FF07061C4
:103A600091FAA1F1B1FA81F1C9B28A40134343F04E
:103A70000053154A53600122194B1A6000F0E8FF09
:103A8000044604E000F0E4FF001B642834D80E4B29
:103A90001B6813F0007FF5D0002038BD012038BD31
:103AA000012038BD032038BD032038BD012038BDBA
:103AB000032038BD032038BD032038BD032038BDA6
:103AC000032038BD032038BD0038024002380240D0
:103AD00000004742800E47420070004070380240AC
:103AE00060004742032038BD002038BD012038BDAA
:103AF000032038BD002038BD032038BD70B5044612
:103B00000D46874B1B6803F00F038B426BD2CAB282
:103B1000834B1A701B6803F00F038B4240F0E48064
:103B2000036813F0020F06D07E498B6823F0F00281
:103B3000836813438B60236813F0010F00F0B88093
:103B40006268012A05D1774B1B6813F4003F0ED140
:103B5000CCE0022A05D1734B1B6813F0007F06D11D
:103B6000C6E0704B1B6813F0020F00F0C3806D4974
:103B70008B6823F0030313438B6000F069FF054655
:103B80006368012B0FD107E000F062FF401B41F298
:103B90008833984200F2B080624B9B6803F00C03BC
:103BA000042BF1D184E0022B17D107E000F050FF85
:103BB000401B41F28833984200F2A080594B9B6829
:103BC00003F00C03082BF1D172E000F041FF401B21
:103BD00041F28833984200F29380524B9B6813F075
:103BE0000C0FF2D164E0036813F0020F06D04D49C8
:103BF0008B6823F0F002836813438B60236813F013
:103C0000010F4DD06268012A05D1464B1B6813F4A1
:103C1000003F0DD176E0022A05D1424B1B6813F01C
:103C2000007F05D170E03F4B1B6813F0020F6DD091
:103C30003C498B6823F0030313438B6000F008FFBB
:103C400006466368012B0ED106E000F001FF801BE1
:103C500041F2883398425BD8324B9B6803F00C03E7
:103C6000042BF2D11CE0022B15D106E000F0F0FE8F
:103C7000801B41F2883398424CD82A4B9B6803F052
:103C80000C03082BF2D10BE000F0E2FE801B41F2A6
:103C90008833984240D8234B9B6813F00C0FF3D124
:103CA000EAB21F4B1A701B6803F00F03AB4235D109
:103CB000236813F0040F06D01A498B6823F4E052EE
:103CC000E36813438B60236813F0080F07D0154A8D
:103CD000936823F46043216943EAC10393600020A1
:103CE00000F086FE002070BD012070BD012070BD77
:103CF000012070BD012070BD032070BD032070BD88
:103D0000032070BD012070BD012070BD012070BD79
:103D1000032070BD032070BD032070BD012070BD65
:103D2000003C024000380240224B9B6803F00C0329
:103D3000042B3DD0082B01D01F4870471D4B5868FD
:103D400000F03F005B6813F4800F10D01B4BB3FBF7
:103D5000F0F3184A506847F6C072104092FAA2F287
:103D6000B2FA82F2D2B2D04000FB03F30FE0124B62
:103D7000B3FBF0F30F4A506847F6C072104092FA56
:103D8000A2F2B2FA82F2D2B2D04000FB03F3094AA7
:103D9000506800F440304FF4403292FAA2F2B2FA86
:103DA00082F2D2B2D04001304000B3FBF0F0704755
:103DB00002487047003802400024F40000127A00E4
:103DC00008B5FFF7B1FF094B9B6803F0F002F02341
:103DD00093FAA3F3B3FA83F3DBB222FA03F3044AB0
:103DE000D35CD840034B186008BD00BF00380240C8
:103DF000284D0008DC00002030B40468636A19B95B
:103E000043EA0240A06218E00D46A06A03EB1040AE
:103E1000002308E003F1400104EB8101496800EB55
:103E200011400133DBB2691E8B42F3DB40EA0240F2
:103E300005F13F0104EB81014860002030BC704770
:103E400003685962002070472DE9F04383B00746AC
:103E50000E46D0F80080CB005B1A9B0003449C6C9C
:103E6000DA6CA41ADB6B9C4200D91C46E31C00D51B
:103E700003339B101BE0F500AD1BAD003D44296CE6
:103E80003B7C00934046F2B2A3B2FEF7C5FF2B6C19
:103E900023442B64EB6C1C44EC64AB6C1C1BEB6B81
:103EA0009C4200D91C46E31C00D503339B104146BD
:103EB00008EB461202F51062926992B29A4209D357
:103EC000F3009B1B9B003B44DA6C9B6C9A4201D233
:103ED000002BD0D1002C0ADC0123B340D1F83428C8
:103EE00022EA0303C1F834383846FCF737FA0020D9
:103EF00003B0BDE8F08300BF002869D0F0B58BB0F7
:103F00000446032380F87D33FCF790F92068FEF720
:103F10004BFD254655F8107B6E460FCD0FC60FCDD5
:103F20000FC62B683360231D0ECB3846FEF7FAFC14
:103F300020680021FEF73EFD002210E0D3009B1A0E
:103F40009B002344012183F8351083F834205A87DD
:103F5000002183F83710D9631964996401320E2A5D
:103F6000ECD9002218E0D3009B1A9B0023440021C7
:103F700083F8D91183F8D8215A8783F8DB11C3F865
:103F8000E011C3F8E411C3F8EC11236802F140001A
:103F900003EB8003596001320E2AE4D9254655F817
:103FA000107B6E460FCD0FC60FCD0FC62B6833604A
:103FB000231D0ECB3846FEF73DFD012384F87D33EB
:103FC000002584F87C532068FFF716F9284601E0A5
:103FD000012070470BB0F0BD90F87C33012B0ED060
:103FE00010B50446012380F87C330068FFF7F8F829
:103FF0002068FEF7D3FC002084F87C0310BD02206B
:10400000704700BF90F87C33012B11D010B50446E7
:10401000012380F87C330068FEF7C6FC2068FFF7B8
:10402000ADF82068FFF7E8F8002084F87C0310BDA5
:10403000022070472DE9F84F044606683046FFF726
:1040400017F9002840F019822068FFF7E1F80028EE
:1040500000F013822068FFF7DBF810F0020F02D0A7
:10406000236802225A612068FFF7D2F810F4002F6B
:104070005CD02068FFF7D0F80746002553E017F022
:10408000010F4ED05FFA85F920684946FFF7D4F852
:10409000804610F0010F31D006EB45130122C3F822
:1040A000082B03F530632269012A12D1EA00521B62
:1040B00092002244D2F8E0111B69C3F31203C91A1B
:1040C000C2F8F011D2F8E411D2F8E0310B44C2F892
:1040D000E43120464946FCF7DFF82369012B0DD176
:1040E00065B9C5EBC5039B002344D3F8EC312BB96C
:1040F0002068012104F56072FFF7DAF818F0080F64
:1041000007D02046FCF7BEF806EB45130822C3F89B
:10411000082B18F0100F04D006EB45131022C3F83B
:10412000082B01357F08002FA9D100E00025206869
:10413000FFF76EF810F4802F69D02068FFF774F84D
:104140000746002561E017F0010F5CD05FFA85F9A2
:1041500020684946FFF77AF8804610F0010F2BD00F
:10416000012202FA05F0D6F8343823EA0003C6F833
:10417000343806EB4513C3F808292369934207D165
:10418000EB005B1B9B002344196CDA6B0A441A6436
:1041900020464946FCF78CF82369012B0CD15DB908
:1041A000C5EBC5039B0023449B6C2BB92068012100
:1041B00004F56072FFF77CF818F0080F04D006EBE6
:1041C00045130822C3F8082918F0100F04D006EB95
:1041D00045131022C3F8082918F0400F04D006EB4D
:1041E00045134022C3F8082918F0020F04D006EB4B
:1041F00045130222C3F8082918F0800F03D0204687
:104200002946FFF721FE01357F08002F9BD120684A
:10421000FEF7FEFF00280CDAD6F8043823F001037D
:10422000C6F804382046FCF773F823684FF00042C4
:104230005A612068FEF7ECFF10F4006F0BD0D6F83F
:10424000083813F0010F02D02046FCF753F823681A
:104250004FF400625A612068FEF7DAFF10F4805FC5
:104260004ED0374606F50068D8F8043023F0010335
:10427000C8F8043020680021FEF7B2FB002207E0F6
:1042800007EB4213FF21C3F80819C3F8081B0132DA
:1042900063689342F4D84FF0FF33C8F81830D8F869
:1042A0001C3043F00113C8F81C30E36A63B1D8F83E
:1042B000843043F00B03C8F88430D8F8443043F01E
:1042C0000B03C8F844300BE0D8F8143043F00B036C
:1042D000C8F81430D8F8103043F00B03C8F8103089
:1042E000D6F8003823F4FE63C6F800382068217C35
:1042F00004F56072FEF7DCFF23684FF480525A61C8
:104300002068FEF785FF10F4005F26D02068FEF7D6
:10431000B3FF2268D36823F47053D3602068FEF79C
:104320002BFC50B90023E3604FF4007363612268F3
:10433000D36843F41053D36008E00323E3604023C1
:1043400063612268D36843F4A053D3602046FBF72F
:10435000C1FF23684FF400525A612068FEF758FFEE
:1043600010F0100F42D02268936923F0100393617C
:10437000376A07F00F08C7F34343022B1CD147F6F7
:10438000F0731F402DD03F094FEAC809C8EB090A56
:104390004FEA8A0AA2443046DAF8E4113A46FEF7B8
:1043A0007BFEDAF8E4313B44CAF8E431DAF8F03164
:1043B0001F44CAF8F07114E0062B12D1304604F500
:1043C00060710822FEF768FEC7F30A174FEAC803B8
:1043D000C8EB030292002244D2F8F0313B44C2F809
:1043E000F0312268936943F0100393612068FEF76F
:1043F0000FFF10F0080F05D02046FBF765FF23687C
:1044000008225A612068FEF703FF10F4801F07D0CE
:104410002046E9B2FBF790FF23684FF480125A61FF
:104420002068FEF7F5FE10F4001F07D02046E9B221
:10443000FBF77CFF23684FF400125A612068FEF7F7
:10444000E7FE10F0804F06D02046FBF77BFF236885
:104450004FF080425A612068FEF7DAFE10F0040F38
:104460000BD023685D6815F0040F02D02046FBF7DF
:104470006FFF23685A6815435D60BDE8F88F00BF81
:1044800090F87C33012B0BD010B50446012380F843
:104490007C330068FEF794FE002084F87C0310BD96
:1044A0000220704738B50546C8B210F0800F07D01B
:1044B00001F07F04C4EBC404A4002C44343407E0AE
:1044C00001F07F04C4EBC404A40004F5EC742C4494
:1044D00001F07F012170C0096070A260E37000B13B
:1044E000E180022B01D10023237195F87C33012B4D
:1044F0000AD0012385F87C3328682146FEF75CFB4F
:10450000002085F87C0338BD022038BD10B5044674
:10451000CAB212F0800F07D001F07F03C3EBC303D0
:104520009B000344343307E001F07F03C3EBC30374
:104530009B0003F5EC73034401F07F011970D2096D
:104540005A7094F87C23012A0AD0012284F87C2333
:1045500020681946FEF776FB002084F87C0310BD26
:10456000022010BD70B501F07F06F400A51BAD0060
:1045700005F5EC754119A41BA4000444C4F8E4211A
:10458000C4F8EC310023C4F8F03184F8D93184F850
:10459000D8610369012B05D1C6EBC604A40004440D
:1045A000C4F8E82190F87C23012A11D004460122A6
:1045B00080F87C2326B90068DAB2FEF781FB03E0BD
:1045C0000068DAB2FEF73CFC002084F87C0370BD82
:1045D000022070BD01F07F01C1EBC10189000844D8
:1045E000B0F8F001704700BF70B501F07F06F4002D
:1045F000A51BAD00054405F134012C462A64AB64CB
:104600000025E564012384F8353084F834600369BB
:10461000012B04D1C6EBC604A4000444626490F8E4
:104620007C23012A11D00446012280F87C2326B97C
:104630000068DAB2FEF744FB03E00068DAB2FEF786
:10464000FFFB002084F87C0370BD022070BD00BF1A
:1046500038B50446CAB212F0800F07D001F07F03CC
:10466000C3EBC3039B000344343305E0C1EBC10338
:104670009B0003F5EC7303440120987001F07F0563
:104680001D70D2095A7094F87C23824210D084F8AD
:104690007C0320681946FEF715FD2DB92068217CA2
:1046A00004F56072FEF704FE002084F87C0338BD38
:1046B000022038BD10B50446CAB212F0800F07D0F0
:1046C00001F07F03C3EBC3039B000344343305E0D5
:1046D000C1EBC1039B0003F5EC7303440020987009
:1046E00001F07F011970D2095A7094F87C23012AD5
:1046F0000AD0012284F87C2320681946FEF70EFDBB
:10470000002084F87C0310BD022010BD90F87C339B
:10471000012B14D010B50446012380F87C3311F02E
:10472000800F05D0006801F07F01FEF759F902E023
:104730000068FEF767F9002084F87C0310BD0220B2
:10474000704700BF2DE9F0410023D3E09C460122D1
:104750009A400C681440944240F0CB804D68022D82
:1047600001D0122D14D14FEAD30808F1080850F8EF
:10477000287003F0070E4FEA8E0E0F2505FA0EF58E
:1047800027EA05060D6905FA0EF5354340F828506D
:1047900006684FEA430E032505FA0EF5ED4305EAD8
:1047A00006074E6806F0030606FA0EF63E4306605C
:1047B0004E68771E012F03D9112E01D0122E12D16F
:1047C000866805EA0607CE6806FA0EF63E4386605E
:1047D000476827EA02074E68C6F3001202FA0CF691
:1047E00046EA07024260C2682A408D6805FA0EF563
:1047F0001543C5604A6812F0805F7AD0404D6A6CFC
:1048000042F480426A649A08961CA5F5803555F8F2
:10481000266003F00307BF000F25BD4026EA05060A
:10482000384DA84231D005F58065A8422BD005F55A
:104830008065A84225D005F58065A8421FD005F502
:104840008065A84219D005F58065A84213D005F50A
:104850008065A8420DD005F58065A84207D005F512
:104860008065A84201D1082510E009250EE0072542
:104870000CE006250AE0052508E0042506E00325EE
:1048800004E0022502E0012500E00025BD4035439B
:1048900002321D4E46F822501C4A1568E24302EAD5
:1048A00005064F6817F4803F01D044EA0506174D0E
:1048B0002E606D6802EA05064F6817F4003F01D0CC
:1048C00044EA0506114D6E60AD6802EA05064F68C0
:1048D00017F4801F01D044EA05060C4DAE60ED6868
:1048E0002A404E6816F4001F01D044EA0502074C26
:1048F000E26001330F2B7FF629AFBDE8F08100BFE6
:10490000003802400000024000380140003C0140F5
:1049100000F00700064AD36823F4E0631B041B0C75
:1049200043EA002040F0BF6040F40030D0607047A0
:1049300000ED00E030B4164BDC68C4F30224C4F18F
:104940000705042D28BF0425231D062B01D9033C90
:1049500000E00024012303FA05F5013D2940A140B0
:10496000A340013B1A400A43002806DA00F00F007A
:104970001201D2B2074B1A5407E01201D2B200F171
:10498000604000F5614080F8002330BC704700BFF4
:1049900000ED00E014ED00E0410900F01F000123EC
:1049A0008340024A42F82130704700BF00E100E036
:1049B0000138B0F1807F06D2044B58600020986027
:1049C00007221A6070470120704700BF10E000E026
:1049D000042805D1054A136843F0040313607047A7
:1049E000024A136823F004031360704710E000E0EC
:1049F00008B5FFF7E5F9044BA3FB00308009FFF78A
:104A0000D7FF002008BD00BFD34D621008B50B4B87
:104A10001A6842F400721A601A6842F480621A60DE
:104A20001A6842F480721A600320FFF771FF0020B9
:104A3000FFF7DEFFFCF702FC002008BD003C02404F
:104A4000024A136801331360704700BF64010020FD
:104A5000014B1868704700BF6401002010B582B098
:104A60000190FFF7F5FF0446FFF7F2FF001B019BE3
:104A70009842F9D302B010BD0C4B1A6842F0010203
:104A80001A60002199601A6822F0847222F4803240
:104A90001A60074A5A601A6822F480221A60D960A4
:104AA0004FF00062034B9A60704700BF003802402D
:104AB0001030002400ED00E0DFF830D0002103E0EA
:104AC0000B4B5B58435004310A480B4B42189A4237
:104AD000F6D30A4A02E0002342F8043B084B9A420C
:104AE000F9D3FFF7C9FFFCF729FB704700C001208D
:104AF0003A4D000800000020440100204801002039
:104B0000100E0020FEE70000024B0146186800F07E
:104B10004FB800BF40010020024B0146186800F06A
:104B200003B800BF4001002030B500293CD051F847
:104B3000042C0B1F1D49002AB8BF9B180A680C469D
:104B400012B95A600B6030BD93420DD219685818E3
:104B5000904201BF5A5852181A60426823605A6046
:104B600030BD994203D80A4651680029F9D114682A
:104B700015199D420AD11B682344D018884213603E
:104B800012D10868034413604B680CE002D90C236F
:104B9000036030BD1C681819884201BF0868496865
:104BA000001918605960536030BD00BF6C010020CF
:104BB00070B5CC1C24F0030408340C2C38BF0C2432
:104BC000002C064603DA0C233360002070BD8C42B3
:104BD000F9D3204A136810461946A1B10A68121B7E
:104BE0000ED40B2A03D90A608B188C501FE08B421D
:104BF0000BBF5A684A6802605A6018BF0B4616E03D
:104C00000B464968E9E7144D2B681BB9304600F0A4
:104C100025F828603046214600F020F8421C034663
:104C2000D1D0C51C25F0030585420AD11C6003F1D3
:104C30000B001A1D20F00700821A0AD05142995029
:104C400070BD3046E91A00F009F80130BBD02B46A0
:104C5000ECE770BD6C0100206801002038B5064CFF
:104C6000002305460846236000F008F8431C02D1E3
:104C7000236803B12B6038BD0C0E0020044A05499F
:104C80001368002B08BF0B46184410601846704785
:104C900070010020100E002053544D3332204D611E
:104CA00073732053746F72616765000053544D69CC
:104CB00063726F656C656374726F6E696373000015
:104CC0003030303030303030303031410000000092
:104CD0004D534320436F6E66696700004D53432078
:104CE000496E7465726661636500000000800202AF
:104CF0001F00000053544D202020202050726F646C
:104D0000756374202020202020202020302E303178
:104D10000000000300808300000600000000000087
:104D20000000000000000000000000000102030479
:0A4D3000010203040607080943000E
:104D3A008901000895010008BD010008A1010008C9
:104D4A00D9010008F501000811020008040309044A
:104D5A00120100020000004083042A5700020102E7
:104D6A000301000009072000010104C03209040000
:104D7A0000020806500507058102400000070501E8
:104D8A00024000000A060002000000400100000084
:104D9A0009022000010104C0FA0904000002080601
:104DAA005005070581020002000705010200020002
:104DBA002D27000889270008B527000800000000F1
:104DCA0000000000B1280008BD280008000000000B
:104DDA000000000000000000C9280008FD260008A5
:104DEA0009270008152700082127000809022000C2
:104DFA00010104C032090400000208065005070533
:104E0A008102400000070501024000000024F4006E
:104E1A000000000000000000000000000000000088
:104E2A000000000000000000000000000000000078
:104E3A00384D0008000000000000000000000000DB
:104E4A000000000000000000000000000000000058
:104E5A000000000000000000000000000000000048
:104E6A000000000000000000000000000000000038
:044E7A00E000002034
:0400000508004AB9EC
:00000001FF
