:020000040800F2
:1000000000C00120656B0008B16B0008B16B0008EF
:10001000B16B0008B16B0008B16B00080000000074
:10002000000000000000000000000000B16B0008AC
:10003000B16B000800000000B16B00081106000859
:10004000B16B0008B16B0008B16B0008B16B000820
:10005000B16B0008B16B0008B16B0008B16B000810
:10006000B16B000879060008B16B0008B16B00089D
:10007000B16B0008B16B0008B16B0008B16B0008F0
:10008000B16B0008B16B0008B16B0008B16B0008E0
:10009000B16B0008B16B0008B16B0008B16B0008D0
:1000A000B16B0008B16B0008B16B0008B16B0008C0
:1000B000B16B0008B16B0008B16B0008B16B0008B0
:1000C000B16B0008B16B0008B16B0008B16B0008A0
:1000D000B16B0008B16B0008B16B0008B16B000890
:1000E000B16B0008B16B0008B16B0008B16B000880
:1000F000B16B0008B16B0008B16B0008B16B000870
:10010000B16B0008B16B0008B16B0008B16B00085F
:10011000B16B0008B16B0008B16B0008B16B00084F
:10012000B16B0008B16B00083906000859060008D9
:10013000B16B00080000000000000000B16B000877
:10014000B16B0008B16B0008B16B0008190600081C
:10015000B16B0008B16B0008B16B0008B16B00080F
:10016000B16B0008B16B0008B16B0008B16B0008FF
:10017000B16B0008B16B0008000000000000000037
:10018000B16B0008B16B000812230B800048704768
:100190002000002004230B80004870471C00002032
:1001A00010B50A46034C0448214601F0D5F8204614
:1001B00010BD00BF5C010020446D000810B50A4668
:1001C000034C0448214601F0C7F8204610BD00BF8B
:1001D0005C010020586D000810B50A46034C044825
:1001E000214601F0B9F8204610BD00BF5C01002097
:1001F0006C6D000810B50A46034C0448214601F016
:10020000ABF8204610BD00BF5C0100207C6D0008EB
:1002100010B50A46034C0448214601F09DF82046DB
:1002200010BD00BF5C010020886D00080368B3F1B9
:10023000A04F22D130B587B0104B5A6B42F08002EC
:100240005A635A6C42F480425A644FF4C05301938B
:10025000022302930024039404940A250595084878
:1002600001A904F095F843202946224606F0C8FB70
:10027000432006F0F7FB07B030BD7047003802405E
:100280000000024008B50146D0F8AC0301F55F71EB
:1002900001F0BAF808BD00BF08B5C1EBC1039B006F
:1002A0000344D0F8AC03D3F8E02101F0DBF808BD3B
:1002B00008B5C1EBC1039B000344D0F8AC03DA6B73
:1002C00001F000F908BD00BF08B5D0F8AC0301F09B
:1002D00073F908BD10B50446C3680BB9002100E0EE
:1002E0000121D4F8AC0301F053F9D4F8AC0301F0C8
:1002F0002FF910BD10B50446D0F8AC0301F04CF94D
:100300002268D2F8003E43F00103C2F8003E10BD5F
:1003100008B50268D2F8003E23F00103C2F8003E9F
:10032000D0F8AC0301F042F908BD00BF08B5D0F821
:10033000AC0301F04FF908BD08B5D0F8AC0301F0EB
:1003400047F908BD08B5D0F8AC0301F045F908BD80
:1003500008B5D0F8AC0301F041F908BD08B5D0F8F4
:10036000AC0301F047F908BD38B503782BBB144C3A
:10037000C4F8AC03C0F820424FF0A0432360072329
:1003800063600223E360002525616561A361E56187
:1003900025626562A562E562204603F0EBFB20461C
:1003A000802103F08BFB20462946402203F062FBAC
:1003B00020460121802203F05DFB002038BD00BFF4
:1003C0005C03002008B5D0F8200203F043FC0020B5
:1003D00008BD00BF10B51446D0F820021A462346C7
:1003E00003F088FE002010BD08B5D0F8200203F00D
:1003F000B5FE002008BD00BF08B5D0F8200203F00C
:10040000ABFF002008BD00BF08B5D0F8200203F004
:1004100045FF002008BD00BF08B5D0F8200203F05A
:100420006FFF002008BD00BFD0F8202211F0800F20
:1004300008D001F07F03C3EBC3039B00134493F880
:100440003200704701F07F01C1EBC1018900114406
:1004500091F8D601704700BF08B5D0F8200203F02C
:1004600037FE002008BD00BF08B5D0F8200203F019
:10047000E1FE002008BD00BF08B5D0F8200203F05F
:1004800099FE002008BD00BF08B5D0F8200203F097
:10049000C7FE08BD10B5074C20460749002200F0F2
:1004A00079FF2046054900F08BFF204600F090FFC1
:1004B00010BD00BF0C0700200000002080000020BD
:1004C0002DE9F04186B0294B1A6B42F001021A6304
:1004D0001A6B42F002021A631A6B42F004021A63AA
:1004E0001A6B42F008021A6341F6FF73019300246D
:1004F000029401270397049405941D4801A903F071
:1005000047FF4FF6E77301931A4E304601A903F0F7
:100510003FFF4FF6FF730193174D284601A903F0E3
:1005200037FF164801A903F033FF1023019303237B
:100530000293284601A903F02BFF4FF48058CDF811
:10054000048002970394284601A903F021FFC5F80F
:1005500018802025019502970394304601A903F0E5
:1005600017FFB56106B0BDE8F08100BF003802405A
:10057000000002400004024000080240000C02405B
:1005800000B593B01B4A136C43F080531364A2F57B
:10059000E432136823F4404343F40043136001231F
:1005A0000693079302230C934FF480030D930823C3
:1005B0000E934FF4A8730F93042310930723119302
:1005C00006A802F051FF00B1FEE70D2301930221BE
:1005D0000291002303934FF4A05304934FF48053EC
:1005E000059301A803F0C8F800B1FEE713B05DF869
:1005F00004FB00BF0038024008B506F05DFAFFF7C3
:10060000BFFFFFF75DFFFFF745FF00F023F9FEE7AF
:1006100008B506F06BFA08BD10B5054C4FF08053D5
:10062000A361044803F02CFB4FF48053A36110BD79
:10063000000802405C03002010B5054C4FF4001385
:10064000A361044804F014F82023A36110BD00BF87
:10065000000402403009002010B5054C4FF400138F
:10066000A361044804F004F82023A36110BD00BF77
:10067000000402408009002010B5064C4FF400131E
:10068000A3610322044B5A6100F082F92023A36185
:1006900010BD00BF00040240003C014008B54FF00F
:1006A000FF300221002206F0ABF908BD0268404B82
:1006B0009A427BD12DE9F04786B0044603F5843396
:1006C0005A6C42F480525A641A6B42F480021A63E4
:1006D000E023019302270297002503954FF00109BB
:1006E000CDF8109005230593324E304601A903F052
:1006F0004FFE4FF01008CDF80480CDF8089030463A
:1007000001A903F045FEC6F818802B4820642B4B46
:10071000036084634FF0C06AC0F804A04023836084
:10072000C5604FF48069C0F8109045618561C5616E
:100730004FF48038C0F82080456203F025FF3B204D
:100740000A212A4606F05CF93B2006F08BF91C488A
:1007500060641C4B03608463C0F804A08560C560BE
:10076000C0F8109045618561C561C0F82080456280
:1007700003F00AFF3A200A212A4606F041F93A20FE
:1007800006F070F9082301930F4B0293039730464C
:1007900001A903F0FDFD09200A212A4606F030F9DF
:1007A000092006F05FF906B0BDE8F087704700BF8A
:1007B00000300140000002408009002058640240DF
:1007C00030090020406402400000211008B50E48A6
:1007D0000E4B0360002380F851304FF48272426068
:1007E0008360C360036143614FF400728261202221
:1007F000C261036243624FF4005383620723C36202
:1008000002F042FB08BD00BFFC0D0020003001409B
:1008100008B50C4B1B78072B00D0FEE701460822D9
:10082000084B1A70084B1860002321F8043F4FF45E
:100830008012064B9A610648032202F06DFC00B15B
:10084000FEE708BDD1090020F00D002000000240A5
:10085000FC0D002010B500240B4B1C70FFF7B6FFF9
:100860000A4B1C700A4B1C700A4B1C600A4B1C6024
:100870000A4B1C600A4B1B6913F0080FFAD10222C5
:10088000014B1A7010BD00BFD1090020E40B0020FD
:10089000D4090020F80D0020540E0020E00B0020A9
:1008A0000000024008B5104B1B78023BDBB2082B5E
:1008B00000D9FEE70D4B1B6803B1FEE703460C4A67
:1008C000127822B90A4801220270984709E0094AC1
:1008D000127822B9074801220270984701E0034AC2
:1008E0001060002008BD00BFD1090020540E002078
:1008F000E40B0020D409002008B50D4B1A78931E94
:10090000DBB2082B00D9FEE7022A02D10722084BEE
:100910001A70074B1B78072B07D1064B1B6913F086
:10092000080F02D10448FFF7BDFF002008BD00BF3B
:10093000D109002000000240110800080A4B1B7872
:10094000023BDBB2082B00D9FEE7084B1B781BB932
:100950000648012303707047054B1B781BB90448F8
:10096000012303707047FEE7D1090020E40B00204B
:10097000D409002008B5054B1B6823B10021034AA8
:100980001160984708BD0023037008BD540E002075
:1009900008B5214B1B78033B062B3BD8DFE803F05F
:1009A000043A143A243A280004221B4B1A704FF4DC
:1009B00080121A4B9A611A4B19681A4804310222A4
:1009C00002F0A4FA38B3FEE70622134B1A704FF474
:1009D0008012124B9A61124B1B681248991D9A881B
:1009E00002F094FAB8B1FEE70F48FFF75BFF08BDCD
:1009F0000A22094B1A704FF48012084B9A61084B77
:100A000019688A8801320748063192B202F084FBE5
:100A100008B1FEE7FEE708BDD10900200000024052
:100A2000F00D0020FC0D00201108000808B51F4B38
:100A3000984203D01E4B984200D0FEE70378012B6A
:100A400006D18388012B03D940F20222934200D9B8
:100A5000FEE70022174B1A60174B1B78023B082B4E
:100A600021D8DFE803F00D050505050C0C0C0C0082
:100A7000124B1B6803B1FEE7104B186014E0FEE751
:100A800003220D4B1A700E4B186082790D4B1A70B1
:100A9000C2790D4B1A700D4B1B6913F0080F03D16F
:100AA000FFF776FF00E0FEE7002008BDE40B002022
:100AB000D4090020E00B0020D1090020F80D00200F
:100AC000F00D0020F40D0020D009002000000240AD
:100AD00008B510221B4B9A611B4B1B78042B02D0CC
:100AE000062B00D0FEE7042B0AD10522164B1A7004
:100AF000144B1B6913F0080F23D1FFF749FF08BD02
:100B0000062B1ED1114B1868FFF734FF104B1B68E2
:100B10007BB103210C4A11700C4A136000220C4B6C
:100B20001A60084B1B6913F0080F0AD1FFF730FF5A
:100B300008BD0222044B1A70064B1B680BB1FFF76D
:100B4000DBFE08BD00000240D1090020F00D0020AE
:100B5000F80D0020E00B002008B510221D4B9A6113
:100B60001D4B1B78082B02D00A2B00D0FEE7082B68
:100B700013D11A4B1B689B88023B9BB2B3F5007FD5
:100B800000D9FEE70922144B1A70124B1B6913F0AF
:100B9000080F1ED1FFF7FCFE08BD0A2B19D1022257
:100BA0000D4B1A700E4B1A780C4B1868837903F0B2
:100BB0007F03934204D1C2790A4B1B789A4200D03A
:100BC000FEE7094B1B6803B9FEE70021064A1160E6
:100BD000984708BD00000240D1090020F00D002018
:100BE000F40D0020D0090020E00B0020FEE700BF3C
:100BF00000B583B002464FF4802181604FF400734A
:100C0000C36000910193044B1B680020694698471C
:100C100003B05DF804FB00BF6C0E002008B5FFF7C1
:100C2000A9FE024B1B680020984708BD740E0020E7
:100C300010B50446FFF79EFE024B1B68207A9847CA
:100C400010BD00BF740E002008B5094B1860FFF7F7
:100C500075FE02228280012282710022C271FFF79A
:100C6000E5FE18B90348FFF71DFE08BD08BD00BF2B
:100C7000740E00201D0C000808B5084B1860FFF723
:100C80005DFE0222828001218171C271FFF7CEFEDA
:100C900018B90348FFF706FE08BD08BD6C0E00201A
:100CA000F10B0008F8B50021134C2160134C2170A2
:100CB00013490860134DC5E90023134C069B2360BC
:100CC000124B079A1A60FFF739FE0E22828001222A
:100CD00082710322C271D5E90067C0E90267226808
:100CE0000261FFF7A3FE10B1054A12689047084859
:100CF000FFF7D8FDF8BD00BF580E0020680E002099
:100D0000740E0020600E0020700E00207C0E00206B
:100D10001D0C000808B50C4B18600C4B1B788BB9E8
:100D200001220A4B1A700A4B1B683BB130B11846BE
:100D300000F012F80020064B186008BD0548FFF7C8
:100D4000B1FD08BD002008BD780E0020680E00200F
:100D5000580E0020590D000838B500220F4B1A70AC
:100D60000F4B1D6815B90F4B186038BD01460E4C6E
:100D70002068821C40F202239A4228BF1A4692B28F
:100D80008A80023A92B2801A20600020A847236825
:100D900013B10020FFF7BEFF38BD00BF680E002072
:100DA000780E0020580E00207C0E0020F8B5104967
:100DB0000860104DC5E900230F4C069B2360FFF728
:100DC000BDFD0E228280012282710422C271D5E90A
:100DD0000067C0E9026722680261FFF727FE10B1D1
:100DE000034A126890470548FFF75CFDF8BD00BF55
:100DF000740E0020600E0020700E0020310C0008E0
:100E000008B502318180812282710422C271FFF70C
:100E10000DFE08BD38B50D4613460222C0F8F42178
:100E20008361C36100212A46FFF71EFB002038BD05
:100E300010B50C46134600212246FFF715FB002093
:100E400010BD00BF10B50C46134600212246FFF727
:100E500013FB002010BD00BF08B50423C0F8F43117
:100E600000210A460B46FFF7FFFA002008BD00BF2D
:100E700008B50523C0F8F43100210A460B46FFF7F8
:100E8000FBFA002008BD00BF0346002002E001304D
:100E9000C0B201331A78002AF9D170474B88012B70
:100EA0000BD110B50446C0F80432D0F814329B6858
:100EB00098472046FFF7D0FF10BD70470B780370AE
:100EC0004B7843708B78CA7803EB022343800B790D
:100ED0004A7903EB022383808B79CA7903EB0223DF
:100EE000C380704710B504468021FFF78DFA204675
:100EF0000021FFF789FA10BD30B583B004460D46D6
:100F00004A88130A013B062B00F28580DFE803F0D4
:100F1000040D238383657300D0F810321B68007CB6
:100F20000DF106019847014679E0037C4BB9D0F8F2
:100F30001432DB6A0DF10600984701460223437024
:100F40006DE0D0F814321B6B0DF106009847014696
:100F50000223437063E0D2B2052A3AD8DFE802F0F8
:100F6000030C151E2730D0F810325B68007C0DF1A1
:100F700006019847014652E0D0F810329B68007C89
:100F80000DF106019847014649E0D0F81032DB68C0
:100F9000007C0DF106019847014640E0D0F8103280
:100FA0001B69007C0DF106019847014637E0D0F837
:100FB00010325B69007C0DF10601984701462EE076
:100FC000D0F810329B69007C0DF10601984701466C
:100FD00025E02946FFF786FF2EE0037C3BB9D0F8D9
:100FE00014329B6B0DF106009847014617E0294625
:100FF000FFF778FF20E0037C4BB9D0F814325B6B2D
:101000000DF10600984701460723437007E0294683
:10101000FFF768FF10E02946FFF764FF0CE0BDF81A
:1010200006304BB1EA883AB19A4228BF1A46ADF869
:1010300006202046FFF7EEFE03B030BD38B504466B
:101040008B88E3B9CB88D3B98D7805F07F0590F80C
:10105000FC31032B02D1FFF745FF38BD80F8FE516C
:101060002946FFF7F9F92046FFF7F6FE1DB10223E6
:1010700084F8FC3138BD012384F8FC3138BD2046AA
:10108000FFF730FF38BD00BF38B504460D468978FC
:10109000264B1970012903D92946FFF723FF38BDD4
:1010A00090F8FC31022B02D0032B15D039E081B12E
:1010B0004160032380F8FC3100F090F9022804D14C
:1010C00020462946FFF70EFF38BD2046FFF7C4FE35
:1010D00038BDFFF7C1FE38BD49B9022380F8FC31A5
:1010E000416000F089F92046FFF7B6FE38BD43683D
:1010F000994213D0D9B200F07FF90C4B1978616096
:10110000204600F06BF9022804D120462946FFF75B
:10111000E9FE38BD2046FFF79FFE38BDFFF79CFE75
:1011200038BD2946FFF7DEFE38BD00BF480100206C
:1011300008B50346CA88012A02D0FFF7D3FE08BDCE
:1011400090F8FC21022A02D0032A08D00CE00146C4
:10115000002241F8082F0122FFF75CFE08BD191D8F
:101160000122FFF757FE08BDFFF7BCFE08BD00BF18
:1011700008B5034690F8FC21023A012A0DD8012255
:10118000C260D0F804220AB10322C260184603F1FB
:101190000C010222FFF73EFE08BDFFF7A3FE08BDCB
:1011A00010B5044690F8FC31023B012B0DD84B885A
:1011B000012B0CD10023C0F80432D0F814329B6804
:1011C00098472046FFF748FE10BDFFF78BFE10BD85
:1011D00008B54B78092B1BD8DFE803F011171A1458
:1011E0001A08051A0E0BFFF787FE13E0FFF726FF1C
:1011F00010E0FFF749FF0DE0FFF79AFF0AE0FFF765
:10120000B7FF07E0FFF74AFE04E0FFF7C9FF01E080
:10121000FFF768FE002008BD38B504460D4690F87B
:10122000FC31032B0FD10B79012B09D8D0F81432E4
:101230009B689847EB8843B92046FFF70DFE04E012
:10124000FFF750FE01E0FFF74DFE002038BD00BF64
:1012500038B505460C468A88D1B26378012B26D072
:10126000002B48D0032B74D190F8FC31022B02D014
:10127000032B07D017E000296BD0802969D0FFF736
:10128000C3F866E0638823B919B1802901D0FFF75C
:10129000BBF8D5F814329B68284621469847284663
:1012A000FFF7DAFD55E02146FFF71CFE51E090F80C
:1012B000FC31022B02D0032B07D018E0002948D0C4
:1012C000802946D0FFF7A0F843E06388002B40D187
:1012D00011F07F0F07D0FFF79FF8D5F814329B6805
:1012E0002846214698472846FFF7B6FD31E02146BB
:1012F000FFF7F8FD2DE090F8FC31022B02D0032B14
:1013000006D023E011F07F0F23D0FFF77DF820E017
:1013100012F0800F05D001F07F0400EB04141434A8
:1013200005E001F07F0400EB041404F58274284604
:10133000FFF77AF810B10123236001E00023236056
:10134000284621460222FFF765FD02E02146FFF70D
:10135000C9FD002038BD00BFD0B170B50D4616469E
:101360000446FFF791FD0130400080B230802870C4
:1013700003236B70022307E05A1CD2B20134E954F4
:10138000531CDBB20021A95421780029F4D170BD8F
:10139000704700BF90B108B503460020C3F814029F
:1013A000C3F8180209B1C3F81012012183F8FC1127
:1013B0001A701846FEF7D8FF002008BD02207047BB
:1013C00019B1C0F81412002070470220704700BF06
:1013D00008B5FEF7F7FF002008BD00BF08B5D0F83C
:1013E000143223B11B68984718B1022008BD0220AF
:1013F00008BD002008BD00BF08B5D0F814325B68F6
:101400009847002008BD00BF38B5044600F50275B6
:101410002846FFF753FD0123C4F8F431B4F80E3227
:10142000C4F8F83194F8081201F01F03012B08D01A
:1014300013B1022B0AD00EE020462946FFF7C8FE62
:101440000EE020462946FFF7E7FE09E02046294640
:10145000FFF7FEFE04E0204601F08001FEF7D4FF16
:10146000002038BD38B5044609BBD0F8F431032B51
:1014700026D1D0F80C31D0F810118B420AD95B1A62
:10148000C0F80C318B4228BF0B4611469AB2FFF7C9
:10149000D9FC15E0D0F814321B6923B190F8FC2177
:1014A000032A00D198472046FFF7D6FC08E0D0F881
:1014B00014329B6923B190F8FC21032A00D198478C
:1014C000002038BD38B50446B9BBD0F8F431022B42
:1014D0002BD1C169036A994206D9CB1AC36111465F
:1014E0009AB2FFF7A5FC20E08169B1FBF3F203FBA0
:1014F00012126AB98B420BD8D0F8F831994207D250
:1015000000210A46FFF794FC0023C4F8F8310CE0F0
:10151000D4F81432DB682BB194F8FC21032A01D1F2
:10152000204698472046FFF7A3FC94F80032012B91
:101530000CD1002384F8003208E0D0F814325B6943
:1015400023B190F8FC21032A00D19847002038BD30
:1015500038B5044600210A464023FEF73BFF4025EC
:10156000C4F810512046802100222B46FEF732FF9E
:101570002562012384F8FC31D4F818322BB1D4F859
:1015800014325B68204621799847002038BD00BF9F
:1015900001740020704700BF90F8FC3180F8FD31E5
:1015A000042380F8FC310020704700BF90F8FD3123
:1015B00080F8FC310020704708B590F8FC31032B0F
:1015C00004D1D0F81432DB6903B19847002008BD7C
:1015D00000207047002070470020704708B50122A6
:1015E00080F8FC21D0F8142252680179904700203D
:1015F00008BD00BF08B5D0F814329B6A9847002098
:1016000008BD00BF08B5044B1B6800205881034B80
:101610001B68984708BD00BF800E00208C0E00207C
:1016200008B5FFF78BF9284B1B6818610830D860A4
:10163000002306E0244A1268D2680021D154013305
:10164000DBB2112BF6D9204B1A68D26870211170C9
:101650001B68DA680C21D17193F8642093F8651047
:101660008A4222D0D96803EBC20393F844308B70CE
:10167000154B1B68D96893F8642003EBC20292F8FB
:1016800049200A73D96893F8642003EBC20292F8E8
:1016900048204A7393F864200132D2B283F8642060
:1016A000042A02D1002283F86420074B1B6812220F
:1016B0005A81064A12681279122A00D85A81044BBC
:1016C0001B680020984708BD800E0020840E002073
:1016D0008C0E002008B5FFF731F9144B1A68106121
:1016E0000830D060124B1B68597811F0010F08D1F7
:1016F0001049097905311B798B4205D90B460D48F4
:1017000003E007230C4800E00A48538106E0013B50
:101710009BB2064A1268D268C15CD154002BF6D144
:10172000064B1B680020984708BD00BF800E0020B4
:10173000840E0020986D0008BC6D00088C0E0020FF
:1017400008B5FFF7FBF80B4B1A6810610830D06042
:101750000823538107E0013B9BB2064A1268D26816
:101760000549C95CD154002BF5D1044B1B680020FE
:10177000984708BD800E0020CC6D00088C0E00201C
:1017800008B5FFF7DBF80B4B1A6810610830D06022
:101790000823538107E0013B9BB2064A1268D268D6
:1017A0000549C95CD154002BF5D1044B1B680020BE
:1017B000984708BD800E0020C46D00088C0E0020E4
:1017C00008B50B4B1B68186100F10802DA60DB6B8F
:1017D000B3F5007F28BF4FF4007306490868012164
:1017E0009BB2FEF749FE044B1B680020984708BDDA
:1017F000800E0020900E00208C0E002010B4D0F837
:10180000184294F8651001F1080004EBC000027161
:101810001B0283600131C9B284F86510042902D12A
:10182000002384F865305DF8044B704708B5014427
:10183000084B1B689B6E994209D9074B1868074BE8
:10184000197805222123FFF7D9FFFF2000E00020AF
:1018500040B208BD800E0020900E0020880E0020AF
:1018600008B5154B1B685B7813F0020F0DD0134BB6
:101870001868134B197805222423FFF7BFFF114B7B
:101880001B684FF0FF30984708BD0F4B1B68D86EA0
:10189000B3F87010FFF7CAFF002805DA094B1B6880
:1018A0004FF0FF30984708BD074B1B680020588158
:1018B000044B1B68984708BD840E0020900E002042
:1018C000880E00208C0E0020800E002008B588B104
:1018D0000C4B18680C4B197802223A23FFF78EFF45
:1018E0000A4B1B6805221A72094B1B684FF0FF3028
:1018F000984708BD054B1B6800205881044B1B68A6
:10190000984708BD900E0020880E0020800E002011
:101910008C0E002008B5104B1B68DB696BB10F4BB8
:1019200018680F4B197805222023FFF767FF0D4B2E
:101930001B684FF0FF30984708BD094B1B781BB15F
:101940000120FFF7C3FF08BD0748FFF77DF910B17D
:101950000120FFF7BBFF08BD800E0020900E002085
:10196000880E00208C0E0020CD18000810B568B13C
:10197000214B1868214B197802223A23FFF73EFFCA
:101980001F4B1B684FF0FF30984710BD1D4C23685C
:101990001A6102F10800D860086898664968A3F8DF
:1019A00066100138000E1072DA689B6E013BC3F3BB
:1019B000074353702368DA689B6E013BC3F3072328
:1019C00093702368DA689B6E013BD3702368DA68F2
:1019D00000211171DA685171D968B3F86620120AD2
:1019E0008A71DA6893F86610D17108225A81044B23
:1019F0001B680020984710BD900E0020880E002024
:101A00008C0E0020800E002008B50548FFF734F941
:101A100020B1012000210A46FFF7A8FF08BD00BF42
:101A20006D19000810B568B1234B1868234B19785D
:101A300002223A23FFF7E2FE214B1B684FF0FF30F2
:101A4000984710BD1F4B1C68226102F10800E0603E
:101A500000201072E26850701A68D26890701A689C
:101A6000D2680824D4701B68DC680A68013A120E38
:101A70002271DC680A68013AC2F307426271DC68CD
:101A80000A68013AC2F30722A271DC680A68013AC7
:101A9000E271DA6802241472DA688C795472DA68B6
:101AA0004C799472DA680979D1720C225A81044B0C
:101AB0001B68984710BD00BF900E0020880E0020C4
:101AC0008C0E0020800E002008B50548FFF7D4F8E2
:101AD00020B1012000210A46FFF7A4FF08BD00BF86
:101AE000251A000810B568B1154B1868154B197800
:101AF00004221123FFF782FE134B1B684FF0FF30C7
:101B0000984710BD1446114B1B681A6902B1FEE7D5
:101B1000196101F10802DA60094B18688121234636
:101B2000FEF7A2FC094B1A68D36B1B1BD3630BB9DE
:101B300003231372044B1B680020984710BD00BF9D
:101B4000900E0020880E00208C0E0020800E0020B9
:101B500008B568B10D4B18680D4B197802223A236D
:101B6000FFF74CFE0B4B1B684FF0FF30984708BD4A
:101B7000094B1B6802221A720848FFF7CBF820B104
:101B8000012000210A46FFF7ADFF08BD900E00209E
:101B9000880E00208C0E0020800E0020E51A000820
:101BA00010B582B0364B1B681A7A002A5DD193F9C2
:101BB0002020002A0DDB334A106893F821100522FB
:101BC0002023FFF71BFE304B1B684FF0FF30984778
:101BD00054E02E4A1468A078E278120442EA0062C7
:101BE000207942EA002260791043D866E279217AAE
:101BF00041EA0221A3F87010FFF718FE00280FDA5F
:101C00001F4B1B681F4A106893F8211005222023E0
:101C1000FFF7F4FD1C4B1B684FF0FF3098472DE099
:101C2000174B1B68D969B3F87000B3F8662002FB44
:101C300000F291420DD0134A106893F8211005224A
:101C40002023FFF7DBFD104B1B684FF0FF30984758
:101C500014E0DA6E009001910D480023FFF722F89E
:101C600060B10120FFF774FF08E00A48FFF752F85F
:101C700020B1012000210A46FFF734FF02B010BD59
:101C8000800E0020900E00208C0E0020840E00207C
:101C9000511B0008E51A000808B502280DD1194BA0
:101CA0001868194B197802222723FFF7A7FD174B55
:101CB0001B684FF0FF30984708BD68B1114B18689A
:101CC000114B197802223A23FFF798FD0F4B1B683E
:101CD0004FF0FF30984708BD0D4B1B6801221A7268
:101CE0000C48FEF7DFFD60B1064B1868064B19780B
:101CF00002223A23FFF782FD044B1B684FF0FF30AE
:101D0000984708BD900E0020880E00208C0E002001
:101D1000800E0020C117000810B582B04F4B1A6822
:101D2000137A002B5DD192F92030002B0DDA4C4B49
:101D3000186892F8211005222023FFF75FFD494B18
:101D40001B684FF0FF30984785E0474B1C68A07830
:101D5000E3781B0443EA0063207943EA00236079B7
:101D60001843D066E379217A41EA0321A2F8701082
:101D7000FFF75CFD00280FDA384B1B68384A106803
:101D800093F8211005222023FFF738FD354B1B68FF
:101D90004FF0FF3098475EE0304B1B68D869B3F8CE
:101DA0007010B3F8662002FB01F290420DD02C4A6D
:101DB000106893F8211005222023FFF71FFD294BFF
:101DC0001B684FF0FF30984745E0DA6E00912748D6
:101DD0000023FEF7EBFF00283DD00120FFF75CFF5A
:101DE00039E0D46BB4F5007F28BF4FF4007410695C
:101DF0002146FFF705F868B1194B18681C4B197894
:101E000004220323FFF7FAFC164B1B684FF0FF3048
:101E1000984720E0114B1A68D36B1C1BD4634CB954
:101E20000F4B1868002100F051F90E4B1B68002081
:101E3000984710E00F48FEF735FD60B1084B186871
:101E40000B4B197802223A23FFF7D8FC054B1B688D
:101E50004FF0FF30984702B010BD00BF800E002049
:101E6000900E00208C0E0020840E0020991C00088B
:101E7000880E0020C117000810B5364C2060364C83
:101E80002260364C2170364C2360D0F81842354B16
:101E90001C6013785A2B53D8DFE803F02E525231CE
:101EA0005252525252525252525252525252345230
:101EB0005252525252523D3752523A525252524359
:101EC0005246525249524C525252524F5252525210
:101ED00052525252525252525252525252525252E2
:101EE00052525252525252525252525252525252D2
:101EF0005252525252524000FFF70CFD10BDFFF7F4
:101F00008FFB10BDFFF7E6FB10BDFFF77BFB10BD9D
:101F1000FFF778FB10BDFFF713FC10BDFFF730FC97
:101F200010BDFFF7D1FD10BDFFF76EFD10BDFFF72F
:101F300037FE10BDFFF7F0FE10BDFFF791FC10BD9E
:101F400005222023FFF75AFC054B1B684FF0FF309A
:101F5000984710BD900E0020840E0020880E0020AF
:101F60008C0E0020800E002038B50546D0F81842AF
:101F700094F8203033B9E36923B1637A13B90121AE
:101F8000FEF742FA28468121FEF73EFA637A022BD9
:101F900006D12846012104F114021F23FEF76CFA32
:101FA00038BD00BF38B50546D0F81842A369A36311
:101FB000E369E3630121FEF767FA1F280CD1626928
:101FC000114B9A4208D194F82110012904D894F8B1
:101FD00022300BB1102B0CD9284694F82110052281
:101FE0002023FFF70BFC022363722846FFF7BCFF98
:101FF00038BD064B1D60064B1C60284604F12302C9
:10200000044BFFF739FF38BD55534243940E00206F
:10201000980E00206921000810B50C46D0F818125F
:10202000CB699A4228BF1A4693B2CA6BD21ACA63C6
:10203000002281F8402004220A7281212246FEF704
:1020400013FA10BD38B50546D0F8184200232372A4
:10205000637284F8653084F864300121FEF7CCF9AE
:1020600028468121FEF7C8F92846012104F114020F
:102070001F23FEF701FA38BD08B5D0F81822002357
:1020800013720121517214321F23FEF7F5F908BDB6
:10209000D0F8183200221A72704700BF08B5D0F885
:1020A0001822137A13B1012B03D008BDFFF77AFF72
:1020B00008BD044B186092F821102332024BFFF741
:1020C000DBFE08BD940E00205121000838B50546FE
:1020D000D0F81842094B636384F840100023237240
:1020E000812104F134020D23FEF7BEF928460121B7
:1020F00004F114021F23FEF7BFF938BD55534253B4
:1021000008B5D0F81822137A022B03D00ED3042B73
:1021100009D908BD064B186092F821102332054BEF
:10212000FFF7AAFE08BD0021FFF7D0FF08BD00BFE2
:10213000940E002039210008002806DA08B5034B68
:1021400018680121FFF7C2FF08BD7047940E0020F8
:10215000002806DA08B5034B18680121FFF7B6FF1F
:1021600008BD7047940E002008B500280FDA134B05
:102170001B681B7A052B05D1114B18680121FFF74D
:10218000A5FF08BD0E4B1868FFF7EEFE08BD0B4B10
:1021900019680B7A013BDBB2022B0DD94A892AB1AF
:1021A000074B1868C968FFF737FF08BD22B9044B11
:1021B00018680021FFF78AFF08BD00BF980E0020B5
:1021C000940E002010B5D0F81842637A022B05D186
:1021D0008121FEF719F90023637210BD11F0800F01
:1021E00004D0012B02D00121FFF770FF10BD00BF0A
:1021F00020230380004870476000002020230380D4
:1022000000487047BC00002020230380004870472E
:10221000340000200A230380004870475400002047
:1022200010B50446037C6BB9012102224FF4007300
:10223000FEF7D0F82046812102224FF40073FEF70A
:10224000C9F80AE0012102224023FEF7C3F8204624
:10225000812102224023FEF7BDF8742004F0AAFC7D
:10226000C4F8180238B12046FFF7ECFED4F8183253
:102270000020186110BD012010BD00BF10B504463C
:102280000121FEF7B1F820468121FEF7ADF8204686
:10229000FFF7FEFED4F8180220B104F093FC0023EF
:1022A000C4F81832002010BD70B506460C46D0F8B0
:1022B0001812237813F0600530D0202D6FD162788A
:1022C000FE2A02D0FF2A13D023E0628852B9E288A6
:1022D000012A07D113F0800F04D000250D60FEF70E
:1022E00099FD5DE030462146FEF7FCFD022557E0F2
:1022F000628842B9E28832B913F0800F03D1FFF748
:10230000BBFE00254CE030462146FEF7EBFD0225E2
:1023100046E02146FEF7E6FD022541E063780A2B00
:1023200004D00B2B07D0012B3AD107E00431012256
:10233000FEF770FD34E0A3784B6031E02179FEF7C1
:102340005BF830462179FEF74FF894F90430002B02
:1023500010DA337C3BB93046812102224FF40073FE
:10236000FEF738F816E03046812102224023FEF7BE
:1023700031F80FE0337C3BB93046012102224FF4A3
:102380000073FEF727F805E03046012102224023C2
:10239000FEF720F830462179FFF714FF00E0002512
:1023A000284670BD08B5FFF7ABFE002008BD00BF92
:1023B00008B5FFF773FE002008BD00BFD0F8183243
:1023C00063B11B6953B110B504461846FEF7D2FA43
:1023D000D4F8183200221A61002010BD0020704786
:1023E0000C4B01E0013B10D00269002AFADA0369C4
:1023F00043F001030361074B01E0013B07D0026991
:1024000012F0010FF9D1002070470320704703201C
:10241000704700BF400D030084B010B5044603A808
:1024200080E80E00089B012B18D1A36B23F48033A6
:10243000A363E36823F4840323F04003E360E368C9
:1024400023F44013E3600D9B012B03D1E36843F4B5
:102450008013E3602046FFF7C3FF09E0E36843F021
:102460004003E3602046FFF7BBFF4FF48033A363D4
:10247000069B012B07D1A36843F00C03A360A3685C
:1024800043F02003A3600020BDE8104004B0704773
:10249000836843F00103836000207047836823F062
:1024A000010383600020704708B5C36823F0C04370
:1024B000C360012904D1C36843F00053C36004E042
:1024C00019B9C36843F08043C360322004F01CFB99
:1024D000002008BD490141F020010161054B01E0E8
:1024E000013B05D0026912F0200FF9D1002070479E
:1024F00003207047400D030010230361054B01E0EA
:10250000013B05D0026912F0100FF9D1002070478D
:1025100003207047400D0300D0F800381943C0F87D
:1025200000180020704700BF84B0F8B5044607A823
:1025300080E80E00A36B43F40023A3630F9E1EB933
:10254000A36B43F40013A3630023C4F8003E04F517
:102550000065D4F80038C4F800380C9B012B0BD16F
:10256000099B23B920460021FFF7D6FF08E020464B
:102570000121FFF7D1FF03E020460321FFF7CCFF45
:1025800020461021FFF7A6FF2046FFF7B5FF0023E6
:102590002B616B614FF0FF32AA61EB61079848B382
:1025A00004F51063002219461F68002F03DA4FF06C
:1025B00090471F6001E000271F6000270F61FF2781
:1025C0008F60013220338242EDD304F53063002264
:1025D00019461F68002F03DA4FF090471F6001E093
:1025E00000271F6000270F61FF278F600132203313
:1025F0008242EDD12B6923F480732B610A9B012B5E
:102600000ED1184B2B632B6B43F4803343F0030341
:102610002B632B6B0023A3616FF08043636109E0A0
:102620000022A2616FF0804262611BB9A36943F08E
:102630001003A361A2690C4B1343A3610D9B1BB153
:10264000A36943F00803A361012E05D1A36943F0F8
:10265000804343F00403A3610020BDE8F84004B0C8
:10266000704700BF0001800000383C80D0F8083877
:1026700000F5006013F0060F10D0836803F0060326
:10268000022B0DD0836803F00603062B0AD0836863
:1026900003F00603042B07D1022070470020704787
:1026A00003207047032070470020704770B44B78B8
:1026B000012B1FD1D0F81C280D78AB409BB21343DF
:1026C000C0F81C380E78730103F510631A5812F421
:1026D000004F2DD11C5844F0805545F400458A68C0
:1026E000C2F30A042C43CA7844EA824242EA865280
:1026F0001A501DE0D0F81C280D784FF48033AB4001
:102700001343C0F81C380B785B0103F530631A588B
:1027100012F4004F0CD11A5842F0805444F4004493
:102720008A68C2F30A022243C97842EA81421A50F7
:10273000002070BC704700BF30B44B78012B1BD118
:10274000D0F83C580C7803FA04F4A4B225EA040447
:10275000C0F83C48D0F81C480D78AB409BB224EA46
:102760000303C0F81C380B785B0103F510631A589B
:1027700022F400421A5019E0D0F83C480D780122AA
:1027800002FA05F524EA0544C0F83C48D0F81C4894
:102790000D78AA4024EA0242C0F81C280B785B019D
:1027A00003F530631A5822F400421A50002030BC5E
:1027B000704700BF30B44B78012B68D14B69EBB93F
:1027C0000B7800EB4313D3F8104924F0FF5424F4A2
:1027D000C014C3F810490B7800EB4313D3F8104929
:1027E00044F40024C3F810490B7800EB4313D3F8EA
:1027F0001049E40CE404C3F810492CE00B7800EB1A
:102800004313D3F81049E40CE404C3F810490B78DF
:1028100000EB4313D3F8104924F0FF5424F4C01400
:10282000C3F810498B684C699C4200D94B610B7806
:1028300000EB4313D3F8104944F40024C3F81049C3
:102840000B7800EB4313D3F810594C69C4F312040E
:102850002C43C3F81049012A06D10B7800EB43132F
:102860000A69C3F8142909E04B693BB1D0F8342850
:102870000D780123AB401343C0F834380B785B016B
:1028800003F51063C25842F00442C2503BE00B789B
:1028900000EB4313D3F8104BE40CE404C3F8104BE3
:1028A0000B7800EB4313D3F8104B24F0FF5424F4BF
:1028B000C014C3F8104B4B690BB18B684B610B789C
:1028C00000EB4313D3F8104B44F40024C3F8104B2F
:1028D0000B7800EB4313D3F8105B8C68C4F312043D
:1028E0002C43C3F8104B012A05D10B7800EB43139E
:1028F000CA68C3F8142B0B785B0103F53063C25828
:1029000042F00442C250002030BC704730B49DF801
:10291000084064B903339B1009D000F5805000EBE8
:10292000023251F8045B15600134A342F9D1002052
:1029300030BC704770B582B04B78012B40F0A98055
:102940004B69EBB90B7800EB4313D3F8104924F033
:10295000FF5424F4C014C3F810490B7800EB431360
:10296000D3F8104944F40024C3F810490B7800EB65
:102970004313D3F81049E40CE404C3F8104945E0CC
:102980000B7800EB4313D3F81049E40CE404C3F8CC
:1029900010490B7800EB4313D3F8104924F0FF548F
:1029A00024F4C014C3F810490C7800EB4414D4F894
:1029B00010598E684B693344013BB3FBF6F3724EFA
:1029C00006EAC3432B43C4F810390B7800EB4313DA
:1029D000D3F810594C69C4F312042C43C3F81049BE
:1029E000CB78012B40F0C8800B7800EB4313D3F871
:1029F000104924F0C044C3F810490B7800EB43138E
:102A0000D3F8104944F00054C3F81049012A06D104
:102A10000B7800EB43130C69C3F814490CE0CB7836
:102A2000012B0CD04B6903B3D0F834480E78012346
:102A3000B3402343C0F83438CB78012B15D1D0F8FC
:102A4000083813F4807F08D10B785B0103F510631D
:102A5000C45844F00054C45007E00B785B0103F500
:102A60001063C45844F08054C4500B785B0103F5E4
:102A70001063C45844F00444C450CB78012B7FD178
:102A800014460B46C9681A789B8A0094FFF73EFFEC
:102A900076E00B7800EB4313D3F8104BE40CE4041E
:102AA000C3F8104B0B7800EB4313D3F8104B24F012
:102AB000FF5424F4C014C3F8104B4B69A3B90B782E
:102AC00000EB4313D3F8105B8C68C4F312042C435F
:102AD000C3F8104B0B7800EB4313D3F8104B44F4BE
:102AE0000024C3F8104B1DE08D680C7800EB4414F3
:102AF000D4F8106B2B44013BB3FBF5F39BB2224D92
:102B000005EAC3453543C4F8105B0C7800EB441468
:102B1000D4F8106B8D6805FB03F3C3F31203334342
:102B2000C4F8103B012A05D10B7800EB4313CA68A7
:102B3000C3F8142BCB78012B15D1D0F8083813F437
:102B4000807F08D10B785B0103F53063C25842F0F7
:102B50000052C25007E00B785B0103F53063C258A6
:102B600042F08052C2500B785B0103F53063C258CB
:102B700042F00442C25003E0012A7FF453AF47E71A
:102B8000002002B070BD00BF0000F81F0332921099
:102B90000FD030B40C46002300F580552D6844F862
:102BA000045B01339A42F7D101EB8201084630BC45
:102BB00070470846704700BF4B78012B13D10B7844
:102BC0005B0103F51063C258002A03DBC25822F0F0
:102BD0008042C2500B785B0103F51063C25842F487
:102BE0000012C25012E00B785B0103F53063C2584B
:102BF000002A03DBC25822F08042C2500B785B01EE
:102C000003F53063C25842F40012C25000207047EE
:102C10004B78012B15D10B785B0103F51063C2587B
:102C200022F40012C250CB78023BDBB2012B1DD83C
:102C30000B785B0103F51063C25842F08052C2501A
:102C400014E00B785B0103F53063C25822F40012E4
:102C5000C250CB78023BDBB2012B07D80B785B016B
:102C600003F53063C25842F08052C25000207047D2
:102C7000D0F8003823F4FE63C0F80038D0F80038EC
:102C8000090101F4FE610B43C0F8003800207047D1
:102C900008B5D0F8043823F00203C0F80438032044
:102CA00003F032FF002008BD08B5D0F8043843F027
:102CB0000203C0F80438032003F026FF002008BDFB
:102CC0004369806918407047D0F8183800F50060F3
:102CD000C0691840000C704700F50063D0F8180870
:102CE000DB69184080B2704700F5306303EB411197
:102CF0008B6800F5006040691840704710B4D0F848
:102D00001048D0F8343800EB4110D0F80809CB4017
:102D1000DB01DBB2234318405DF8044B704700BF72
:102D2000406900F001007047D0F8003923F4FF63D8
:102D300023F00703C0F8003900F500639A6802F039
:102D40000602042A05D1D0F8002942F00302C0F897
:102D500000295A6842F480725A600020704700BF10
:102D600010B40024C0F8104BD0F8104B44F40024E9
:102D7000C0F8104BD0F8104B44F01804C0F8104BBA
:102D8000D0F8104B44F0C044C0F8104B012905D1D5
:102D9000C0F8142B4FF08023C0F8003B00205DF8F2
:102DA000044B70472DE9F04106460C4690461D46FF
:102DB00003F0A4FE0746B8F1000F2AD05BE0B5F19E
:102DC000FF3F26D025B103F099FEC01BA84220D9B1
:102DD0003268536823F0E00353603268136823F0CD
:102DE00040031360B36AB3F5005F09D1326813681A
:102DF00023F4005313603268136843F400531360E4
:102E0000012386F85130002386F850300320BDE8B6
:102E1000F08133689B682340A342D0D10020BDE8F5
:102E2000F081B5F1FF3F26D025B103F067FEC01B4E
:102E3000A84220D93268536823F0E0035360326817
:102E4000136823F040031360B36AB3F5005F09D140
:102E50003268136823F4005313603268136843F434
:102E600000531360012386F85130002386F8503058
:102E70000320BDE8F08133689B682340A342D0D093
:102E80000020BDE8F08100BF00283CD010B504460A
:102E900090F8513013F0FF0F01D1FDF707FC02232A
:102EA00084F851302268136823F0400313602168CE
:102EB0006268A3681A43E3681A4323691A43636983
:102EC0001A43A36903F400731343E2691343226AAC
:102ED0001343A26A1A430A602168638B03F0040259
:102EE000636A13434B602368E26A1A612268D369FC
:102EF00023F40063D36100206065012384F851301E
:102F000084F8500010BD0120704700BF10B5044682
:102F100090F85130DBB2012B50D1002950D0002A5B
:102F200050D090F85030012B4ED0012380F8503013
:102F3000122380F851300023436501638286C286E4
:102F4000C36483648387C3878368B3F5004F04D168
:102F50000268136843F480431360A36AB3F5005F0B
:102F600009D12268136823F40053136022681368A0
:102F700043F400531360236C154A1A64236C154AFA
:102F8000DA63236C144A9A642268206C216B0C3239
:102F9000E38E01F037FB2268536843F0020353606D
:102FA000002384F8503023681A6812F0400F0DD1C6
:102FB0001A6842F040021A60002010BD022010BDC5
:102FC000012010BD012010BD022010BD002010BD49
:102FD000113200085D3200083D32000838B5044661
:102FE00090F85100C0B2012808D06568B5F5827F1D
:102FF0007AD1A568002D79D1222879D1002979D0FC
:10300000002A79D0002B79D094F85000012877D08D
:10301000012084F8500094F85100C0B2222802D058
:10302000322084F85100002060652163A386E38686
:10303000A263A387E387A064E064A36AB3F5005F9B
:1030400009D12268136823F40053136022681368BF
:1030500043F40053136094F85130DBB2222B06D1B5
:10306000636C284A1A64636C274ADA6305E0636C70
:10307000264A1A64636C264ADA63636C254A9A64AA
:103080002168606C0C31A26BE38F01F0BBFA2268FF
:10309000536843F001035360236C0022DA6394F811
:1030A0005130DBB2322B03D1236C1A4A9A6402E00E
:1030B000236C00229A642268206C216B0C32E38E10
:1030C00001F0A0FA23681A6812F0400F03D11A68C1
:1030D00042F040021A602268536843F002035360D2
:1030E000002084F8500038BD022038BD022038BDD1
:1030F000022038BD012038BD012038BD012038BD77
:10310000022038BD21320008D532000831320008D3
:103110009D3300083D32000838B50446134690F848
:103120005120D2B2012A5ED10D4600295DD0002B7C
:103130005DD090F85020012A5BD0012280F8502009
:10314000222280F8512000224265A1638387C38731
:103150008264C2648286C2868268B2F5004F05D15D
:103160000268136823F4804313600BE052B942688D
:10317000B2F5827F06D1002280F850202A46FFF760
:103180002DFF38BDA36AB3F5005F09D1226813682B
:1031900023F4005313602268136843F40053136050
:1031A000636C164A1A64636C154ADA63636C154AD9
:1031B0009A642168606C0C31A26BE38F01F022FAF3
:1031C0002268536843F001035360002384F85030B1
:1031D00023681A6812F0400F0DD11A6842F04002BD
:1031E0001A60002038BD022038BD012038BD012002
:1031F00038BD022038BD002038BD00BF2132000894
:10320000D53200083D320008704700BF704700BF4C
:1032100008B5806BFFF7FAFF08BD00BF704700BF1D
:1032200008B5806BFFF7FAFF08BD00BF704700BF0D
:1032300008B5806BFFF7FAFF08BD00BF08B5806BCB
:103240000023C386C387012380F85130436D43F0C8
:1032500010034365FDF7CAFC08BD00BF10B582B07E
:10326000846B03681B6813F4807F1FD12046022102
:1032700000220A23FFF796FD18B1636D43F0100397
:1032800063652268536823F002035360204680215F
:1032900001220A23FFF786FD18B1636D43F0100386
:1032A00063650023E386012384F85130A3682BB9BA
:1032B0002368DA6801929B680193019B636D1BB1DF
:1032C0002046FDF793FC02E02046FDF701FC02B02A
:1032D00010BD00BF10B582B0846B03681B6813F487
:1032E000807F55D16368B3F5827F0BD1A368B3F5B6
:1032F000004F02D0B3F5806F04D12268136823F029
:10330000400313602268536823F00103536022686E
:10331000536823F0020353600023E387012384F8FA
:103320005130A36AB3F5005F28D120460121002265
:103330000A23FFF737FD18B1636D43F0100363658F
:103340002368DB689BB2ADF80630BDF80630204636
:1033500001210A460A23FFF725FD18B1636D43F0EA
:103360001003636523689A6812F0100F06D0626D2F
:1033700042F0020262656FF010029A60636D1BB149
:103380002046FDF733FC06E02046FDF7E5FB02E0B2
:103390002046FDF7E1FB02B010BD00BF10B582B0C2
:1033A000846B03681B6813F4807F57D1A36AB3F55D
:1033B000005F23D1204601210A460A23FFF7F2FCD1
:1033C00050B92046012100220A23FFF7EBFC18B177
:1033D000636D43F0100363652268D3689BB2ADF858
:1033E0000630BDF80630936813F0100F06D0636DF9
:1033F00043F0020363656FF01003936020460221DF
:1034000000220A23FFF7CEFC18B1636D43F01003CE
:1034100063652268536823F00203536020468021CD
:1034200001220A23FFF7BEFC18B1636D43F01003BD
:1034300063652268536823F0010353600023E38629
:10344000E387012384F85130636D1BB12046FDF7FB
:10345000CDFB06E02046FFF7D7FE02E02046FFF74F
:10346000D3FE02B010BD00BF38B50446036813F0A8
:10347000010F3AD0B34B9B6803F00C03042B00F010
:103480004B81B04B9B6803F00C03082B05D1AD4B6F
:103490005B6813F4800F40F041810022AA4B1A7040
:1034A00003F02CFB054606E003F028FB401BB0F5BB
:1034B000FA7F00F23581A34B1B6813F4003FF3D170
:1034C0002279A14B1A7063687BB103F017FB0546A4
:1034D00006E003F013FB401BB0F5FA7F00F22281F7
:1034E000984B1B6813F4003FF3D0236813F0020FCE
:1034F00049D0944B9B6813F00C0F0AD0914B9B68FA
:1035000003F00C03082B09D18E4B5B6813F4800F7A
:1035100004D1E368012B40F0078126E0E36893B112
:1035200001228A4B1A6003F0E9FA054605E003F030
:10353000E5FA401B642800F2F980824B1B6813F007
:10354000020FF4D011E00022804B1A6003F0D6FA8B
:10355000054605E003F0D2FA401B642800F2E8803B
:10356000784B1B6813F0020FF4D17648026822F002
:10357000F8012269F82393FAA3F3B3FA83F3DBB2D9
:103580009A400A430260236813F0080F26D063694B
:1035900093B101226E4B1A6003F0B0FA054605E0C4
:1035A00003F0ACFA401B642800F2C480654B5B6FEB
:1035B00013F0020FF4D011E00022654B1A6003F003
:1035C0009DFA054605E003F099FA401B642800F2D5
:1035D000B3805C4B5B6F13F0020FF4D1236813F0E0
:1035E000040F42D0574A136C43F080531364A2F582
:1035F000E432136843F48073136003F07FFA0546E6
:1036000005E003F07BFA401B642800F29780514BE1
:103610001B6813F4807FF4D000224F4B1A7003F024
:103620006DFA054607E003F069FA401B41F2883362
:10363000984200F28580434B1B6F13F0020FF2D1CA
:10364000227A454B1A70A3687BB103F057FA0546FE
:1036500006E003F053FA401B41F2883398427FD8CA
:10366000384B1B6F13F0020FF3D0A369002B79D0F6
:10367000344B9B6803F00C03082B75D00022374BAA
:103680001A6003F03BFA054604E003F037FA401BEA
:1036900064286BD82B4B1B6813F0007FF5D1A3690E
:1036A000022B65D1216A626A47F6C07393FAA3F3CD
:1036B000B3FA83F3DBB29A401143A36A5B08013B80
:1036C0004FF4403292FAA2F2B2FA82F2D2B29340AE
:1036D0000B43E2691343E26A4FF0706191FAA1F182
:1036E000B1FA81F1C9B28A40134343F00053154A3D
:1036F00053600122194B1A6003F000FA044604E0FB
:1037000003F0FCF9001B642834D80E4B1B6813F03F
:10371000007FF5D0002038BD012038BD012038BD24
:10372000032038BD032038BD012038BD032038BD3B
:10373000032038BD032038BD032038BD032038BD29
:10374000032038BD003802400238024000004742E2
:10375000800E4742007000407038024060004742CF
:10376000032038BD002038BD012038BD032038BDFE
:10377000002038BD032038BD70B504460D46874B88
:103780001B6803F00F038B426BD2CAB2834B1A70D3
:103790001B6803F00F038B4240F0E480036813F0D2
:1037A000020F06D07E498B6823F0F0028368134332
:1037B0008B60236813F0010F00F0B8806268012A63
:1037C00005D1774B1B6813F4003F0ED1CCE0022AE1
:1037D00005D1734B1B6813F0007F06D1C6E0704B18
:1037E0001B6813F0020F00F0C3806D498B6823F053
:1037F000030313438B6003F081F905466368012BD3
:103800000FD107E003F07AF9401B41F28833984268
:1038100000F2B080624B9B6803F00C03042BF1D1E3
:1038200084E0022B17D107E003F068F9401B41F256
:103830008833984200F2A080594B9B6803F00C0338
:10384000082BF1D172E003F059F9401B41F28833A3
:10385000984200F29380524B9B6813F00C0FF2D108
:1038600064E0036813F0020F06D04D498B6823F023
:10387000F002836813438B60236813F0010F4DD06F
:103880006268012A05D1464B1B6813F4003F0DD135
:1038900076E0022A05D1424B1B6813F0007F05D168
:1038A00070E03F4B1B6813F0020F6DD03C498B68F2
:1038B00023F0030313438B6003F020F9064663688B
:1038C000012B0ED106E003F019F9801B41F2883379
:1038D00098425BD8324B9B6803F00C03042BF2D167
:1038E0001CE0022B15D106E003F008F9801B41F221
:1038F000883398424CD82A4B9B6803F00C03082B62
:10390000F2D10BE003F0FAF8801B41F288339842C1
:1039100040D8234B9B6813F00C0FF3D1EAB21F4B36
:103920001A701B6803F00F03AB4235D1236813F004
:10393000040F06D01A498B6823F4E052E36813435E
:103940008B60236813F0080F07D0154A936823F49F
:103950006043216943EAC1039360002003F09EF8AD
:10396000002070BD012070BD012070BD012070BD20
:10397000012070BD032070BD032070BD032070BD09
:10398000012070BD012070BD012070BD032070BDFD
:10399000032070BD032070BD012070BD003C0240BB
:1039A00000380240224B9B6803F00C03042B3DD0EF
:1039B000082B01D01F4870471D4B586800F03F008E
:1039C0005B6813F4800F10D01B4BB3FBF0F3184A65
:1039D000506847F6C072104092FAA2F2B2FA82F230
:1039E000D2B2D04000FB03F30FE0124BB3FBF0F375
:1039F0000F4A506847F6C072104092FAA2F2B2FA2B
:103A000082F2D2B2D04000FB03F3094A506800F4BE
:103A100040304FF4403292FAA2F2B2FA82F2D2B2BD
:103A2000D04001304000B3FBF0F0704702487047CF
:103A3000003802400024F40000127A0008B5FFF7B5
:103A4000B1FF094B9B6803F0F002F02393FAA3F354
:103A5000B3FA83F3DBB222FA03F3044AD35CD8400F
:103A6000034B186008BD00BF00380240D46D000849
:103A7000DC00002030B40468636A19B943EA0240EC
:103A8000A06218E00D46A06A03EB1040002308E096
:103A900003F1400104EB8101496800EB114001335F
:103AA000DBB2691E8B42F3DB40EA024005F13F01C5
:103AB00004EB81014860002030BC70470368596204
:103AC000002070472DE9F04383B007460E46D0F83A
:103AD0000080CB005B1A9B0003445D6C9A6CAD1AAE
:103AE0009B6B9D4200D91D46EB1C00D503339B10F8
:103AF0001BE0F400A41BA4003C44E16B3B7C00935E
:103B00004046F2B2ABB2FEF701FFE36B2B44E36336
:103B1000A36C1D44A564636C5D1BA36B9D4200D91F
:103B20001D46EB1C00D503339B10414608EB4612A3
:103B300002F51062926992B29A4209D3F3009B1B7C
:103B40009B003B449A6C5B6C9A4201D2002BD0D113
:103B5000002D0ADC0123B340D1F8342822EA030304
:103B6000C1F834383846FCF7F9FB002003B0BDE853
:103B7000F08300BF002869D0F0B589B00446032364
:103B800080F87933FCF752FB2068FEF787FC254666
:103B900055F8107B6E460FCD0FC695E80F0086E8EE
:103BA0000F00231D0ECB3846FEF736FC206800219F
:103BB000FEF77AFC002210E0D3009B1A9B002344FE
:103BC000012183F8311083F83020DA86002183F850
:103BD00033109963D963596401320E2AECD900225B
:103BE00018E0D3009B1A9B002344002183F8D511D1
:103BF00083F8D421DA8683F8D711C3F8DC11C3F82F
:103C0000E011C3F8E811236802F1400003EB8003E0
:103C1000596001320E2AE4D9254655F8107B6E46CC
:103C20000FCD0FC695E80F0086E80F00231D0ECBC1
:103C30003846FEF779FC012384F87933002584F8AF
:103C400078532068FFF730F8284601E001207047DC
:103C500009B0F0BD90F87833012B0ED010B50446B2
:103C6000012380F878330068FFF712F82068FEF728
:103C70000FFC002084F8780310BD0220704700BFBD
:103C80002DE9F84F044606683046FFF749F800284A
:103C900040F01B822068FFF713F8002800F015821F
:103CA0002068FFF70DF810F0020F02D023680222FF
:103CB0005A612068FFF704F810F4002F5CD02068E8
:103CC000FFF702F80746002553E017F0010F4ED02A
:103CD0005FFA85F920684946FFF706F8804610F03C
:103CE000010F31D006EB45130122C3F8082B03F571
:103CF00030632269012A12D1EA00521B9200224449
:103D000002F5EC71D2F8DC011B69C3F31203C01A8F
:103D1000C2F8EC01D2F8E0214B6813448B602046D6
:103D20004946FCF7B9FA2369012B0DD165B9C5EBFA
:103D3000C5039B002344D3F8E8312BB92068012147
:103D400004F55F72FFF70CF818F0080F07D0204653
:103D5000FCF798FA06EB45130822C3F8082B18F075
:103D6000100F04D006EB45131022C3F8082B0135C1
:103D70007F08002FA9D100E000252068FEF7A0FFF2
:103D800010F4802F6BD02068FEF7A6FF07460025B1
:103D900063E017F0010F5ED05FFA85F920684946AD
:103DA000FEF7ACFF804610F0010F2DD0012202FA81
:103DB00005F0D6F8343823EA0003C6F8343806EBA9
:103DC0004513C3F808292369934209D1EB005B1B13
:103DD0009B00234403F13802D96B9B6B0B44536067
:103DE00020464946FCF764FA2369012B0CD15DB9E2
:103DF000C5EBC5039B0023445B6C2BB920680121F4
:103E000004F55F72FEF7ACFF18F0080F04D006EB64
:103E100045130822C3F8082918F0100F04D006EB48
:103E200045131022C3F8082918F0400F04D006EB00
:103E300045134022C3F8082918F0020F04D006EBFE
:103E400045130222C3F8082918F0800F03D020463A
:103E50002946FFF737FE01357F08002F99D12068EA
:103E6000FEF72EFF00280CDAD6F8043823F0010301
:103E7000C6F804382046FCF74BFA23684FF000429E
:103E80005A612068FEF71CFF10F4006F0BD0D6F8C3
:103E9000083813F0010F02D02046FCF72BFA2368F4
:103EA0004FF400625A612068FEF70AFF10F4805F49
:103EB0004ED0374606F50068D8F8043023F00103E9
:103EC000C8F8043020680021FEF704FB002207E058
:103ED00007EB4213FF21C3F80819C3F8081B01328E
:103EE00063689342F4D84FF0FF33C8F81830D8F81D
:103EF0001C3043F00113C8F81C30A36A63B1D8F832
:103F0000843043F00B03C8F88430D8F8443043F0D1
:103F10000B03C8F844300BE0D8F8143043F00B031F
:103F2000C8F81430D8F8103043F00B03C8F810303C
:103F3000D6F8003823F4FE63C6F800382068217CE8
:103F400004F55F72FEF70CFF23684FF480525A614C
:103F50002068FEF7B5FE10F4005F26D02068FEF75B
:103F6000E3FE2268D36823F47053D3602068FEF721
:103F70007DFB50B90023E3604FF400736361226856
:103F8000D36843F41053D36008E00323E360402375
:103F900063612268D36843F4A053D3602046FCF7E2
:103FA00099F923684FF400525A612068FEF788FEA1
:103FB00010F0100F42D02268936923F01003936130
:103FC000376A07F00F08C7F34343022B1CD147F6AB
:103FD000F0731F402DD03F094FEAC809C8EB090A0A
:103FE0004FEA8A0AA2443046DAF8E0113A46FEF770
:103FF000CDFDDAF8E0313B44CAF8E031DAF8EC31D3
:104000001F44CAF8EC7114E0062B12D1304604F5B7
:104010005F710822FEF7BAFDC7F30A174FEAC8031B
:10402000C8EB030292002244D2F8EC313B44C2F8C0
:10403000EC312268936943F0100393612068FEF726
:104040003FFE10F0080F05D02046FCF73DF923682D
:1040500008225A612068FEF733FE10F4801F07D053
:104060002046E9B2FCF768F923684FF480125A61E0
:104070002068FEF725FE10F4001F07D02046E9B2A5
:10408000FCF754F923684FF400125A612068FEF7D8
:1040900017FE10F0804F06D02046FCF753F9236836
:1040A0004FF080425A612068FEF70AFE10F0040FBC
:1040B0000BD023685D6815F0040F02D02046FCF792
:1040C00047F923685A6815435D60BDE8F88F00BF63
:1040D00090F87833012B0BD010B50446012380F8FB
:1040E00078330068FEF7C4FD002084F8780310BD23
:1040F0000220704738B50546C8B210F0800F07D0CF
:1041000001F07F04C4EBC404A40030342C4407E065
:1041100001F07F04C4EBC404A4002C4404F5EA7449
:1041200001F07F012170C0096070A260E37000B1EE
:10413000E180022B01D10023237195F87833012B04
:104140000AD0012385F8783328682146FEF7AEFAB5
:10415000002085F8780338BD022038BD10B504462C
:10416000CAB212F0800F07D001F07F03C3EBC30384
:104170009B003033034407E001F07F03C3EBC3032C
:104180009B00034403F5EA7301F07F011970D20923
:104190005A7094F87823012A0AD0012284F87823EF
:1041A00020681946FEF7C8FA002084F8780310BD8D
:1041B000022010BD70B501F07F06F400A51BAD0014
:1041C000054405F5EA712C46C5F8E021C5F8E8314B
:1041D0000023C4F8EC3184F8D53184F8D461036944
:1041E000012B05D1C6EBC604A4000444C4F8E421A5
:1041F00090F87823012A11D00446012280F8782310
:1042000026B90068DAB2FEF7D5FA03E00068DAB240
:10421000FEF790FB002084F8780370BD022070BD8B
:1042200001F07F01C1EBC10189000844B0F8EC0145
:10423000704700BF70B501F07F06F400A51BAD000C
:1042400030354119A41BA4000444E26363640023D5
:10425000A364012384F8313084F830600369012BB2
:1042600004D1C6EBC604A4000444226490F8782369
:10427000012A11D00446012280F8782326B900686B
:10428000DAB2FEF797FA03E00068DAB2FEF752FB03
:10429000002084F8780370BD022070BD38B5044654
:1042A000CAB212F0800F07D001F07F03C3EBC30343
:1042B0009B003033034405E0C1EBC1039B00034482
:1042C00003F5EA730120987001F07F051D70D20993
:1042D0005A7094F87823824210D084F878032068CA
:1042E0001946FEF769FC2DB92068217C04F55F7240
:1042F000FEF736FD002084F8780338BD022038BD73
:1043000010B50446CAB212F0800F07D001F07F0347
:10431000C3EBC3039B003033034405E0C1EBC1038F
:104320009B00034403F5EA730020987001F07F01BD
:104330001970D2095A7094F87823012A0AD0012200
:1043400084F8782320681946FEF762FC002084F880
:10435000780310BD022010BD90F87833012B14D0E3
:1043600010B50446012380F8783311F0800F05D092
:10437000006801F07F01FEF7ADF802E00068FEF78B
:10438000BBF8002084F8780310BD0220704700BFFE
:104390002DE9F0410023D3E09C4601229A400C68AD
:1043A0001440944240F0CB804D68022D01D0122D74
:1043B00014D14FEAD30808F1080850F8287003F028
:1043C000070E4FEA8E0E0F2505FA0EF527EA0506B1
:1043D0000D6905FA0EF5354340F8285006684FEA96
:1043E000430E032505FA0EF5ED4305EA06074E6870
:1043F00006F0030606FA0EF63E4306604E68771E88
:10440000012F03D9112E01D0122E12D1866805EA90
:104410000607CE6806FA0EF63E438660476827EA2E
:1044200002074E68C6F3001202FA0CF646EA0702CB
:104430004260C2682A408D6805FA0EF51543C560D2
:104440004A6812F0805F7AD0404D6A6C42F4804234
:104450006A649A08961CA5F5803555F8266003F025
:104460000307BF000F25BD4026EA0506384DA842C8
:1044700031D005F58065A8422BD005F58065A842AE
:1044800025D005F58065A8421FD005F58065A842B6
:1044900019D005F58065A84213D005F58065A842BE
:1044A0000DD005F58065A84207D005F58065A842C6
:1044B00001D1082510E009250EE007250CE00625AE
:1044C0000AE0052508E0042506E0032504E00225AE
:1044D00002E0012500E00025BD40354302321D4EBB
:1044E00046F822501C4A1568E24302EA05064F6866
:1044F00017F4803F01D044EA0506174D2E606D6821
:1045000002EA05064F6817F4003F01D044EA0506A9
:10451000114D6E60AD6802EA05064F6817F4801F02
:1045200001D044EA05060C4DAE60ED682A404E68A5
:1045300016F4001F01D044EA0502074CE260013383
:104540000F2B7FF629AFBDE8F08100BF0038024095
:104550000000024000380140003C014030B40568D2
:104560002C6824F480242C60046863608368402BEA
:1045700004D103689A600368D96003E00368996016
:104580000368DA6030BC7047002833D010B40346AB
:10459000022280F8352004682168194A0A404068E0
:1045A00099680843D9680843196908435969084359
:1045B00099690843D9690843196A01430A43596A4A
:1045C000042903D1D86A196B01430A432260196890
:1045D0004A6922F00702586A0243042801D1986A06
:1045E00002434A610020D864012283F8352083F811
:1045F000340001E0012070475DF8044B704700BFB4
:104600003F8010F038B590F83440012C2ED004468D
:10461000012084F83400022084F8350025682868D9
:1046200020F0010028602046FFF798FF22681368F9
:1046300043F0100313602268136843F0080313600B
:104640002268136843F0040313602268536943F03F
:10465000800353612268136843F0020313602268E9
:10466000136843F001031360002038BD022038BDF9
:1046700010B504460368B24A934257D9583A526873
:10468000B0498B424CD001F580618B4246D0A1F5F8
:1046900068718B4240D001F580618B423AD0A1F520
:1046A00089618B4233D001F580618B422CD0A1F51A
:1046B00068718B4225D001F580618B421ED0A1F537
:1046C00089618B4217D001F580618B4210D0A1F532
:1046D00068718B4209D001F580618B4202D14FF4A1
:1046E00000211EE04FF000711BE04FF4002118E0A4
:1046F0004FF4002115E04FF4002112E04FF4007157
:104700000FE04FF400710CE04FF4007109E04FF43A
:10471000007106E0082104E0082102E0082100E021
:1047200008210A4214BF0122002218E1864A93425E
:1047300058D902F55272126882498B424CD001F569
:1047400080618B4246D0A1F568718B4240D001F563
:1047500080618B423AD0A1F589618B4233D001F55B
:1047600080618B422CD0A1F568718B4225D001F578
:1047700080618B421ED0A1F589618B4217D001F573
:1047800080618B4210D0A1F568718B4209D001F590
:1047900080618B4202D14FF400211EE04FF0007186
:1047A0001BE04FF4002118E04FF4002115E04FF416
:1047B000002112E04FF400710FE04FF400710CE0A3
:1047C0004FF4007109E04FF4007106E0082104E0A5
:1047D000082102E0082100E008210A4214BF01225A
:1047E0000022BCE0594A934257D9583A5268554979
:1047F0008B424CD001F580618B4246D0A1F56871A7
:104800008B4240D001F580618B423AD0A1F589619D
:104810008B4233D001F580618B422CD0A1F56871B9
:104820008B4225D001F580618B421ED0A1F58961B4
:104830008B4217D001F580618B4210D0A1F56871D1
:104840008B4209D001F580618B4202D14FF40021E7
:104850001EE04FF000711BE04FF4002118E04FF410
:10486000002115E04FF4002112E04FF400710FE039
:104870004FF400710CE04FF4007109E04FF4007147
:1048800006E0082104E0082102E0082100E00821F8
:104890000A4214BF0122002261E02D4A1268294910
:1048A0008B4257D001F580618B4246D0A1F56871EB
:1048B0008B4240D001F580618B423AD0A1F58961ED
:1048C0008B4233D001F580618B422CD0A1F5687109
:1048D0008B4225D001F580618B421ED0A1F5896104
:1048E0008B4217D001F580618B4210D0A1F5687121
:1048F0008B4209D001F580618B4202D14FF4002137
:1049000029E04FF0007126E04FF4002123E04FF43E
:10491000002120E04FF400211DE04FF400711AE067
:104920004FF4007117E04FF4007114E04FF4007180
:1049300011E008210FE008210DE008210BE000BF85
:104940005864024010600240B86002405860024063
:104950000060024008210A4214BF01220022002AFE
:1049600000F07D811A6812F0040F00F078811A6857
:1049700022F004021A602368AA4A934254D9A2F58D
:10498000896293424CD002F58062934246D0A2F5F0
:104990006872934240D002F5806293423AD0A2F509
:1049A0008962934233D002F5806293422CD0A2F503
:1049B0006872934225D002F5806293421ED0A2F520
:1049C0008962934217D002F58062934210D0A2F51B
:1049D0006872934209D002F58062934202D14FF48B
:1049E00000221EE04FF000721BE04FF4002218E09E
:1049F0004FF4002215E04FF4002212E04FF4007251
:104A00000FE04FF400720CE04FF4007209E04FF435
:104A1000007206E0082204E0082202E0082200E01A
:104A20000822814BDA600CE1804A934253D9A83ABC
:104A300093424CD002F58062934246D0A2F5687250
:104A4000934240D002F5806293423AD0A2F5896247
:104A5000934233D002F5806293422CD0A2F5687263
:104A6000934225D002F5806293421ED0A2F589625E
:104A7000934217D002F58062934210D0A2F568727B
:104A8000934209D002F58062934202D14FF4002292
:104A90001EE04FF000721BE04FF4002218E04FF4CC
:104AA000002215E04FF4002212E04FF400720FE0F4
:104AB0004FF400720CE04FF4007209E04FF4007202
:104AC00006E0082204E0082202E0082200E00822B2
:104AD000554B9A60B5E0564A934253D9483A9342AF
:104AE0004CD002F58062934246D0A2F568729342A0
:104AF00040D002F5806293423AD0A2F58962934297
:104B000033D002F5806293422CD0A2F568729342B2
:104B100025D002F5806293421ED0A2F589629342AD
:104B200017D002F58062934210D0A2F568729342CA
:104B300009D002F58062934202D14FF400221EE0B8
:104B40004FF000721BE04FF4002218E04FF40022F7
:104B500015E04FF4002212E04FF400720FE04FF422
:104B600000720CE04FF4007209E04FF4007206E0AE
:104B7000082204E0082202E0082200E008222D4B6F
:104B8000DA605EE02C4A934258D002F5806293428C
:104B900046D0A2F56872934240D002F580629342FB
:104BA0003AD0A2F58962934233D002F580629342F3
:104BB0002CD0A2F56872934225D002F58062934210
:104BC0001ED0A2F58962934217D002F5806293420B
:104BD00010D0A2F56872934209D002F58062934228
:104BE00002D14FF400222AE04FF0007227E04FF488
:104BF000002224E04FF4002221E04FF400221EE0C6
:104C00004FF400721BE04FF4007218E04FF4007292
:104C100015E04FF4007212E0082210E008220EE0C6
:104C200008220CE05864024000640240B860024070
:104C30005860024000600240106002400822B24BFF
:104C40009A60E36C43F00103E364042384F8353095
:104C5000002384F83430A36C0BB1204698472368B6
:104C6000AA4A934253D9583A5268A9498B4248D02C
:104C700001F580618B4242D0A1F568718B423CD036
:104C800001F580618B4236D0A1F589618B4230D02D
:104C900001F580618B422AD0A1F568718B4224D046
:104CA00001F580618B421ED0A1F589618B4217D03E
:104CB00001F580618B4210D0A1F568718B4209D05B
:104CC00001F580618B4202D14FF480311AE04FF43C
:104CD000800117E04FF4803114E04FF4803111E08F
:104CE0004FF480310EE040210CE040210AE04021E9
:104CF00008E0402106E0874904E0864902E0854952
:104D000000E084490A4214BF012200220DE1824AD8
:104D1000934254D902F5527212687D498B4248D0B1
:104D200001F580618B4242D0A1F568718B423CD085
:104D300001F580618B4236D0A1F589618B4230D07C
:104D400001F580618B422AD0A1F568718B4224D095
:104D500001F580618B421ED0A1F589618B4217D08D
:104D600001F580618B4210D0A1F568718B4209D0AA
:104D700001F580618B4202D14FF480311AE04FF48B
:104D8000800117E04FF4803114E04FF4803111E0DE
:104D90004FF480310EE040210CE040210AE0402138
:104DA00008E0402106E05B4904E05A4902E0594925
:104DB00000E058490A4214BF01220022B5E0574AD8
:104DC000934253D9583A526851498B4248D001F521
:104DD00080618B4242D0A1F568718B423CD001F5D5
:104DE00080618B4236D0A1F589618B4230D001F5CC
:104DF00080618B422AD0A1F568718B4224D001F5E5
:104E000080618B421ED0A1F589618B4217D001F5DC
:104E100080618B4210D0A1F568718B4209D001F5F9
:104E200080618B4202D14FF480311AE04FF480014F
:104E300017E04FF4803114E04FF4803111E04FF46B
:104E400080310EE040210CE040210AE0402108E0E2
:104E5000402106E02F4904E02E4902E02D4900E000
:104E60002C490A4214BF012200225EE0264A126841
:104E700027498B4254D001F580618B4242D0A1F585
:104E800068718B423CD001F580618B4236D0A1F530
:104E900089618B4230D001F580618B422AD0A1F527
:104EA00068718B4224D001F580618B421ED0A1F540
:104EB00089618B4217D001F580618B4210D0A1F53A
:104EC00068718B4209D001F580618B4202D14FF4A9
:104ED000803126E04FF4800123E04FF4803120E060
:104EE0004FF480311DE04FF480311AE0402118E08A
:104EF000402116E0402114E0402112E0054910E075
:104F000004490EE003490CE000600240586402408E
:104F10001060024001008000B8600240586002400A
:104F2000AB490A4214BF01220022002A00F06F811F
:104F30005A6912F0800F00F06A815A6922F08002EB
:104F40005A612368A34A934250D9A2F589629342D9
:104F500048D002F58062934242D0A2F56872934233
:104F60003CD002F58062934236D0A2F5896293422A
:104F700030D002F5806293422AD0A2F56872934243
:104F800024D002F5806293421ED0A2F5896293423A
:104F900017D002F58062934210D0A2F56872934256
:104FA00009D002F58062934202D14FF480321AE0B8
:104FB0004FF4800217E04FF4803214E04FF4803257
:104FC00011E04FF480320EE040220CE040220AE073
:104FD000402208E0402206E07D4A04E07C4A02E0EC
:104FE0007B4A00E07A4A7C4BDA6002E17B4A9342DA
:104FF0004FD9A83A934248D002F58062934242D0FA
:10500000A2F5687293423CD002F58062934236D09A
:10501000A2F58962934230D002F5806293422AD091
:10502000A2F56872934224D002F5806293421ED0AA
:10503000A2F58962934217D002F58062934210D0A4
:10504000A2F56872934209D002F58062934202D1C0
:105050004FF480321AE04FF4800217E04FF48032B0
:1050600014E04FF4803211E04FF480320EE0402221
:105070000CE040220AE0402208E0402206E0544AC8
:1050800004E0534A02E0524A00E0514A524B9A600F
:10509000AFE0534A93424FD9483A934248D002F581
:1050A0008062934242D0A2F5687293423CD002F5EE
:1050B0008062934236D0A2F58962934230D002F5E5
:1050C000806293422AD0A2F56872934224D002F5FE
:1050D000806293421ED0A2F58962934217D002F5F6
:1050E0008062934210D0A2F56872934209D002F513
:1050F0008062934202D14FF480321AE04FF4800272
:1051000017E04FF4803214E04FF4803211E04FF496
:1051100080320EE040220CE040220AE0402208E00B
:10512000402206E02A4A04E0294A02E0284A00E038
:10513000274A2C4BDA605CE02B4A934256D002F5AA
:105140008062934242D0A2F5687293423CD002F54D
:105150008062934236D0A2F58962934230D002F544
:10516000806293422AD0A2F56872934224D002F55D
:10517000806293421ED0A2F58962934217D002F555
:105180008062934210D0A2F56872934209D002F572
:105190008062934202D14FF4803228E04FF48002C3
:1051A00025E04FF4803222E04FF480321FE04FF4CC
:1051B00080321CE040221AE0402218E0402216E033
:1051C000402214E0024A12E0014A10E0004A0EE0D8
:1051D000010080005864024000640240B860024050
:1051E000586002400060024010600240B44AB54B73
:1051F0009A60E36C43F00203E364042384F83530DF
:10520000002384F83430A36C0BB120469847236800
:10521000AD4A934257D9583A5268AC498B424CD068
:1052200001F580618B4246D0A1F568718B4240D078
:1052300001F580618B423AD0A1F589618B4233D070
:1052400001F580618B422CD0A1F568718B4225D08D
:1052500001F580618B421ED0A1F589618B4217D088
:1052600001F580618B4210D0A1F568718B4209D0A5
:1052700001F580618B4202D14FF480211EE04FF096
:1052800080711BE04FF4802118E04FF4802115E07D
:105290004FF4802112E04FF480710FE04FF48071E1
:1052A0000CE04FF4807109E04FF4807106E088490A
:1052B00004E0874902E0864900E085490A4214BFBC
:1052C000012200221BE1834A934258D902F552720F
:1052D00012687E498B424CD001F580618B4246D0EA
:1052E000A1F568718B4240D001F580618B423AD0C4
:1052F000A1F589618B4233D001F580618B422CD0BE
:10530000A1F568718B4225D001F580618B421ED0DA
:10531000A1F589618B4217D001F580618B4210D0D5
:10532000A1F568718B4209D001F580618B4202D1F1
:105330004FF480211EE04FF080711BE04FF480217C
:1053400018E04FF4802115E04FF4802112E04FF473
:1053500080710FE04FF480710CE04FF4807109E030
:105360004FF4807106E05A4904E0594902E0584977
:1053700000E057490A4214BF01220022BFE0564A0A
:10538000934257D9583A526850498B424CD001F554
:1053900080618B4246D0A1F568718B4240D001F507
:1053A00080618B423AD0A1F589618B4233D001F5FF
:1053B00080618B422CD0A1F568718B4225D001F51C
:1053C00080618B421ED0A1F589618B4217D001F517
:1053D00080618B4210D0A1F568718B4209D001F534
:1053E00080618B4202D14FF480211EE04FF080712A
:1053F0001BE04FF4802118E04FF4802115E04FF4BA
:10540000802112E04FF480710FE04FF480710CE0C6
:105410004FF4807109E04FF4807106E02C4904E0FC
:105420002B4902E02A4900E029490A4214BF01221F
:10543000002264E0234A126824498B425AD001F5C5
:1054400080618B4254D0A1F568718B424ED001F53A
:1054500080618B4248D0A1F589618B4241D001F532
:1054600080618B423AD0A1F568718B4225D001F55D
:1054700080618B421ED0A1F589618B4217D001F566
:1054800080618B4210D0A1F568718B4209D001F583
:1054900080618B4202D14FF480212CE04FF080716B
:1054A00029E04FF4802126E04FF4802123E04FF4DF
:1054B000802120E04FF480711DE04FF480711AE0EC
:1054C0000100800000600240586402401060024009
:1054D00004008000B8600240586002404FF48071C0
:1054E00009E04FF4807106E0B54904E0B44902E0F8
:1054F000B34900E0B2490A4214BF01220022002A47
:1055000000F07F811A6812F0020F00F07A811A68A9
:1055100022F002021A602368AA4A934254D9A2F5E3
:10552000896293424CD002F58062934246D0A2F544
:105530006872934240D002F5806293423AD0A2F55D
:105540008962934233D002F5806293422CD0A2F557
:105550006872934225D002F5806293421ED0A2F574
:105560008962934217D002F58062934210D0A2F56F
:105570006872934209D002F58062934202D14FF4DF
:1055800080221EE04FF080721BE04FF4802218E072
:105590004FF4802215E04FF4802212E04FF4807225
:1055A0000FE04FF480720CE04FF4807209E04FF48A
:1055B000807206E0824A04E0814A02E0804A00E00C
:1055C0007F4A814BDA600EE1804A934253D9A83A70
:1055D00093424CD002F58062934246D0A2F56872A5
:1055E000934240D002F5806293423AD0A2F589629C
:1055F000934233D002F5806293422CD0A2F56872B8
:10560000934225D002F5806293421ED0A2F58962B2
:10561000934217D002F58062934210D0A2F56872CF
:10562000934209D002F58062934202D14FF4802266
:105630001EE04FF080721BE04FF4802218E04FF420
:10564000802215E04FF4802212E04FF480720FE0C8
:105650004FF480720CE04FF4807209E04FF48072D6
:1056600006E0574A04E0564A02E0554A00E0544A30
:10567000554B9A60B7E0564A934253D9483A934201
:105680004CD002F58062934246D0A2F568729342F4
:1056900040D002F5806293423AD0A2F589629342EB
:1056A00033D002F5806293422CD0A2F56872934207
:1056B00025D002F5806293421ED0A2F58962934202
:1056C00017D002F58062934210D0A2F5687293421F
:1056D00009D002F58062934202D14FF480221EE08D
:1056E0004FF080721BE04FF4802218E04FF48022CC
:1056F00015E04FF4802212E04FF480720FE04FF477
:1057000080720CE04FF4807209E04FF4807206E082
:105710002B4A04E02A4A02E0294A00E0284A2D4B9D
:10572000DA6060E02C4A93425AD002F580629342DC
:1057300054D0A2F56872934240D002F58062934241
:105740003AD0A2F58962934233D002F58062934247
:105750002CD0A2F56872934225D002F58062934264
:105760001ED0A2F58962934217D002F5806293425F
:1057700010D0A2F56872934209D002F5806293427C
:1057800002D14FF480222CE04FF0807229E04FF4D8
:10579000802226E04FF4802223E04FF4802220E094
:1057A0004FF480721DE04FF480721AE04FF4807263
:1057B00017E04FF4807214E0014A12E0004A10E052
:1057C000040080005864024000640240B860024057
:1057D000586002400060024010600240B84A00E099
:1057E000B74AB84B9A60E36C43F00403E3640423C4
:1057F00084F83530002384F83430A36C0BB1204694
:1058000098472368B04A934257D9583A5268AF49EB
:105810008B424CD001F580618B4246D0A1F5687176
:105820008B4240D001F580618B423AD0A1F589616D
:105830008B4233D001F580618B422CD0A1F5687189
:105840008B4225D001F580618B421ED0A1F5896184
:105850008B4217D001F580618B4210D0A1F56871A1
:105860008B4209D001F580618B4202D14FF4801147
:105870001EE04FF080611BE04FF4801118E04FF400
:10588000801115E04FF4801112E04FF480610FE0B9
:105890004FF480610CE04FF4806109E04FF48061C7
:1058A00006E0102104E0102102E0102100E01021A8
:1058B0000A4214BF0122002219E1854A934258D9B5
:1058C00002F55272126881498B424CD001F5806119
:1058D0008B4246D0A1F568718B4240D001F58061C2
:1058E0008B423AD0A1F589618B4233D001F58061BA
:1058F0008B422CD0A1F568718B4225D001F58061D7
:105900008B421ED0A1F589618B4217D001F58061D1
:105910008B4210D0A1F568718B4209D001F58061EE
:105920008B4202D14FF480111EE04FF080611BE0EA
:105930004FF4801118E04FF4801115E04FF48011FE
:1059400012E04FF480610FE04FF480610CE04FF4FF
:10595000806109E04FF4806106E0102104E010212D
:1059600002E0102100E010210A4214BF01220022AF
:10597000BDE0584A934257D9583A526853498B422E
:105980004CD001F580618B4246D0A1F568718B4205
:1059900040D001F580618B423AD0A1F589618B42FC
:1059A00033D001F580618B422CD0A1F568718B4218
:1059B00025D001F580618B421ED0A1F589618B4213
:1059C00017D001F580618B4210D0A1F568718B4230
:1059D00009D001F580618B4202D14FF480111EE0A5
:1059E0004FF080611BE04FF4801118E04FF48011FC
:1059F00015E04FF4801112E04FF480610FE04FF496
:105A000080610CE04FF4806109E04FF4806106E0B2
:105A1000102104E0102102E0102100E010210A42D0
:105A200014BF0122002262E0264A126827498B42F5
:105A300058D001F580618B4252D0A1F568718B423C
:105A40004CD001F580618B4246D0A1F589618B4233
:105A500033D001F580618B422CD0A1F568718B4267
:105A600025D001F580618B421ED0A1F589618B4262
:105A700017D001F580618B4210D0A1F568718B427F
:105A800009D001F580618B4202D14FF480112AE0E8
:105A90004FF0806127E04FF4801124E04FF4801133
:105AA00021E04FF480111EE04FF480611BE04FF4C1
:105AB000806118E04FF4806115E04FF4806112E0DE
:105AC0000400800000600240586402401060024000
:105AD000B860024058600240102104E0102102E04A
