:020000040800F2
:1000000000C0012061B00008ADB00008ADB000082C
:10001000ADB00008ADB00008ADB0000800000000B1
:10002000000000000000000000000000ADB000086B
:10003000ADB0000800000000ADB000087D19000858
:10004000ADB00008ADB00008ADB00008ADB000081C
:10005000ADB00008ADB00008ADB00008ADB000080C
:10006000ADB00008BD190008ADB00008ADB0000883
:10007000ADB00008ADB00008ADB00008ADB00008EC
:10008000ADB00008ADB00008ADB00008ADB00008DC
:10009000ADB00008ADB00008ADB00008ADB00008CC
:1000A000ADB00008ADB00008ADB00008ADB00008BC
:1000B000ADB00008ADB00008ADB00008ADB00008AC
:1000C000ADB00008ADB00008ADB00008ADB000089C
:1000D000ADB00008ADB00008ADB00008ADB000088C
:1000E000ADB00008ADB00008ADB00008ADB000087C
:1000F000ADB00008ADB00008ADB00008ADB000086C
:10010000ADB00008ADB00008ADB00008ADB000085B
:10011000ADB00008ADB00008ADB00008ADB000084B
:10012000ADB00008ADB000089D190008AD19000879
:10013000ADB000080000000000000000ADB00008F5
:10014000ADB00008ADB00008ADB000088D190008D2
:10015000ADB00008ADB00008ADB00008ADB000080B
:10016000ADB00008ADB00008ADB00008ADB00008FB
:10017000ADB00008ADB000080000000000000000B5
:10018000ADB00008ADB0000880B483B000AF034646
:100190003960FB713B6812221A80034B18460C37FA
:1001A000BD465DF8047B70471C00002080B483B01E
:1001B00000AF03463960FB713B6804221A80034B91
:1001C00018460C37BD465DF8047B704730000020B0
:1001D00080B582B000AF03463960FB710448054921
:1001E0003A6802F035F9034B18460837BD4680BD22
:1001F00064B200087001002080B582B000AF0346F1
:100200003960FB71044805493A6802F021F9034B53
:1002100018460837BD4680BD78B20008700100203E
:1002200080B582B000AF03463960FB7104480549D0
:100230003A6802F00DF9034B18460837BD4680BDF9
:100240008CB200087001002080B582B000AF034678
:100250003960FB71044805493A6802F0F9F8034B2C
:1002600018460837BD4680BD9CB2000870010020CA
:1002700080B582B000AF03463960FB710448054980
:100280003A6802F0E5F8034B18460837BD4680BDD2
:10029000A8B200087001002080B588B000AF786077
:1002A0007B681B68B3F1A04F24D1144A134B5B6BDE
:1002B00043F080035363114A104B5B6C43F480435B
:1002C00053644FF4C053FB6002233B6100237B6106
:1002D0000023BB610A23FB6107F10C0308481946A0
:1002E00007F014F943200A2100220AF0D1FD43202F
:1002F0000AF0EAFD2037BD4680BD00BF003802404D
:100300000000024080B582B000AF78607B68D3F80F
:10031000B0237B6803F560731046194602F098F924
:100320000837BD4680BD00BF80B582B000AF7860A1
:100330000B46FB707B68D3F8B003FA7879681346F4
:10034000DB009B1A9B000B4403F5F0735B68FA78A3
:1003500011461A4602F0C6F90837BD4680BD00BFF7
:1003600080B582B000AF78600B46FB707B68D3F835
:10037000B003FA7879681346DB009B1A9B000B44A4
:1003800038339B68FA7811461A4602F007FA0837A4
:10039000BD4680BD80B582B000AF78607B68D3F881
:1003A000B033184602F0F2FA0837BD4680BD00BFF0
:1003B00080B584B000AF78600123FB737B68DB6895
:1003C000002B02D0022B03D005E00023FB7305E0D5
:1003D0000123FB7302E00123FB7300BF7B68D3F8AA
:1003E000B023FB7B1046194602F098FA7B68D3F8DD
:1003F000B033184602F062FA1037BD4680BD00BF28
:1004000080B582B000AF78607B68D3F8B03318460F
:1004100002F094FA7B681B6803F560631A467B68F8
:100420001B6803F560631B6843F001031360083722
:10043000BD4680BD80B582B000AF78607B681B6828
:1004400003F560631A467B681B6803F560631B68ED
:1004500023F0010313607B68D3F8B033184602F031
:1004600083FA0837BD4680BD80B582B000AF7860A2
:100470000B46FB707B68D3F8B023FB781046194617
:1004800002F0ACFA0837BD4680BD00BF80B582B02F
:1004900000AF78600B46FB707B68D3F8B023FB7825
:1004A0001046194602F08CFA0837BD4680BD00BFE1
:1004B00080B582B000AF78607B68D3F8B03318465F
:1004C00002F09AFA0837BD4680BD00BF80B582B001
:1004D00000AF78607B68D3F8B033184602F098FA22
:1004E0000837BD4680BD00BF80B582B000AF7860E0
:1004F0007B68D3F8B033184602F0A2FA0837BD463D
:1005000080BD00BF80B582B000AF78607B681B788B
:10051000002B3AD11F4A7B68C2F8B0337B681D4A72
:10052000C3F820221B4B4FF0A0421A60194B072240
:100530005A60184B0222DA60164B00221A61154BE2
:1005400000225A61134B02229A61124B0022DA6197
:10055000104B00221A620F4B00229A620D4B0022B0
:10056000DA620C4B00221A630A4805F0C5FF0948FD
:10057000802105F0AFFF07480021402205F05CFF15
:1005800004480121802205F057FF00231846083750
:10059000BD4680BD7003002080B582B000AF78609A
:1005A0007B68D3F82032184606F0AEF800231846D0
:1005B0000837BD4680BD00BF80B582B000AF78600F
:1005C0007B68D3F82032184606F0C0F8002318469E
:1005D0000837BD4680BD00BF80B582B000AF7860EF
:1005E000084611461A460346FB700B46BB7013467D
:1005F0003B807B68D3F82002F9783A88BB7806F014
:10060000A1FC002318460837BD4680BD80B582B0E6
:1006100000AF78600B46FB707B68D3F82022FB7834
:100620001046194606F0F6FC002318460837BD466A
:1006300080BD00BF80B582B000AF78600B46FB7014
:100640007B68D3F82022FB781046194606F0A4FEFA
:10065000002318460837BD4680BD00BF80B582B074
:1006600000AF78600B46FB707B68D3F82022FB78E4
:100670001046194606F0EAFD002318460837BD4625
:1006800080BD00BF80B582B000AF78600B46FB70C4
:100690007B68D3F82022FB781046194606F032FE1C
:1006A000002318460837BD4680BD00BF80B485B022
:1006B00000AF78600B46FB707B68D3F82032FB609C
:1006C000FB785BB2002B0BDAFB7803F07F02F96852
:1006D0001346DB009B1A9B000B4430339B790BE0E5
:1006E000FB7803F07F02F9681346DB009B1A9B003E
:1006F0000B4403F5EC739B7818461437BD465DF840
:10070000047B704780B582B000AF78600B46FB7009
:100710007B68D3F82022FB781046194606F0F0FBE0
:10072000002318460837BD4680BD00BF80B584B0A1
:1007300000AFF8607A601A460B46FB7213463B81A5
:10074000FB68D3F820123B89FA7A084611467A688A
:1007500006F020FD002318461037BD4680BD00BFBF
:1007600080B584B000AFF8607A601A460B46FB7221
:1007700013463B81FB68D3F820123B89FA7A08467E
:1007800011467A6806F090FC002318461037BD46E3
:1007900080BD00BF80B582B000AF78600B46FB70B3
:1007A0007B68D3F82022FB781046194606F0D8FC67
:1007B000034618460837BD4680BD00BF80B500AF70
:1007C00002480349002201F09DFE80BD240700205D
:1007D0000000002080B582B000AF00F04BF900F0BF
:1007E000D7F938603B68002B03D1174B03221A70EE
:1007F00026E03B6840F201129A803B6800229A7121
:100800003B680022DA71FF237B710023FB800AE042
:10081000FB883A6813447A791A727B7927337B71A3
:10082000FB880133FB80FB88B3F5007FF0D3386889
:1008300000F01AFA0346002B02D1044800F08EFBA8
:100840000837BD4680BD00BF44010020B108000844
:1008500080B500AF074B03221A70074B1B78002BA3
:1008600006D0054B1B78012B02D8044801F09AFEF4
:1008700080BD00BF44010020450100202407002066
:1008800080B500AF094B1B78032B01D101230AE08F
:10089000064B1B78022B05D0642001F01DF8FFF7F2
:1008A000D7FFFEE70023184680BD00BF44010020AB
:1008B00080B584B000AF78601F4B1B78022B00D945
:1008C00037E01D4B1B78002B02D17B68002B05D134
:1008D000642001F001F8FFF7BBFFFEE77B689B880F
:1008E00040F20112934205D0642000F0F5FFFFF7BB
:1008F000AFFFFEE7FF237B730023FB8112E0FB8940
:100900007A6813441B7A7A7B9A4205D0642000F0FF
:10091000E3FFFFF79DFFFEE77B7B27337B73FB89BC
:100920000133FB81FB89B3F5007FE8D3786800F0E1
:1009300005F81037BD4680BD4401002080B582B067
:1009400000AF78600B4B01221A707B6801229A80FD
:100950007B6800229A717B680122DA71786800F066
:1009600083F90346002B02D1034800F0F7FA083759
:10097000BD4680BD440100207D09000880B584B0DB
:1009800000AF78600023FB73274B1B78022B00D944
:1009900047E0254B1B78012B02D17B68002B05D14A
:1009A000642000F099FFFFF753FFFEE77B689B8808
:1009B000022B05D0642000F08FFFFFF749FFFEE710
:1009C0007B681B7A012B04D10123FB73174BBB609F
:1009D00000BF786800F012F9FB7B002B05D1642082
:1009E00000F07AFFFFF734FFFEE7114B1B78002B76
:1009F0000AD00F4B1B78FA7B9A4205D0642000F096
:100A00006BFFFFF725FFFEE7074B02221A70084A2B
:100A1000FB7B13700748B96801F09EFD054801F0A3
:100A2000B5FD1037BD4680BD4401002034000020D4
:100A3000450100202407002080B500AF0A4B1B7839
:100A4000002B03D0084B1B78012B05D9642000F044
:100A500043FFFFF7FDFEFEE7044801F0A3FD044855
:100A600000F056F880BD00BF45010020240700209B
:100A70003D09000880B500AF1F4B00221A701F4BC4
:100A800000221A701E4B1F4A1A601D4B002283F869
:100A900051201B4B4FF482725A60194B00229A600E
:100AA000174B4FF40062DA60154B00221A61144BA9
:100AB00000225A61124B4FF400729A61104B2022AF
:100AC000DA610F4B00221A620D4B00225A620C4B66
:100AD0004FF400529A620A4B0722DA62084804F087
:100AE00051FD094B1B6903F00803002B02D1074B92
:100AF00001221A7080BD00BF5C0B0020500900204D
:100B0000680D002000300140000002405801002024
:100B100080B582B000AF7860194B1B78082B01D9E3
:100B2000012328E0174B1B68002B08D0642000F03D
:100B3000D3FE134B09221A70FFF78AFEFEE7124B11
:100B40001B78002B07D1104B01221A707B680E48CE
:100B5000984700230FE00D4B1B78002B07D10B4B60
:100B600001221A707B6809489847002303E0054A70
:100B70007B681360002318460837BD4680BD00BF60
:100B80004C010020500100205C0B00205009002087
:100B900080B582B000AF154B1B78082B01D900231C
:100BA00020E0134B1B68002B01D00023FB71114B7D
:100BB0001B78002B04D10F4B01221A700D4B11E052
:100BC0000D4B1B78002B04D10B4B01221A700A4BE2
:100BD00008E0642000F080FE044B09221A70FFF741
:100BE00037FEFEE718460837BD4680BD4C010020A1
:100BF000480100205C0B00205009002080B584B023
:100C000000AF7860144B1B78082B00D921E07B687B
:100C1000124A93420CD07B68114A934208D0642058
:100C200000F05AFE0C4B09221A70FFF711FEFEE786
:100C30000C4B1B68002B09D00A4B1B68FB60094B4F
:100C400000221A60FB687868984702E07B680022FF
:100C50001A701037BD4680BD4C0100205C0B00208F
:100C6000500900205001002080B582B000AF7860AC
:100C7000374B1B78082B01D9012364E07B68354A88
:100C800093420CD07B68344A934208D0642000F031
:100C900023FE2F4B09221A70FFF7DAFDFEE77B686F
:100CA0001B78012B08D17B689B88002B04D07B68C4
:100CB0009B88B3F5817F08D3642000F00DFE244BA0
:100CC00009221A70FFF7C4FDFEE7244B1B68002BB6
:100CD00008D0642000F000FE1D4B09221A70FFF7B7
:100CE000B7FDFEE71A4B1B78002B07D0002B20DB4B
:100CF000042B1EDC194A7B68136023E0144B01228D
:100D00001A70174A7B681360154B1B689A79154B4C
:100D10001A70134B1B68DA79134B1A70134B1B783C
:100D2000002B05D0114B00221A7000F0ADF909E03C
:100D300008E0642000F0D0FD054B09221A70FFF78F
:100D400087FDFEE7002318460837BD4680BD00BF7B
:100D50004C0100205C0B00205009002048010020BD
:100D6000580B0020640D00204C0900205801002081
:100D700080B584B000AF78606F4B10229A616F4BE2
:100D80001B78082B00D9D3E06C4B1B78022B0DD1BC
:100D90006A4B03221A706A4B1B78002B05D0684BF4
:100DA00000221A7000F09AF9C2E0C1E0634B1B7890
:100DB000042B3ED1634B1B68002B0CD0624B1B688D
:100DC000002B08D1642000F087FD5C4B09221A70CB
:100DD000FFF73EFDFEE75D4B1B681846FFF70EFF71
:100DE000564B1B78092B00D1A2E0574B1B68002BF8
:100DF00014D0524B01221A70534B1B68534A136094
:100E0000514B00221A604E4B1B78002B05D04C4BE7
:100E100000221A7000F038F98AE089E0474B00227E
:100E20001A704B4B1B68002B02D000F0BDF87FE01E
:100E30007EE0424B1B78062B21D1444B1B689B88DC
:100E4000002B05D0414B1B689B88B3F5817F08D3ED
:100E5000642000F041FD394B09221A70FFF7F8FCBD
:100E6000FEE7364B07221A70354B1B78002B05D056
:100E7000334B00221A7000F0B1F959E058E02F4BC3
:100E80001B78082B4BD12D4B00221A70304B1B685E
:100E9000002B08D1642000F01FFD284B09221A7096
:100EA000FFF7D6FCFEE7294B1B689B79022B0FD17D
:100EB000264B1B68DB79012B0AD1244B1B68184693
:100EC000FFF79CFE224B00221A60FFF7B5FD2FE0D2
:100ED0001E4B1B689B791A461E4B1B78534003F030
:100EE0007F03002B06D1194B1B68DA791A4B1B784C
:100EF0009A4208D0642000F0EFFC104B09221A70CF
:100F0000FFF7A6FCFEE7124B1B68FB60104B0022AC
:100F10001A600E4B1A68FB681046984708E0642078
:100F200000F0DAFC054B09221A70FFF791FCFEE78E
:100F30001037BD4680BD00BF000002404C010020BC
:100F4000580100205001002048010020580B0020CB
:100F500054010020640D00204C09002080B582B0AF
:100F600000AF78600E4B1B78082B01D9012312E0EB
:100F70000C4B1B68002B08D0642000F0ADFC084B24
:100F800009221A70FFF764FCFEE7064A7B681360CB
:100F900000F00AF8034618460837BD4680BD00BF7A
:100FA0004C0100205401002080B500AF134B1B788A
:100FB000082B01D901231EE0104B1B78042B08D904
:100FC000642000F089FC0D4B09221A70FFF740FCE9
:100FD000FEE70A4B1B78002B0CD1084B05221A7038
:100FE000074B1B78002B05D0054B00221A700548D3
:100FF000FFF78EFD0023184680BD00BF4C01002086
:10100000580100204911000880B500AF1B4B1B7828
:10101000082B00D930E0194B1B78072B23D801A2ED
:1010200052F823F0451000084D1000086710000822
:1010300053100008671000085910000867100008D6
:10104000611000080E4B01221A7015E000F01CF828
:1010500012E000F043F80FE00A48FFF759FD0BE0FB
:1010600000F0BCF808E0642000F036FC034B0922D5
:101070001A70FFF7EDFBFEE780BD00BF4C010020BA
:10108000580100204911000880B500AF0E4B022224
:101090001A700E4B4FF480129A610D4B1B6804338B
:1010A0000C4819460C4A022304F0D2FA0346002BDE
:1010B00008D0642000F010FC034B09221A70FFF7DF
:1010C000C7FBFEE780BD00BF4C01002000000240CE
:1010D000580B0020680D00204809002080B500AFA3
:1010E000154B04221A70154B4FF480129A61144B61
:1010F0001B689B88C82B02D90F4B04221A70104B17
:101100001B68991D0E4B1B689A1D0D4B1B689B8815
:10111000022B38BF02239BB20A4804F099FA034617
:10112000002B08D0642000F0D7FB034B09221A7073
:10113000FFF78EFBFEE780BD4C010020000002405F
:10114000580B0020680D002080B582B000AF786099
:101150001D4B1B78082B00D932E01B4B1B78052B4D
:1011600008D0642000F0B8FB174B09221A70FFF773
:101170006FFBFEE7144B06221A70144A7B6813605B
:10118000124B1B6800229A80114B4FF480129A6117
:10119000104B00221A600D4B1B6804330E480D499A
:1011A0001A46022304F054FA0346002B08D06420A8
:1011B00000F092FB044B09221A70FFF749FBFEE78F
:1011C0000837BD4680BD00BF4C010020580B0020F1
:1011D0000000024048090020680D002080B500AFE3
:1011E000114B08221A70114B4FF480129A61104B68
:1011F0001B68991D0E4B1B689A1D0D4B1B689B8825
:10120000022B38BF02239BB20A4804F021FA03469E
:10121000002B08D0642000F05FFB034B09221A70FA
:10122000FFF716FBFEE780BD4C01002000000240E6
:10123000580B0020680D002080B582B000AF7860A8
:10124000094B10229A61094B1B78082B00D908E042
:10125000642000F041FB054B09221A70FFF7F8FAF1
:10126000FEE70837BD4680BD000002404C0100206B
:1012700080B582B000AF7860084B1B78082B00D98E
:1012800008E0642000F028FB044B09221A70FFF7E5
:10129000DFFAFEE70837BD4680BD00BF4C010020E5
:1012A00080B584B000AF7860FFF7EAFA0346002B00
:1012B00001D001231FE0124A7B681360FFF768FC2E
:1012C000F860FB68002B01D1012314E0FB680122C8
:1012D0009A80FB6801229A71FB680022DA71F86833
:1012E000FFF7C2FC0346002B04D10648FFF736FE89
:1012F000034600E0012318461037BD4680BD00BFFD
:10130000CC0D00200913000880B582B000AF7860D2
:10131000FFF7B6FA0346002B00D01EE07B68002BD7
:1013200004D10F4B1B680120984716E07B689B880F
:10133000022B03D17B681B7A002B07D07868FFF75C
:101340005DFC074B1B680120984706E07868FFF7B3
:1013500055FC034B1B68002098470837BD4680BDED
:10136000CC0D002080B584B000AF7860FFF788FA1C
:101370000346002B01D001231FE0124A7B68136053
:10138000FFF706FCF860FB68002B01D1012314E095
:10139000FB6801229A80FB6801229A71FB68012296
:1013A000DA71F868FFF760FC0346002B04D10648A9
:1013B000FFF7D4FD034600E0012318461037BD4671
:1013C00080BD00BFC80D0020CD13000880B584B0DB
:1013D00000AF7860FFF754FA0346002B00D022E0FC
:1013E0007B68002B06D1114B1B68002000210022D6
:1013F000984718E07B689B88052B06D00B4B1B6831
:1014000000200021002298470DE07B6808331B680C
:10141000FB607B680C331B68BB60044B1B687868FF
:10142000F968BA6898471037BD4680BDC80D0020DE
:1014300080B586B000AFF860C7E90023FFF720FA57
:101440000346002B01D0012333E01C4B00221A601D
:101450001B4B00221A701B4A7B6A13601A4AFB68F6
:101460001360FFF795FB78617B69002B01D10123A5
:101470001FE07B6907229A807B6901229A717B6950
:101480000222DA717B6903F10801D7E90023C1E97F
:1014900000237B6910333A6A1A607869FFF7E4FB2E
:1014A0000346002B04D10948FFF758FD034600E02E
:1014B000012318461837BD4680BD00BFC00D00206F
:1014C000C40D0020D40D0020CC0D0020091300080D
:1014D00080B582B000AF7860FFF7D2F90346002BE9
:1014E00001D0012321E0134A7B681360124B1B7863
:1014F000002B01D0002318E00F4B01221A700F4B74
:101500001B68002B0DD00B4B1B68002B09D00B4B1D
:101510001B68184600F016F8084B00221A600023DA
:1015200003E00748FFF71AFD034618460837BD4693
:1015300080BD00BFD00D0020C40D0020C00D0020D4
:101540004515000880B584B000AF7860254B0022B7
:101550001A70FFF795F90346002B00D03EE0224BAE
:101560001B68002B03D1214A7B68136036E07B683F
:10157000002B05D11C4B1B680020002198472DE053
:101580007B689B88013B9BB25B00FB817B689B79FE
:10159000DBB25BB2002B08DA7B689B88012B04D995
:1015A000FA89134B1B689A4205D90F4B1B68002020
:1015B0000021984712E00E4B1A68FB89D31A0C4A97
:1015C0001360094B1B68FA89786811469847084BE5
:1015D0001B68002B02D00020FFF77AFF1037BD46B2
:1015E00080BD00BFC40D0020D00D0020C00D002024
:1015F000D40D002080B586B000AFF860C7E90023A5
:10160000FFF73EF90346002B01D001232AE0174AD9
:10161000FB681360FFF7BCFA78617B69002B01D18E
:1016200001231FE07B6907229A807B6901229A715E
:101630007B690322DA717B6903F10801D7E9002392
:10164000C1E900237B6910333A6A1A607869FFF7B1
:101650000BFB0346002B04D10548FFF77FFC034634
:1016600000E0012318461837BD4680BDCC0D002090
:101670007516000880B584B000AF7860FFF700F9F8
:101680000346002B00D026E07B68002B04D1134BCF
:101690001B68012098471EE07B689B88022B07D1BE
:1016A0007B681B7A002B0BD07B681B7A022B07D040
:1016B0007868FFF7A3FA094B1B68012098470AE0F6
:1016C0007B681B7AFB737868FFF798FA034B1B68FB
:1016D000FA7B104698471037BD4680BDCC0D0020E0
:1016E00080B582B000AF78603960FFF7C9F8034673
:1016F000002B01D0012317E03B6803F00103002B0E
:1017000001D0012310E03B685B089BB201339AB221
:101710007B689A807B6881229A717B680322DA71E8
:101720007868FFF7A1FA034618460837BD4680BD22
:1017300080B500AF00F00CF809F0FCFB00F054F8A5
:1017400000F0B8F8FFF73AF8FFF744F8FEE700BFFB
:1017500080B592B000AF224A214B1B6C43F08053FE
:101760001364204A1F4B1B6823F4404343F4004397
:1017700013600123BB610123FB6102233B634FF430
:1017800080037B630823BB634FF4A873FB630423CC
:101790003B6407237B6407F11803184604F058FAEA
:1017A0000346002B00D0FEE70D237B600223BB60C5
:1017B0000023FB604FF4A0533B614FF480537B61E7
:1017C0003B1D1846022104F027FC0346002B00D0E5
:1017D000FEE7042009F092FB4837BD4680BD00BFFC
:1017E000003802400070004080B586B000AF2C4A3F
:1017F0002B4B1B6B43F001031363294A284B1B6BD4
:1018000043F002031363264A254B1B6B43F004038A
:101810001363234A224B1B6B43F00803136341F607
:10182000FF737B600023BB600123FB6000233B61EF
:1018300000237B613B1D1B48194605F067FE4FF6F0
:10184000E7737B603B1D1848194605F05FFE4FF6B5
:10185000FF737B603B1D1548194605F057FE3B1D85
:101860001348194605F052FE10237B600323BB602A
:101870003B1D0E48194605F049FE4FF480537B602E
:101880000123BB600023FB603B1D0848194605F09F
:101890003DFE064B4FF480529A611837BD4680BD1D
:1018A00000380240000002400004024000080240EC
:1018B000000C024080B500AF064B4FF080529A6199
:1018C0004FF4FA7009F088FB024B4FF480529A6192
:1018D00080BD00BF0008024080B483B000AF034663
:1018E000FB80094AFB881380FB88002B06D1074B3D
:1018F00000221A70064B4FF480529A610C37BD4695
:101900005DF8047B704700BF5A0100205E01002093
:101910000008024080B400AF144B1B88002B21D07C
:10192000134B1B8801339AB2114B1A80104B1A8843
:101930000E4B1B889A4215D30D4B00221A800D4B7B
:101940001B78002B07D00B4B00221A700A4B4FF468
:1019500080529A6106E0074B01221A70064B4FF045
:1019600080529A61BD465DF8047B70475A010020A1
:101970005C0100205E0100200008024080B500AF3D
:1019800009F010FBFFF7C6FF80BD00BF80B500AFB8
:10199000014804F003FF80BD7003002080B500AF54
:1019A000014806F013F880BDD80D002080B500AFC7
:1019B000014806F00BF880BD280E002080B500AF6E
:1019C000024B08225A61FFF71FFB80BD003C01401B
:1019D00080B500AF4FF0FF300221002209F058FA25
:1019E00080BD00BF80B588B000AF78607B681B68A1
:1019F000564A934240F0A780554A554B5B6C43F4DE
:101A000080535364524A524B1B6B43F4800313635D
:101A1000E023FB6002233B6102237B610123BB6166
:101A20000523FB6107F10C034A48194605F06EFDDA
:101A3000484B10229A611023FB6001233B61002375
:101A40007B6107F10C034348194605F05FFD08234D
:101A5000FB60414B3B6101237B6107F10C033D4877
:101A6000194605F053FD09200A21002209F010FA59
:101A7000092009F029FA7B68384A1A64374B384A3A
:101A80001A60364A7B689363344B4FF0C0625A60E9
:101A9000324B40229A60314B0022DA602F4B4FF4D8
:101AA00080621A612D4B4FF400625A612B4B4FF448
:101AB00000529A61294B0022DA61284B4FF48032A0
:101AC0001A62264B00225A62244805F0B5FE3B20DC
:101AD0000A21002209F0DCF93B2009F0F5F97B68C6
:101AE000204A5A641F4B204A1A601E4A7B6893633F
:101AF0001C4B4FF0C0625A601A4B00229A60194B7F
:101B00000022DA60174B4FF480621A61154B4FF4D4
:101B100000625A61134B4FF400529A61114B00223C
:101B2000DA61104B4FF480321A620E4B00225A6277
:101B30000C4805F081FE3A200A21002209F0A8F99C
:101B40003A2009F0C1F92037BD4680BD0030014080
:101B5000003802400000024000002110280E002042
:101B600058640240D80D00204064024080B584B023
:101B700000AFF860B9601346FB80FB680222C3F82F
:101B8000F421FA88FB689A61FA88FB68DA61FB88BD
:101B9000F8680021BA68FEF7C9FD0023184610371F
:101BA000BD4680BD80B584B000AFF860B960134613
:101BB000FB80FB88F8680021BA68FEF7B7FD0023B8
:101BC00018461037BD4680BD80B584B000AFF860C0
:101BD000B9601346FB80FB88F8680021BA68FEF7FD
:101BE000BFFD002318461037BD4680BD80B582B0CA
:101BF00000AF78607B680422C3F8F4217868002184
:101C000000220023FEF792FD002318460837BD4648
:101C100080BD00BF80B582B000AF78607B680522D0
:101C2000C3F8F4217868002100220023FEF798FD14
:101C3000002318460837BD4680BD00BF80B584B07C
:101C400000AF786039600023FB733B685B78092B39
:101C500039D801A252F823F0A91C0008BD1C0008C5
:101C6000C71C0008B31C0008C71C00088B1C000818
:101C7000811C0008C71C00089F1C0008951C000858
:101C80007868396800F036F922E07868396800F041
:101C90002DFA1DE07868396800F066FA18E0786877
:101CA000396800F0EBFA13E07868396800F018FB47
:101CB0000EE07868396800F03DFB09E07868396823
:101CC00000F052FB04E07868396800F0B1FB00BF17
:101CD000FB7B18461037BD4680BD00BF80B584B081
:101CE00000AF786039600023FB737B6893F8FC31A8
:101CF000032B1CD13B689B88DBB2012B11D87B687E
:101D0000D3F814329B687868396898473B68DB8859
:101D1000002B0BD1FB7B002B08D17868FFF766FF07
:101D20000AE07868396800F083FB05E004E0786831
:101D3000396800F07DFB00BF002318461037BD4610
:101D400080BD00BF80B584B000AF786039600023EB
:101D5000FB733B689B88BB733B681B7803F0600395
:101D6000202B08D17B68D3F814329B6878683968D7
:101D700098470023B9E03B685B78012B39D0032BEF
:101D800002D0002B6AD0AFE07B6893F8FC31022BC5
:101D900002D0032B0DD026E0BB7B002B08D0BB7BF1
:101DA000802B05D0BB7B78681946FEF757FC1FE0F7
:101DB0001EE03B685B88002B0AD1BB7B002B07D061
:101DC000BB7B802B04D0BB7B78681946FEF746FCB2
:101DD0007B68D3F814329B687868396898477868CC
:101DE000FFF704FF04E07868396800F021FB00BFCA
:101DF0007AE07B6893F8FC31022B02D0032B0DD0E4
:101E000026E0BB7B002B08D0BB7B802B05D0BB7BA7
:101E100078681946FEF722FC1FE01EE03B685B88ED
:101E2000002B14D1BB7B03F07F03002B0BD0BB7BBB
:101E300078681946FEF726FC7B68D3F814329B6855
:101E40007868396898477868FFF7D0FE05E004E0C5
:101E50007868396800F0ECFA00BF45E07B6893F8D9
:101E6000FC31022B02D0032B0CD037E0BB7B03F0FC
:101E70007F03002B05D0BB7B78681946FEF7EEFB8D
:101E800031E030E0BB7B5BB2002B08DABB7B03F0B8
:101E90007F0301331B017A681344043307E0BB7BE3
:101EA00003F07F0310331B017A6813440433BB60D3
:101EB000BB7B78681946FEF7F9FB0346002B03D07D
:101EC000BB6801221A6002E0BB6800221A60BB688E
:101ED000786819460222FFF749FE04E078683968FD
:101EE00000F0A6FA00BF00BFFB7B18461037BD46C6
:101EF00080BD00BF80B584B000AF786039603B68BA
:101F00005B881B0A9BB2013B062B00F2D18001A229
:101F100052F823F0311F00084B1F00088B1F0008E8
:101F2000B1200008B12000085D20000883200008CF
:101F30007B68D3F810321B687A68117C07F10A02BB
:101F4000084611469847F860B7E07B681B7C002B79
:101F50000DD17B68D3F81432DB6A07F10A02104610
:101F60009847F860FB68013302221A70A5E07B688D
:101F7000D3F814321B6B07F10A0210469847F86039
:101F8000FB68013302221A7097E03B685B88DBB282
:101F9000052B5DD801A252F823F000BFB51F000841
:101FA000CF1F0008E91F0008032000081D200008BB
:101FB000372000087B68D3F810325B687A68117CA0
:101FC00007F10A02084611469847F86045E07B6829
:101FD000D3F810329B687A68117C07F10A02084630
:101FE00011469847F86038E07B68D3F81032DB6818
:101FF0007A68117C07F10A02084611469847F86092
:102000002BE07B68D3F810321B697A68117C07F1EA
:102010000A02084611469847F8601EE07B68D3F82C
:1020200010325B697A68117C07F10A020846114692
:102030009847F86011E07B68D3F810329B697A68A2
:10204000117C07F10A02084611469847F86004E03F
:102050007868396800F0ECF944E02EE07B681B7C7E
:10206000002B09D17B68D3F814329B6B07F10A026D
:1020700010469847F86020E07868396800F0D8F991
:1020800030E07B681B7C002B0DD17B68D3F81432C9
:102090005B6B07F10A0210469847F860FB68013352
:1020A00007221A7009E07868396800F0C1F919E070
:1020B0007868396800F0BCF914E07B89002B11D0F6
:1020C0003B68DB88002B0DD03B68DA887B89934224
:1020D00028BF13469BB27B817B897868F9681A46D2
:1020E000FFF744FD1037BD4680BD00BF80B584B00A
:1020F00000AF786039603B689B88002B2DD13B682E
:10210000DB88002B29D13B685B88DBB203F07F03BF
:10211000FB737B6893F8FC31032B04D17868396832
:1021200000F086F918E07B68FA7B83F8FE21FB7BE0
:1021300078681946FEF7E6FA7868FFF757FDFB7BEB
:10214000002B04D07B68022283F8FC2104E07B682A
:10215000012283F8FC2104E003E07868396800F08C
:1021600067F91037BD4680BD80B582B000AF78609A
:1021700039603B685B88DAB23F4B1A703E4B1B7884
:10218000012B04D97868396800F052F970E07B6857
:1021900093F8FC31022B02D0032B23D063E0364BA3
:1021A0001B78002B1AD0344B1B781A467B685A6078
:1021B0007B68032283F8FC212F4B1B787868194633
:1021C00000F012FA0346022B04D17868396800F057
:1021D0002FF94DE07868FFF709FD49E07868FFF7CF
:1021E00005FD45E0244B1B78002B12D17B680222B1
:1021F00083F8FC21204B1B781A467B685A601E4BE3
:102200001B787868194600F00FFA7868FFF7EEFC43
:1022100028E0194B1B781A467B685B689A421DD0F0
:102220007B685B68DBB27868194600F0FDF9124BF9
:102230001B781A467B685A600F4B1B7878681946E2
:1022400000F0D2F90346022B04D17868396800F017
:10225000EFF80DE07868FFF7C9FC03E07868FFF756
:10226000C5FC05E004E07868396800F0E1F800BFDB
:102270000837BD4680BD00BF5F01002080B582B039
:1022800000AF786039603B68DB88012B04D0786848
:10229000396800F0CDF81FE07B6893F8FC31022B21
:1022A00002D0032B0BD012E07B6800229A607B687F
:1022B0000833786819460122FFF758FC0CE07B6868
:1022C0000433786819460122FFF750FC04E078686F
:1022D000396800F0ADF800BF0837BD4680BD00BFCB
:1022E00080B582B000AF786039607B6893F8FC31CC
:1022F000023B012B15D87B680122DA607B68D3F89A
:102300000432002B05D07B68DB6843F002027B6857
:10231000DA607B680C33786819460222FFF726FCE6
:1023200004E07868396800F083F800BF0837BD46DC
:1023300080BD00BF80B582B000AF786039603B6877
:102340005B88012B0DD17B680122C3F804227B68D6
:10235000D3F814329B687868396898477868FFF733
:1023600045FC0837BD4680BD80B582B000AF7860BF
:1023700039607B6893F8FC31023B012B13D83B6832
:102380005B88012B0ED17B680022C3F804227B6896
:10239000D3F814329B687868396898477868FFF7F3
:1023A00025FC05E004E07868396800F041F800BFDA
:1023B0000837BD4680BD00BF80B483B000AF7860F1
:1023C00039603B681A787B681A703B685A787B687A
:1023D0005A703B6802331B789AB23B6803331B7810
:1023E0009BB21B029BB213449AB27B685A803B6833
:1023F00004331B789AB23B6805331B789BB21B02EF
:102400009BB213449AB27B689A803B6806331B7870
:102410009AB23B6807331B789BB21B029BB21344F2
:102420009AB27B68DA800C37BD465DF8047B704752
:1024300080B582B000AF7860396078688021FEF79F
:102440000DF978680021FEF709F90837BD4680BD0F
:1024500080B586B000AFF860B9607A600023FB7584
:10246000FB68002B33D0F86800F034F803460133E2
:102470009BB25B009AB27B681A80FB7D5A1CFA758E
:102480001A46BB6813447A681288D2B21A70FB7D70
:102490005A1CFA751A46BB68134403221A7012E0DC
:1024A000FB7D5A1CFA751A46BB681A44FB68591C16
:1024B000F9601B781370FB7D5A1CFA751A46BB68CD
:1024C000134400221A70FB681B78002BE8D11837E0
:1024D000BD4680BD80B485B000AF78600023FB733B
:1024E00005E0FB7B0133FB737B6801337B607B681A
:1024F0001B78002BF5D1FB7B18461437BD465DF8E1
:10250000047B704780B584B000AFF860B9601346B3
:10251000FB71FB68002B01D1022319E0FB6800224C
:10252000C3F81422FB680022C3F81822BB68002BF2
:1025300003D0FB68BA68C3F81022FB68012283F855
:10254000FC21FB68FA791A70F868FDF7DBFF0023BD
:1025500018461037BD4680BD80B485B000AF7860A6
:1025600039600023FB733B68002B06D07B683A6818
:10257000C3F814220023FB7301E00223FB73FB7BEF
:1025800018461437BD465DF8047B704780B582B0AD
:1025900000AF78607868FDF7FFFF00231846083722
:1025A000BD4680BD80B582B000AF78607B68D3F84F
:1025B00014325B687A685268D2B2786811469847DC
:1025C0007868FDF7F9FF002318460837BD4680BD3F
:1025D00080B483B000AF7860002318460C37BD4646
:1025E0005DF8047B704700BF80B584B000AF7860B1
:1025F0000B46FB700223FB737B68D3F81432002B6D
:102600000CD07B68D3F814321B68FA7878681146CE
:1026100098470346002B01D10023FB73FB7B184630
:102620001037BD4680BD00BF80B582B000AF786076
:102630000B46FB707B68D3F814325B68FA787868D5
:1026400011469847002318460837BD4680BD00BF95
:1026500080B582B000AF786039607B6803F50273A3
:1026600018463968FFF7A8FE7B680122C3F8F421F9
:102670007B68B3F80E321A467B68C3F8F8217B6892
:1026800093F8083203F01F03012B0BD0022B11D05B
:10269000002B17D17B6803F5027378681946FFF7A2
:1026A000CDFA1AE07B6803F5027378681946FFF7E4
:1026B00015FB12E07B6803F5027378681946FFF793
:1026C00041FB0AE07B6893F8083223F07F03DBB21A
:1026D00078681946FDF7C2FF00BF00231846083787
:1026E000BD4680BD80B586B000AFF8600B467A600D
:1026F000FB72FB7A002B38D1FB6803F582737B6198
:10270000FB68D3F8F431032B42D17B699A687B696B
:10271000DB689A4214D97B699A687B69DB68D21AB4
:102720007B699A607B69DA687B699B68934228BF02
:1027300013469BB2F86879681A46FFF745FA27E016
:10274000FB68D3F814321B69002B0AD0FB6893F89E
:10275000FC31032B05D1FB68D3F814321B69F868F0
:102760009847F868FFF742FA12E0FB68D3F8143292
:102770009B69002B0CD0FB6893F8FC31032B07D12D
:10278000FB68D3F814329B69FA7AF86811469847C7
:10279000002318461837BD4680BD00BF80B586B0FF
:1027A00000AFF8600B467A60FB72FB7A002B6CD1AD
:1027B000FB6814337B61FB68D3F8F431022B57D1EB
:1027C0007B699A687B69DB689A420FD97B699A6852
:1027D0007B69DB68D21A7B699A607B699B689BB2D4
:1027E000F86879681A46FFF7DDF905E0F868002116
:1027F00000220023FDF7B4FF7B695B687A69D26829
:10280000B3FBF2F102FB01F29B1A002B16D17B699C
:102810005A687B69DB689A4210D37B695A68FB6807
:10282000D3F8F8319A4209D2F86800210022FFF764
:10283000B9F9FB680022C3F8F82105E0F868002127
:1028400000220023FDF78CFFFB68D3F81432DB680D
:10285000002B0AD0FB6893F8FC31032B05D1FB68F1
:10286000D3F81432DB68F8689847F868FFF7D2F9B4
:10287000FB6893F80032012B1AD1F868FFF7A8FE25
:10288000FB68002283F8002212E0FB68D3F81432C0
:102890005B69002B0CD0FB6893F8FC31032B07D14C
:1028A000FB68D3F814325B69FA7AF86811469847E6
:1028B000002318461837BD4680BD00BF80B582B0E2
:1028C00000AF78607868002100224023FDF784FE85
:1028D0007B684022C3F810217868802100224023C1
:1028E000FDF77AFE7B6840221A627B68012283F83A
:1028F000FC217B68D3F81832002B09D07B68D3F811
:1029000014325B687A685268D2B278681146984788
:10291000002318460837BD4680BD00BF80B483B091
:1029200000AF78600B46FB707B68FA781A7400235E
:1029300018460C37BD465DF8047B704780B483B001
:1029400000AF78607B6893F8FC217B6883F8FD21F9
:102950007B68042283F8FC21002318460C37BD460F
:102960005DF8047B704700BF80B483B000AF78602F
:102970007B6893F8FD217B6883F8FC2100231846CF
:102980000C37BD465DF8047B704700BF80B582B050
:1029900000AF78607B6893F8FC31032B0BD17B6828
:1029A000D3F81432DB69002B05D07B68D3F81432DE
:1029B000DB6978689847002318460837BD4680BD14
:1029C00080B483B000AF78600B46FB7000231846DC
:1029D0000C37BD465DF8047B704700BF80B483B000
:1029E00000AF78600B46FB70002318460C37BD46DD
:1029F0005DF8047B704700BF80B483B000AF78609F
:102A0000002318460C37BD465DF8047B704700BFB5
:102A100080B582B000AF78607B68012283F8FC212A
:102A20007B68D3F814325B687A685268D2B27868EF
:102A300011469847002318460837BD4680BD00BFA1
:102A400080B582B000AF78607B68D3F814329B6A9F
:102A500078689847002318460837BD4680BD00BFF8
:102A600080B584B000AFF8607A603B600B46FB72C3
:102A7000814AFB681360814A7B681360804AFB7A55
:102A80001370804A3B681360FB68D3F818327E4AA3
:102A900013607B681B785A2B00F2DE8001A252F88B
:102AA00023F000BF112C0008592C0008592C0008F5
:102AB000172C0008592C0008592C0008592C000824
:102AC000592C0008592C0008592C0008592C0008D2
:102AD000592C0008592C0008592C0008592C0008C2
:102AE000592C0008592C0008592C00081D2C0008EE
:102AF000592C0008592C0008592C0008592C0008A2
:102B0000592C0008592C0008592C00082F2C0008BB
:102B1000232C0008592C0008592C0008292C0008E7
:102B2000592C0008592C0008592C0008592C000871
:102B30003B2C0008592C0008412C0008592C000897
:102B4000592C0008472C0008592C00084D2C00086F
:102B5000592C0008592C0008592C0008592C000841
:102B6000532C0008592C0008592C0008592C000837
:102B7000592C0008592C0008592C0008592C000821
:102B8000592C0008592C0008592C0008592C000811
:102B9000592C0008592C0008592C0008592C000801
:102BA000592C0008592C0008592C0008592C0008F1
:102BB000592C0008592C0008592C0008592C0008E1
:102BC000592C0008592C0008592C0008592C0008D1
:102BD000592C0008592C0008592C0008592C0008C1
:102BE000592C0008592C0008592C0008592C0008B1
:102BF000592C0008592C0008592C0008592C0008A1
:102C0000592C0008592C0008592C0008352C0008B4
:102C100000F03CF82CE000F09DFA29E000F09AF872
:102C200026E000F06DFB23E000F06AFB20E000F0FE
:102C30002DFA1DE000F05CFA1AE000F089F917E0C7
:102C400000F0E0F814E000F06BFB11E000F0B2FCE3
:102C50000EE000F035FE0BE0FB7AF868194605221D
:102C6000202300F00FFB074B1B684FF0FF30984705
:102C70001037BD4680BD00BF880E00207C0E0020AE
:102C8000800E0020840E0020780E002080B500AF5A
:102C9000134B1B68DB69002B0FD0124B1A68124BC9
:102CA0001B78104619460522202300F0EBFA0F4B43
:102CB0001B684FF0FF30984710E00B4B1B78002B40
:102CC00003D0012000F016F808E00948FEF7E8FA02
:102CD0000346002B02D0012000F00CF880BD00BF9D
:102CE000780E0020880E0020800E0020840E002028
:102CF000F52C000880B582B000AF0346FB71FB796C
:102D0000002B13D00F4B1A680F4B1B781046194637
:102D100002223A2300F0B6FA0C4B1B6805221A7205
:102D20000B4B1B684FF0FF30984707E0074B1B68C1
:102D300000225A81064B1B68002098470837BD4681
:102D400080BD00BF880E0020800E0020780E00207D
:102D5000840E002080B584B000AFFDF719FF7860C5
:102D6000234B1B687A681A61214B1B687A6808320A
:102D7000DA60204B1B6801331B7803F00103002B42
:102D800004D01D4BFB6007237B8114E01B4BFB60D1
:102D9000FB6804331B789BB205337B81154B1B68A2
:102DA00004331B789BB27A899A4204D3114B1B6877
:102DB00004331B787B810E4B1B687A895A810CE0A7
:102DC0007B89013B7B810A4B1B68DA687B89134452
:102DD0007A89F9680A4412781A707B89002BEFD13E
:102DE000074B1B68002098471037BD4680BD00BFC9
:102DF000780E00207C0E0020B8B2000840B2000817
:102E0000840E002080B500AF0548FEF7ABFA0346FC
:102E1000002B04D000200021002200F003F880BD28
:102E2000252E000880B584B000AFF860B9607A60E4
:102E3000FB68002B0FD1424B1A68424B1B7810469F
:102E4000194602223A2300F01DFA3F4B1B684FF04F
:102E5000FF30984771E03D4B1B68FA681A613B4BA5
:102E60001B68FA680832DA60384B1B68BA689A66E1
:102E7000364B1B687A6892B2A3F86620334B1B6806
:102E8000DB68324A1268926E013A120ED2B21A70A0
:102E90002E4B1B68DB6801332C4A1268926E013A94
:102EA000120CD2B21A70294B1B68DB680233274A16
:102EB0001268926E013A120AD2B21A70234B1B6842
:102EC000DB680333214A1268926ED2B2013AD2B261
:102ED0001A701E4B1B68DB6804331C4A1268B2F878
:102EE00066201216D2B21A70184B1B68DB680533C5
:102EF000164A1268B2F866201214D2B21A70134B36
:102F00001B68DB680633114A1268B2F86620120AA1
:102F100092B2D2B21A700D4B1B68DB6807330B4AB2
:102F20001268B2F86620D2B21A70084B1B680822E9
:102F30005A81054B1B68002098471037BD4680BD5D
:102F4000880E0020800E0020840E0020780E0020C5
:102F500080B500AF0548FEF705FA0346002B04D004
:102F600000200021002200F003F880BD712F00082E
:102F700080B584B000AFF860B9607A60FB68002B60
:102F80000FD13E4B1A683E4B1B7810461946022261
:102F90003A2300F077F93B4B1B684FF0FF3098471E
:102FA00068E0394B1B68FA681A61374B1B68FA688E
:102FB0000832DA60344B1B68DB6800221A70324B2F
:102FC0001B68DB68013300221A702F4B1B68DB681B
:102FD000023300221A702C4B1B68DB680333082273
:102FE0001A70294B1B68DB680433BA68013A120E69
:102FF000D2B21A70244B1B68DB680533BA68013AF9
:10300000120CD2B21A70204B1B68DB680633BA6808
:10301000013A120AD2B21A701B4B1B68DB680733E5
:10302000BA68D2B2013AD2B21A70174B1B68DB6889
:10303000083302221A70144B1B68DB6809337A6864
:10304000120CD2B21A70104B1B68DB680A337A6814
:10305000120AD2B21A700C4B1B68DB680B337A6809
:10306000D2B21A70084B1B680C225A81054B1B68A0
:10307000002098471037BD4680BD00BF880E002055
:10308000800E0020840E0020780E002080B582B0D3
:1030900000AF0823FB80FDF77BFD3860114B1B68F8
:1030A0003A681A610F4B1B683A680832DA600D4BB8
:1030B0001B68FA885A810BE0FB88013BFB80094BB7
:1030C0001B68DA68FB881344FA8807498A5C1A701F
:1030D000FB88002BF0D1054B1B6800209847083770
:1030E000BD4680BD780E0020C0B20008840E0020CE
:1030F00080B582B000AF0823FB80FDF749FD386042
:10310000114B1B683A681A610F4B1B683A6808320A
:10311000DA600D4B1B68FA885A810BE0FB88013B93
:10312000FB80094B1B68DA68FB881344FA8807495F
:103130008A5C1A70FB88002BF0D1054B1B680020BD
:1031400098470837BD4680BD780E0020C8B20008F9
:10315000840E002080B582B000AFFDF719FD386005
:10316000454B1B683A681A61434B1B683A68083242
:10317000DA600023FB7109E03F4B1B68DA68FB79DA
:10318000134400221A70FB790133FB71FB79112B78
:10319000F2D9394B1B68DB6870221A70364B1B68FA
:1031A000DB6807330C221A70334B1B6893F86420DA
:1031B000314B1B6893F865309A4244D02E4B1B6804
:1031C000DB689A1C2C4B19682B4B1B6893F86430F6
:1031D0000833DB000B441B79DBB21370264B1B68F2
:1031E000DB6803F10C02244B1968234B1B6893F82E
:1031F00064300833DB000B445B7ADBB213701E4B88
:103200001B68DB6803F10D021B4B19681A4B1B6826
:1032100093F864300833DB000B441B7ADBB2137085
:10322000154B1B6893F864200132D2B283F86420F6
:10323000114B1B6893F86430042B04D10E4B1B68B0
:10324000002283F864200C4B1B6812225A810B4B1E
:103250001B6804331B78122B07D8074B1B68074ADF
:1032600012680432127892B25A81054B1B68002012
:1032700098470837BD4680BD780E00207C0E0020A0
:10328000840E002080B485B000AF786008461146F7
:103290001A460346FB700B46BB7013467B707B6877
:1032A000D3F81832FB60FB6893F86530B978FA6898
:1032B0000833DB0013440A461A71FB6893F8653043
:1032C00018467B781B021946FA6800F10803DB00F8
:1032D00013449960FB6893F865300133DAB2FB68F8
:1032E00083F86520FB6893F86530042B03D1FB68F5
:1032F000002283F865201437BD465DF8047B7047D3
:1033000080B500AF044B1B6800225A81034B1B6839
:103310000020984780BD00BF780E0020840E00205A
:1033200080B582B002AF5A4B1B681B7A002B40F06D
:10333000A280574B1B6893F82030DBB25BB2002BA6
:1033400011DB544B1A68524B1B6893F8213010461E
:10335000194605222023FFF795FF4F4B1B684FF0BE
:10336000FF30984791E04A4B1B684C4A1268023282
:1033700012781106494A1268033212781204114376
:10338000464A12680432127812020A434349096815
:10339000053109780A43DA663D4B1B683F4A1268DB
:1033A00007321278120291B23C4A1268083212783F
:1033B00092B20A4392B292B2A3F87020344B1B68C7
:1033C000DA6E334B1B68B3F870301046194600F0C4
:1033D000B9FA0346002B11DA2E4B1A682C4B1B68E6
:1033E00093F821301046194605222023FFF74AFFA3
:1033F000294B1B684FF0FF30984746E0244B1B6871
:10340000DB69234A1268B2F870201146204A12681C
:10341000B2F8662002FB01F2934211D01D4B1A68EC
:103420001B4B1B6893F821301046194605222023B8
:10343000FFF728FF184B1B684FF0FF30984724E038
:10344000134B1B68DB6E1A464FF0000310490968E6
:10345000B1F8701008460E490968C96900900191D9
:103460000F48FDF7E5FF0346002B03D0012000F0D5
:103470001BF80AE009E00B48FEF72AF80346002B88
:1034800003D00020002100F043F8BD4680BD00BFFE
:10349000780E0020880E0020840E00207C0E002074
:1034A000A93400081135000880B582B000AF03468A
:1034B000FB71FB79002B0FD0104B1A68104B1B7857
:1034C0001046194602223A23FFF7DCFE0D4B1B681B
:1034D0004FF0FF3098470DE00B4B1B6802221A7229
:1034E0000A48FDF7F5FF0346002B03D0002000211A
:1034F00000F00EF80837BD4680BD00BF880E0020E2
:10350000800E0020840E0020780E00201135000867
:1035100080B582B000AF78600B467B807B68002B63
:103520000FD1204B1A68204B1B78104619460422F5
:103530001123FFF7A7FE1D4B1B684FF0FF30984784
:103540002DE01B4B1B681B69002B00D0FEE7184BBE
:103550001B687A681A61164B1B687A680832DA6051
:10356000104B1968124B1B68DA687B88084681216A
:10357000FDF7DCF80E4B1B680D4A1268D16B7A8898
:103580008A1ADA630A4B1B68DB6B002B03D1084BEA
:103590001B6803221A72054B1B68002098470837E6
:1035A000BD4680BD880E0020800E0020840E0020C5
:1035B000780E002080B584B002AF7B4B1B681B7A6D
:1035C000002B40F09D80784B1B6893F82030DBB2D5
:1035D0005BB2002B11DA754B1A68734B1B6893F8BA
:1035E00021301046194605222023FFF74BFE704B71
:1035F0001B684FF0FF309847D2E06B4B1B686D4A59
:1036000012680232127811066A4A1268033212787E
:1036100012041143674A12680432127812020A43F4
:1036200064490968053109780A43DA665E4B1B680C
:10363000604A126807321278120291B25D4A12682B
:103640000832127892B20A4392B292B2A3F8702072
:10365000554B1B68DA6E544B1B68B3F8703010463C
:10366000194600F06FF90346002B11DA4F4B1A6828
:103670004D4B1B6893F82130104619460522202334
:10368000FFF700FE4A4B1B684FF0FF30984787E07A
:10369000454B1B68DB69444A1268B2F8702011463A
:1036A000414A1268B2F8662002FB01F2934211D03F
:1036B0003E4B1A683C4B1B6893F821301046194664
:1036C00005222023FFF7DEFD394B1B684FF0FF304A
:1036D000984765E0344B1B68DB6E1A464FF00003D9
:1036E00031490968B1F8701000913348FDF782FF45
:1036F0000346002B03D0012000F064F850E04FE0B7
:10370000294B1B68DB6BB3F5007F28BF4FF40073B8
:103710007B60254B1B681B6918467968FDF7E0FF45
:103720000346002B0FD0214B1A68244B1B78104600
:10373000194604220323FFF7A5FD1D4B1B684FF01C
:10374000FF3098472CE0184B1B68174A1268D16B62
:103750007A688A1ADA63144B1B68DB6B002B0AD178
:10376000124B1B681846002100F0C0FA104B1B6872
:103770000020984714E01248FDF7CAF90346002BD1
:103780000ED00A4B1A680D4B1B78104619460222C0
:103790003A23FFF777FD064B1B684FF0FF30984741
:1037A0000837BD4680BD00BF780E0020880E00207F
:1037B000840E00207C0E0020C5370008800E0020FB
:1037C0006938000880B582B000AF0346FB71FB7911
:1037D000022B0FD11F4B1A681F4B1B78104619463E
:1037E00002222723FFF74EFD1C4B1B684FF0FF30D2
:1037F00098472BE0FB79002B0FD0164B1A68164B1D
:103800001B781046194602223A23FFF73BFD134B63
:103810001B684FF0FF30984718E0114B1B680122DE
:103820001A721048FDF774F90346002B0ED0094BAD
:103830001A68094B1B781046194602223A23FFF7F3
:1038400021FD064B1B684FF0FF3098470837BD46F7
:1038500080BD00BF880E0020800E0020840E002056
:10386000780E00206938000880B582B000AF78601B
:10387000104B1B687A681A610E4B1B687A68083215
:10388000DA600D4B19680B4B1B68DA68094B1B6833
:10389000DB6BB3F5007F28BF4FF400739BB2084683
:1038A0000121FCF75DFF054B1B6800209847083796
:1038B000BD4680BD780E0020880E0020840E0020BA
:1038C00080B500AF1A4B1B6801331B7803F002036D
:1038D000002B0FD0174B1A68174B1B781046194650
:1038E00005222423FFF7CEFC144B1B684FF0FF305A
:1038F00098471BE0124B1B68DA6E114B1B68B3F83C
:1039000070301046194600F01DF80346002B05DA0A
:103910000A4B1B684FF0FF30984707E0084B1B68C5
:1039200000225A81054B1B680020984780BD00BFCC
:103930007C0E0020880E0020800E0020840E0020C7
:10394000780E002080B582B000AF78600B467B8097
:103950000F4B1B689A6E7B689A4207D37A887B6804
:103960001A440B4B1B689B6E9A420BD9094B1A6881
:10397000094B1B781046194605222123FFF782FCCC
:10398000FF2300E000235BB218460837BD4680BD28
:10399000780E0020880E0020800E002080B584B0B4
:1039A00000AF78607B68D3F81832FB60FB680022B8
:1039B0001A72FB6800225A72FB68002283F86520A5
:1039C000FB68002283F8642078680121FCF732FE4E
:1039D00078688121FCF72EFEFB681433786801219A
:1039E0001A461F23FCF7BCFE1037BD4680BD00BF42
:1039F00080B584B000AF78607B68D3F81832FB6084
:103A0000FB6800221A72FB6801225A72FB681433A9
:103A1000786801211A461F23FCF7A2FE1037BD4625
:103A200080BD00BF80B485B000AF78607B68D3F8FC
:103A30001832FB60FB6800221A721437BD465DF82D
:103A4000047B704780B584B000AF78600B46FB7094
:103A50007B68D3F81832FB60FB681B7A022B04D01A
:103A6000022B16DB042B14DC0EE00C4A7B6813607F
:103A7000FB6893F82120FB682333786811461A46C7
:103A8000074BFEF7EDFF05E07868002100F02EF906
:103A900000E000BF1037BD4680BD00BF8C0E002087
:103AA000A53A000880B582B000AF0346FB7197F9D4
:103AB0000730002B05DA044B1B681846012100F083
:103AC00015F90837BD4680BD8C0E002080B584B046
:103AD00000AF78600B46FB707B68D3F81832FB6050
:103AE000FB681B7A002B02D0012B04D012E078680F
:103AF00000F02CF80EE0094A7B681360FB6893F82D
:103B00002120FB682333786811461A46044BFEF7E0
:103B1000A7FF00BF1037BD4680BD00BF8C0E002040
:103B2000253B000880B582B000AF0346FB7197F9D2
:103B30000730002B05DA044B1B681846012100F002
:103B4000D5F80837BD4680BD8C0E002080B584B006
:103B500000AF78607B68D3F81832FB60FB689A6925
:103B6000FB689A63FB68DA69FB68DA6378680121AD
:103B7000FCF710FE03461F2B13D1FB685B691B4A41
:103B800093420ED1FB6893F82130012B09D8FB68D2
:103B900093F82230002B04D0FB6893F82230102BCE
:103BA0000FD9FB6893F82130786819460522202345
:103BB000FFF768FBFB6802225A72786800F0C0F8D1
:103BC00010E00B4A7B6813600A4AFB681360FB68CD
:103BD00093F82120FB682333786811461A46064B78
:103BE000FEF73EFF1037BD4680BD00BF5553424330
:103BF0008C0E0020900E0020FD3B000880B582B0A6
:103C000000AF0346FB7197F90730002B11DA214B07
:103C10001B681B7A052B06D11F4B1B681846012118
:103C200000F064F832E01C4B1B68184600F088F87E
:103C30002CE0184B1B681B7A022B27D0154B1B68F6
:103C40001B7A012B22D0134B1B681B7A032B1DD030
:103C5000104B1B685B89002B0DD00F4B19680D4B67
:103C60001B68DA680B4B1B685B89084611461A46CD
:103C700000F014F80AE0074B1B685B89002B05D1A4
:103C8000054B1B681846002100F030F80837BD4688
:103C900080BD00BF900E00208C0E002080B586B045
:103CA00000AFF860B9601346FB80FB68D3F81832A8
:103CB0007B61FA887B69DB69934228BF1346FB80EE
:103CC0007B69DA6BFB88D21A7B69DA637B69002235
:103CD00083F840207B6904221A72FB88F8688121EE
:103CE000BA68FCF723FD1837BD4680BD80B584B0A7
:103CF00000AF78600B46FB707B68D3F81832FB602E
:103D0000FB680E4A5A63FB68FA7883F84020FB6828
:103D100000221A72FB683433786881211A460D2319
:103D2000FCF704FDFB681433786801211A461F2351
:103D3000FCF716FD1037BD4680BD00BF55534253FA
:103D400080B584B000AF78607B68D3F81832FB6030
:103D5000FB6893F82030002B0BD1FB68DB69002B4C
:103D600007D0FB685B7A002B03D178680121FCF750
:103D700075FC78688121FCF771FCFB685B7A022B8B
:103D800007D1FB681433786801211A461F23FCF71A
:103D9000E7FC1037BD4680BD80B584B000AF7860C9
:103DA0000B46FB707B68D3F81832FB60FB685B7ACC
:103DB000022B07D178688121FCF750FCFB680022B8
:103DC0005A720BE0FB785BB2002B07DAFB685B7A78
:103DD000012B03D078680121FFF788FF1037BD461B
:103DE00080BD00BF80B584B000AF78600B46FB702B
:103DF0000023FB817B681B7C002B0ED1786801219E
:103E000002224FF40073FCF7E7FB7868812102225D
:103E10004FF40073FCF7E0FB0BE07868012102220D
:103E20004023FCF7D9FB7868812102224023FCF76C
:103E3000D3FB742007F03CF903461A467B68C3F8AD
:103E400018227B68D3F81832002B02D10123FB81A2
:103E500009E07868FFF7A2FD7B68D3F818320022EA
:103E60001A610023FB81FB89DBB218461037BD467F
:103E700080BD00BF80B582B000AF78600B46FB709C
:103E800078680121FCF7C2FB78688121FCF7BEFB52
:103E90007868FFF7C7FD7B68D3F81832002B09D08C
:103EA0007B68D3F81832184607F00AF97B680022BD
:103EB000C3F81822002318460837BD4680BD00BF4E
:103EC00080B584B000AF786039607B68D3F8183271
:103ED000FB603B681B7803F06003002B46D0202B6F
:103EE00000D09DE03B685B78FE2B02D0FF2B1ED0FC
:103EF00035E03B685B88002B13D13B68DB88012BE6
:103F00000FD13B681B78DBB25BB2002B09DAFB6890
:103F100000221A60FB68786819460122FDF726FE28
:103F200023E078683968FEF783FA022379E03B687A
:103F30005B88002B0DD13B68DB88002B09D13B68E7
:103F40001B78DBB25BB2002B03DB7868FFF750FD18
:103F50000BE078683968FEF76BFA022361E0786855
:103F60003968FEF765FA02235BE059E03B685B784D
:103F70000A2B04D00B2B0AD0012B0FD04FE0FB688B
:103F80000433786819460122FDF7F0FD47E03B68ED
:103F90005B88DBB21A46FB685A6040E03B689B884E
:103FA000DBB278681946FCF745FB3B689B88DBB2BF
:103FB00078681946FCF72AFB3B689B88DBB25BB24A
:103FC000002B12DA7B681B7C002B07D178688121DB
:103FD00002224FF40073FCF7FFFA18E078688121A1
:103FE00002224023FCF7F8FA11E07B681B7C002BCF
:103FF00007D17868012102224FF40073FCF7ECFA34
:1040000005E07868012102224023FCF7E5FA3B68CD
:104010009B88DBB278681946FFF7BEFE00BF00BF81
:10402000002318461037BD4680BD00BF80B582B062
:1040300000AF78600B46FB70FB7878681946FFF795
:1040400001FD002318460837BD4680BD80B582B00B
:1040500000AF78600B46FB70FB7878681946FFF775
:1040600035FD002318460837BD4680BD80B582B0B7
:1040700000AF78607B68D3F81832002B11D07B68D2
:10408000D3F818321B69002B0BD07B68D3F8183299
:104090001B691846FCF7B2FD7B68D3F81832002282
:1040A0001A61002318460837BD4680BD80B483B02E
:1040B00000AF78607B6820221A80034B18460C37CB
:1040C000BD465DF8047B70477000002080B483B06B
:1040D00000AF78607B6820221A80034B18460C37AB
:1040E000BD465DF8047B70479000002080B483B02B
:1040F00000AF78607B6820221A80034B18460C378B
:10410000BD465DF8047B7047B000002080B483B0EA
:1041100000AF78607B680A221A80034B18460C3780
:10412000BD465DF8047B7047D000002084B080B5A8
:1041300082B000AF786007F1140080E80E00BB6A1F
:10414000012B20D17B689B6B23F480327B689A63C0
:104150007B68DB6823F4840323F040037A68D36030
:104160007B68DB6823F440127B68DA603B6C012BD0
:1041700005D17B68DB6843F480127B68DA6078687D
:1041800001F0CCF90CE07B68DB6843F040027B680F
:10419000DA60786801F0C2F97B684FF480329A6384
:1041A0003B6A012B0BD17B689B6843F00C027B6858
:1041B0009A607B689B6843F020027B689A600023CA
:1041C00018460837BD46BDE8804004B0704700BFC0
:1041D00080B483B000AF78607B689B6843F00102D5
:1041E0007B689A60002318460C37BD465DF8047B57
:1041F000704700BF80B483B000AF78607B689B6875
:1042000023F001027B689A60002318460C37BD46F4
:104210005DF8047B704700BF80B582B000AF786066
:104220000B46FB707B68DB6823F0C0427B68DA607A
:10423000FB78012B06D17B68DB6843F000527B687A
:10424000DA6008E0FB78002B05D17B68DB6843F07F
:1042500080427B68DA60322006F0BEFE00231846FA
:104260000837BD4680BD00BF84B080B584B000AFC4
:10427000786007F11C0080E80E000023FB607B687B
:104280009B6B43F400227B689A633B6C002B05D147
:104290007B689B6B43F400127B689A637B6803F531
:1042A00060631A46002313607B6803F500631A46B7
:1042B0007B6803F500631B6813603B6B012B0CD11B
:1042C0007B6A002B04D17868002100F041F908E0F6
:1042D0007868012100F03CF903E07868032100F0E0
:1042E00037F97868102100F0EBF8786800F00EF9E3
:1042F0007B6803F500631A46002313617B6803F5AE
:1043000000631A46002353617B6803F500631A4675
:104310004FF0FF3393617B6803F500631A46002377
:10432000D3610023FB6031E0FB685A017B681344D2
:1043300003F510631B68002B0ADAFB685A017B68DF
:10434000134403F510631A464FF09043136008E0DE
:10435000FB685A017B68134403F510631A46002377
:104360001360FB685A017B68134403F510631A4617
:1043700000231361FB685A017B68134403F5106343
:104380001A46FF239360FB680133FB60FA69FB6800
:104390009A42C9D80023FB6031E0FB685A017B6870
:1043A000134403F530631B68002B0ADAFB685A01DB
:1043B0007B68134403F530631A464FF09043136053
:1043C00008E0FB685A017B68134403F530631A4622
:1043D00000231360FB685A017B68134403F53063C4
:1043E0001A4600231361FB685A017B68134403F5E6
:1043F00030631A46FF239360FB680133FB60FA6960
:10440000FB689A42C9D87B6803F500631A467B684B
:1044100003F500631B6923F480731361BB6A012BEE
:1044200017D17B6803F500631A46234B13637B683F
:1044300003F500631A467B6803F500631B6B43F4C6
:10444000803343F0030313637B6803F500631B6B46
:10445000FB607B6800229A617B686FF080425A6142
:10446000BB6A002B05D17B689B6943F010027B6817
:104470009A617B689A69114B13437A6893617B6BED
:10448000002B05D07B689B6943F008027B689A612A
:104490003B6C012B07D17B689B6943F0804343F061
:1044A00004037A689361002318461037BD46BDE8BF
:1044B000804004B0704700BF0001800000383C809D
:1044C00080B485B000AF786039600023FB603B6842
:1044D0009B0143F020027B681A61FB680133FB609B
:1044E000FB68094A934201D9032306E07B681B69F4
:1044F00003F02003002BF0D1002318461437BD46EB
:104500005DF8047B704700BF400D030080B485B0A8
:1045100000AF78600023FB607B6810221A61FB68A3
:104520000133FB60FB68094A934201D9032306E08B
:104530007B681B6903F01003002BF0D100231846A1
:104540001437BD465DF8047B704700BF400D030083
:1045500080B483B000AF78600B46FB707B6803F5D6
:10456000006319467B6803F500631A68FB78134300
:104570000B60002318460C37BD465DF8047B70477E
:1045800080B485B000AF78600023FB737B6803F5CF
:1045900000639B6803F00603002B02D10023FB732A
:1045A0001CE07B6803F500639B6803F00603022BA5
:1045B00007D07B6803F500639B6803F00603062BB6
:1045C00002D10323FB7309E07B6803F500639B685A
:1045D00003F00603042B01D10223FB73FB7B184677
:1045E0001437BD465DF8047B704700BF80B483B0CC
:1045F00000AF786039603B685B78012B3ED17B6807
:1046000003F5006319467B6803F50063DA693B68CC
:104610001B781846012383409BB21343CB613B6850
:104620001B785A017B68134403F510631B6803F47D
:104630000043002B5CD13B681B785A017B68134414
:1046400003F5106318463B681B785A017B681344D6
:1046500003F510631A683B689B68C3F30A03396863
:10466000C97889040B433968097889050B431343DA
:1046700043F0805343F40043036039E07B6803F563
:10468000006319467B6803F50063DB693A681278BA
:1046900010460122824012041343CB613B681B7811
:1046A0005A017B68134403F530631B6803F400432D
:1046B000002B1DD13B681B785A017B68134403F51E
:1046C000306318463B681B785A017B68134403F536
:1046D00030631A683B689B68C3F30A033968C9787A
:1046E00089040B43134343F0805343F400430360B6
:1046F000002318460C37BD465DF8047B704700BFA9
:1047000080B483B000AF786039603B685B78012B80
:1047100035D17B6803F5006319467B6803F50063B8
:10472000DA6B3B681B781846012383409BB2DB435E
:104730001340CB637B6803F5006319467B6803F580
:104740000063DA693B681B781846012383409BB2FB
:10475000DB431340CB613B681B785A017B681344F1
:1047600003F5106319463B681B785A017B681344B4
:1047700003F510631B6823F400430B6034E07B688F
:1047800003F5006319467B6803F50063DA6B3B6849
:104790001B781846012383401B04DB431340CB6383
:1047A0007B6803F5006319467B6803F50063DA69EB
:1047B0003B681B781846012383401B04DB431340EE
:1047C000CB613B681B785A017B68134403F5306367
:1047D00019463B681B785A017B68134403F5306324
:1047E0001B6823F400430B60002318460C37BD46BA
:1047F0005DF8047B704700BF90B589B002AFF860E8
:10480000B9601346FB710023FB82BB685B78012B08
:1048100040F04681BB685B69002B3BD1BB681B78CD
:104820005A01FB68134403F510631946BB681B78F3
:104830005A01FB68134403F510631B6923F0FF530F
:1048400023F4C0130B61BB681B785A01FB68134447
:1048500003F510631946BB681B785A01FB681344C3
:1048600003F510631B6943F400230B61BB681B78DD
:104870005A01FB68134403F510631946BB681B78A3
:104880005A01FB68134403F510631B69DB0CDB045E
:104890000B6186E0BB681B785A01FB68134403F583
:1048A00010631946BB681B785A01FB68134403F573
:1048B00010631B69DB0CDB040B61BB681B785A01BE
:1048C000FB68134403F510631946BB681B785A0153
:1048D000FB68134403F510631B6923F0FF5323F4B3
:1048E000C0130B61BB681B785A01FB68134403F5C6
:1048F00010631846BB681B785A01FB68134403F524
:1049000010631A69BB685969BB689B680B44591EE0
:10491000BB689B68B1FBF3F3D9048C4B0B4013438A
:104920000361BB681B785A01FB68134403F51063ED
:104930001946BB681B785A01FB68134403F51063E2
:104940001A69BB685B69C3F3120313430B61BB684D
:10495000DB78012B25D1BB681B785A01FB68134417
:1049600003F510631946BB681B785A01FB681344B2
:1049700003F510631B6923F0C0430B61BB681B7810
:104980005A01FB68134403F510631946BB681B7892
:104990005A01FB68134403F510631B6943F000538D
:1049A0000B61FB79012B0BD1BB681B785A01FB68AB
:1049B000134403F510631A46BB681B69536116E084
:1049C000BB68DB78012B12D0BB685B69002B0ED073
:1049D000FB6803F500631946FB6803F500635B6B36
:1049E000BA68127810460122824013434B63BB68B9
:1049F000DB78012B2ED1FB6803F500639B6803F481
:104A00008073002B13D1BB681B785A01FB681344D9
:104A100003F510631946BB681B785A01FB68134401
:104A200003F510631B6843F000530B6012E0BB6892
:104A30001B785A01FB68134403F510631946BB68E1
:104A40001B785A01FB68134403F510631B6843F09D
:104A500080530B60BB681B785A01FB68134403F555
:104A600010631946BB681B785A01FB68134403F5B1
:104A700010631B6843F004430B60BB68DB78012BB9
:104A800040F0F580BB68D968BB681A78BB685B6981
:104A90009CB2FB790093F868234600F04DFAE6E0FB
:104AA000BB681B785A01FB68134403F53063194651
:104AB000BB681B785A01FB68134403F530631B691C
:104AC000DB0CDB040B61BB681B785A01FB681344E9
:104AD00003F530631946BB681B785A01FB68134421
:104AE00003F530631B6923F0FF5323F4C0130B61FC
:104AF000BB685B69002B2BD1BB681B785A01FB6834
:104B0000134403F530631946BB681B785A01FB68F0
:104B1000134403F530631A69BB689B68C3F312033F
:104B200013430B61BB681B785A01FB68134403F500
:104B300030631946BB681B785A01FB68134403F5C0
:104B400030631B6943F400230B613CE00000F81F55
:104B5000BB685A69BB689B6813445A1EBB689B6854
:104B6000B2FBF3F3FB82BB681B785A01FB6813446A
:104B700003F530631946BB681B785A01FB68134480
:104B800003F530631A69FB8ADB0418463A4B03408D
:104B900013430B61BB681B785A01FB68134403F590
:104BA00030631846BB681B785A01FB68134403F551
:104BB00030631A69BB689B68F98A01FB03F3C3F38E
:104BC000120313430361FB79012B0AD1BB681B78E5
:104BD0005A01FB68134403F530631A46BB68DB686F
:104BE0005361BB68DB78012B2ED1FB6803F50063B2
:104BF0009B6803F48073002B13D1BB681B785A01A8
:104C0000FB68134403F530631946BB681B785A01EF
:104C1000FB68134403F530631B6843F000530B60DB
:104C200012E0BB681B785A01FB68134403F530633C
:104C30001946BB681B785A01FB68134403F53063BF
:104C40001B6843F080530B60BB681B785A01FB68FC
:104C5000134403F530631946BB681B785A01FB689F
:104C6000134403F530631B6843F004430B600023D7
:104C700018461C37BD4690BD0000F81F80B485B0B3
:104C800000AFF860B9601346FB71BB685B78012B1D
:104C900040F0D180BB685B69002B3BD1BB681B78BF
:104CA0005A01FB68134403F510631946BB681B786F
:104CB0005A01FB68134403F510631B6923F0FF538B
:104CC00023F4C0130B61BB681B785A01FB681344C3
:104CD00003F510631946BB681B785A01FB6813443F
:104CE00003F510631B6943F400230B61BB681B7859
:104CF0005A01FB68134403F510631946BB681B781F
:104D00005A01FB68134403F510631B69DB0CDB04D9
:104D10000B615AE0BB681B785A01FB68134403F52A
:104D200010631946BB681B785A01FB68134403F5EE
:104D300010631B69DB0CDB040B61BB681B785A0139
:104D4000FB68134403F510631946BB681B785A01CE
:104D5000FB68134403F510631B6923F0FF5323F42E
:104D6000C0130B61BB685A69BB689B689A4203D940
:104D7000BB689A68BB685A61BB681B785A01FB68BC
:104D8000134403F510631946BB681B785A01FB688E
:104D9000134403F510631B6943F400230B61BB68E4
:104DA0001B785A01FB68134403F510631946BB686E
:104DB0001B785A01FB68134403F510631A69BB683A
:104DC0005B69C3F3120313430B61FB79012B0BD116
:104DD000BB681B785A01FB68134403F510631A463D
:104DE000BB681B69536112E0BB685B69002B0ED086
:104DF000FB6803F500631946FB6803F500635B6B12
:104E0000BA68127810460122824013434B63BB6894
:104E10001B785A01FB68134403F510631946BB68FD
:104E20001B785A01FB68134403F510631B6843F0B9
:104E300004430B6079E0BB681B785A01FB6813449C
:104E400003F530631946BB681B785A01FB681344AD
:104E500003F530631B69DB0CDB040B61BB681B785B
:104E60005A01FB68134403F530631946BB681B788D
:104E70005A01FB68134403F530631B6923F0FF53A9
:104E800023F4C0130B61BB685B69002B03D0BB68C4
:104E90009A68BB685A61BB681B785A01FB68134467
:104EA00003F530631946BB681B785A01FB6813444D
:104EB00003F530631B6943F400230B61BB681B7867
:104EC0005A01FB68134403F530631946BB681B782D
:104ED0005A01FB68134403F530631A69BB689B6889
:104EE000C3F3120313430B61FB79012B0AD1BB6897
:104EF0001B785A01FB68134403F530631A46BB68FC
:104F0000DB685361BB681B785A01FB68134403F5E7
:104F100030631946BB681B785A01FB68134403F5DC
:104F200030631B6843F004430B60002318461437BA
:104F3000BD465DF8047B704780B487B000AFF86071
:104F4000B96011461A460B46FB711346BB8000231D
:104F50003B6100237B6197F82030002B1DD1BB887B
:104F60000333002B00DA03339B103B6100237B618A
:104F70000FE0FB791A03FB68134403F580531A46CC
:104F8000BB681B6813607B6901337B61BB680433BA
:104F9000BB607A693B699A42EBD3002318461C3701
:104FA000BD465DF8047B704780B487B000AFF86001
:104FB000B9601346FB8000237B61FB880333002B21
:104FC00000DA03339B103B6100237B610BE0FB683D
:104FD00003F580531A68BB681A607B6901337B61F3
:104FE000BB680433BB607A693B699A42EFD3BB6804
:104FF00018461C37BD465DF8047B704780B483B00B
:1050000000AF786039603B685B78012B30D13B683A
:105010001B785A017B68134403F510631B68002B4F
:1050200012DB3B681B785A017B68134403F510635D
:1050300019463B681B785A017B68134403F51063DB
:105040001B6823F080430B603B681B785A017B6828
:10505000134403F5106319463B681B785A017B68BB
:10506000134403F510631B6843F400130B602FE037
:105070003B681B785A017B68134403F530631B6857
:10508000002B12DB3B681B785A017B68134403F545
:10509000306319463B681B785A017B68134403F55B
:1050A00030631B6823F080430B603B681B785A0118
:1050B0007B68134403F5306319463B681B785A013B
:1050C0007B68134403F530631B6843F400130B60E3
:1050D000002318460C37BD465DF8047B704700BFBF
:1050E00080B483B000AF786039603B685B78012B97
:1050F0002ED13B681B785A017B68134403F510637B
:1051000019463B681B785A017B68134403F510630A
:105110001B6823F400130B603B68DB78032B03D080
:105120003B68DB78022B41D13B681B785A017B68D6
:10513000134403F5106319463B681B785A017B68DA
:10514000134403F510631B6843F080530B602DE09C
:105150003B681B785A017B68134403F5306319469A
:105160003B681B785A017B68134403F530631B6866
:1051700023F400130B603B68DB78032B03D03B6800
:10518000DB78022B12D13B681B785A017B681344F1
:1051900003F5306319463B681B785A017B6813445A
:1051A00003F530631B6843F080530B6000231846FF
:1051B0000C37BD465DF8047B704700BF80B584B0F6
:1051C00000AF78600023FB6014E0FB685A017B6845
:1051D000134403F510631A46FF239360FB685A01DA
:1051E0007B68134403F530631A46FF239360FB6822
:1051F0000133FB60FB680E2BE7D97B6803F5006386
:105200001A464FF0FF3393617B6803F500631A463B
:10521000002313617B6803F500631A460023536182
:105220007B6803F500631A460023D3617868FFF7B3
:105230006DF978681021FFF743F9002318461037FD
:10524000BD4680BD80B483B000AF78600B46FB7074
:105250007B6803F500631A467B6803F500631B68EF
:1052600023F4FE6313607B6803F5006319467B68D3
:1052700003F500631A68FB781B0103F4FE63134314
:105280000B60002318460C37BD465DF8047B704761
:1052900080B582B000AF78607B6803F500631A4682
:1052A0007B6803F500635B6823F00203536003200F
:1052B00005F092FE002318460837BD4680BD00BFAA
:1052C00080B582B000AF78607B6803F500631A4652
:1052D0007B6803F500635B6843F0020353600320BF
:1052E00005F07AFE002318460837BD4680BD00BF92
:1052F00080B485B000AF78600023FB607B685B6999
:10530000FB607B689B69FA681340FB60FB6818468A
:105310001437BD465DF8047B704700BF80B485B08C
:1053200000AF78607B6803F500639B69FB607B6876
:1053300003F50063DB69FA681340FB60FB681B0C34
:1053400018461437BD465DF8047B704780B485B0BD
:1053500000AF78607B6803F500639B69FB607B6846
:1053600003F50063DB69FA681340FB60FB689BB2DE
:1053700018461437BD465DF8047B704780B485B08D
:1053800000AF78600B46FB70FB785A017B681344D2
:1053900003F530639B68FB607B6803F500635B6922
:1053A000FA681340FB60FB6818461437BD465DF889
:1053B000047B704780B487B000AF78600B46FB7009
:1053C0007B6803F500631B697B617B6803F5006301
:1053D0005B6B3B61FB783A6922FA03F3DB01DBB2DA
:1053E0007A6913437B61FB785A017B68134403F5A8
:1053F00010639A687B691340FB60FB6818461C3792
:10540000BD465DF8047B704780B483B000AF786020
:105410007B685B6903F0010318460C37BD465DF8F5
:10542000047B704780B483B000AF78607B6803F57D
:1054300010631A467B6803F510631B6823F4FF634F
:1054400023F0070313607B6803F500639B6803F098
:105450000603042B0AD17B6803F510631A467B68A8
:1054600003F510631B6843F0030313607B6803F5C7
:1054700000631A467B6803F500635B6843F480733E
:105480005360002318460C37BD465DF8047B704717
:1054900080B485B000AFF8600B467A60FB72FB68A1
:1054A00003F530631A4600231361FB6803F530638C
:1054B0001A46FB6803F530631B6943F4002313614C
:1054C000FB6803F530631A46FB6803F530631B691C
:1054D00043F018031361FB6803F530631A46FB6859
:1054E00003F530631B6943F0C0431361FB7A012B62
:1054F0000CD1FB6803F530631A467B685361FB6887
:1055000003F530631A464FF08023136000231846DA
:105510001437BD465DF8047B704700BF80B485B08A
:1055200000AF78600023FB60FB680133FB60FB6821
:10553000134A934201D903231BE07B681B69002BAC
:10554000F2DA0023FB607B681B6943F001027B6891
:105550001A61FB680133FB60FB68094A934201D979
:10556000032306E07B681B6903F00103002BF0D1E5
:10557000002318461437BD465DF8047B704700BF12
:10558000400D030080B582B000AF78607B68002BCF
:1055900001D1012357E07B6893F85130DBB2002B37
:1055A00006D17B68002283F850207868FCF71AFA4D
:1055B0007B68022283F851207B681B687A68126836
:1055C000126822F040021A607B681B687A68516892
:1055D0007A68926811437A68D26811437A681269CE
:1055E00011437A68526911437A68926902F4007231
:1055F00011437A68D26911437A68126A11437A6852
:10560000926A0A431A607B681B687A689269120C76
:1056100002F004017A68526A0A435A607B681B6888
:105620007A68D26A1A617B681B687A681268D269E4
:1056300022F40062DA617B6800225A657B680122ED
:1056400083F85120002318460837BD4680BD00BFAF
:1056500090B587B000AFF860B9607A607B800023B6
:105660007B61FB6893F85130DBB27B617B69012B76
:105670000ED0FB685B68B3F5827F40F0CA80FB68A0
:105680009B68002B40F0C5807B69222B40F0C180D5
:10569000BB68002B05D07B68002B02D07B88002BD9
:1056A00001D10123B6E0FB6893F85030012B01D102
:1056B0000223AFE0FB68012283F85020FB6893F8D7
:1056C0005130DBB2222B03D0FB68322283F8512009
:1056D000FB6800225A65FB68BA681A63FB687A881F
:1056E0009A86FB687A88DA86FB687A689A63FB6830
:1056F0007A889A87FB687A88DA87FB6800229A643E
:10570000FB680022DA64FB689B6AB3F5005F0FD187
:10571000FB681B68FA681268126822F400521A606B
:10572000FB681B68FA681268126842F400521A603B
:10573000FB6893F85130DBB2222B08D1FB685B6C1D
:10574000364A1A64FB685B6C354ADA6307E0FB682B
:105750005B6C344A1A64FB685B6C334ADA63FB683F
:105760005B6C324A9A64FB685A6CFB681B680C33AA
:105770001946FB689B6B1C46FB68DB8F1046224674
:1057800002F0CAF8FB681B68FA681268526842F0B7
:1057900001025A60FB681B6C0022DA63FB6893F815
:1057A0005130DBB2322B04D1FB681B6C1F4A9A6468
:1057B00003E0FB681B6C00229A64FB681A6CFB68B0
:1057C0001B6B1946FB681B680C331C46FB68DB8EA1
:1057D0001046224602F0A0F8FB68002283F8502011
:1057E000FB681B681B6803F04003002B07D1FB68B4
:1057F0001B68FA681268126842F040021A60FB687F
:105800001B68FA681268526842F002025A6000236C
:1058100000E0022318461C37BD4690BD955A00088B
:1058200059580008B15A0008455A0008CD5A0008D6
:1058300080B483B000AF78600C37BD465DF8047B60
:10584000704700BF80B483B000AF78600C37BD46AE
:105850005DF8047B704700BF80B584B000AF78600E
:105860007B689B6BFB607B681B681B6803F4807321
:10587000002B79D1FB689B68002B08D1FB685B6823
:10588000B3F5827F03D1F86800F074F85CE0FB6840
:105890005B68B3F5827F11D1FB689B68B3F5004F5D
:1058A00004D0FB689B68B3F5806F07D1FB681B6869
:1058B000FA681268126822F040021A60FB681B68DE
:1058C000FA681268526822F001025A60FB680022EE
:1058D000DA87FB689B6AB3F5005F35D1F868012170
:1058E00000220A2300F010F90346002B05D0FB68C4
:1058F0005B6D43F02002FB685A65FB681B68DB6840
:105900009BB27B817B89F868012101220A2300F088
:10591000FBF80346002B05D0FB685B6D43F02002CB
:10592000FB685A65FB681B689B6803F01003002B3B
:105930000AD0FB685B6D43F00202FB685A65FB68A6
:105940001B686FF010029A60FB68012283F85120F7
:10595000FB685B6D002B03D0F868FBF789FC06E061
:10596000F868FBF769FC02E0F868FBF765FC1037A4
:10597000BD4680BD80B584B000AF78607B689B6A0F
:10598000B3F5005F26D17868012100220A2300F0D8
:10599000BBF80346002B05D07B685B6D43F020020B
:1059A0007B685A657B681B68DB689BB2FB81FB895F
:1059B0007B681B689B6803F01003002B0AD07B6890
:1059C0005B6D43F002027B685A657B681B686FF071
:1059D00010029A607868022100220A2300F094F8ED
:1059E0000346002B05D07B685B6D43F020027B688B
:1059F0005A657B681B687A681268526822F0020256
:105A00005A607868802101220A2300F07DF803465D
:105A1000002B05D07B685B6D43F020027B685A65E4
:105A20007B681B687A681268526822F001025A602B
:105A30007B680022DA867B680022DA871037BD4651
:105A400080BD00BF80B584B000AF78607B689B6B81
:105A5000FB607B681B681B6803F48073002B12D10A
:105A6000F868FFF787FFFB68012283F85120FB6885
:105A70005B6D002B03D0F868FBF7FAFB06E0F868D3
:105A8000FBF776F902E0F868FBF772F91037BD46CC
:105A900080BD00BF80B584B000AF78607B689B6B31
:105AA000FB60F868FFF7C4FE1037BD4680BD00BF3D
:105AB00080B584B000AF78607B689B6BFB60F86852
:105AC000FFF7C0FE1037BD4680BD00BF80B584B073
:105AD00000AF78607B689B6BFB60FB680022DA8616
