:020000040800F2
:1000000000C00120F53600084137000841370008DC
:100010004137000841370008413700080000000060
:100020000000000000000000000000004137000850
:100030004137000800000000413700080D070008A4
:1000400041370008413700084137000841370008B0
:1000500041370008413700084137000841370008A0
:100060004137000841370008413700084137000890
:100070004137000841370008413700084137000880
:100080004137000841370008413700084137000870
:100090004137000841370008413700084137000860
:1000A0004137000841370008413700084137000850
:1000B0004137000841370008413700084137000840
:1000C0004137000841370008413700084137000830
:1000D0004137000841370008413700084137000820
:1000E0004137000841370008413700084137000810
:1000F0004137000841370008413700084137000800
:1001000041370008413700084137000841370008EF
:1001100041370008413700084137000841370008DF
:1001200041370008413700084137000841370008CF
:1001300041370008000000000000000041370008BF
:10014000413700084137000841370008ED06000834
:10015000413700084137000841370008413700089F
:10016000413700084137000841370008413700088F
:10017000413700084137000800000000000000007F
:10018000413700084137000808B1022070470020BD
:10019000704700BF30B94FF480330B604FF40073E9
:1001A000138070470220704708B10220704700207A
:1001B000704700BF08B1022070470020704700BFA1
:1001C00090B910B400240BE0002041F8040B043275
:1001D00092B200E00022B2F5007FF5D30134A4B260
:1001E0009C42F7D3002002E0FF2040B2704740B2AB
:1001F0005DF8044B704700BF08B1FF2000E000200D
:1002000040B270470020704712230B8000487047AF
:100210004000002004230B80004870473C00002071
:1002200010B50A46034C0448214600F04DFD204617
:1002300010BD00BF74010020F838000810B50A4650
:10024000034C0448214600F03FFD204610BD00BF8E
:10025000740100200C39000808B50A4620B9054889
:10026000054900F031FD03E00248034900F02CFD90
:10027000014808BD203900087401002008B50A466D
:1002800020B90548054900F01FFD03E00248034975
:1002900000F01AFD014808BD303900087401002043
:1002A00008B50A4620B90548054900F00DFD03E0F0
:1002B0000248034900F008FD014808BD3C39000828
:1002C000740100200368B3F1A04F22D130B587B08C
:1002D000104B5A6B42F080025A635A6C42F48042CF
:1002E0005A644FF4C05301930223029300240394F1
:1002F00004940A250595084801A903F041F8432014
:100300002946224603F044F9432003F073F907B06D
:1003100030BD7047003802400000024008B5014679
:10032000D0F8AC0301F55F7100F024FD08BD00BFFB
:1003300008B5C1EBC1039B000344D0F8AC03D3F86C
:10034000E02100F045FD08BD08B5C1EBC1039B00ED
:100350000344D0F8AC03DA6B00F06AFD08BD00BFBF
:1003600008B5D0F8AC0300F0DDFD08BD10B50446BB
:10037000C3680BB9002100E00121D4F8AC0300F000
:10038000BDFDD4F8AC0300F099FD10BD10B50446D6
:10039000D0F8AC0300F0B6FD2268D2F8003E43F07E
:1003A0000103C2F8003E10BD08B50268D2F8003E55
:1003B00023F00103C2F8003ED0F8AC0300F0ACFD1E
:1003C00008BD00BF08B5D0F8AC0300F0B9FD08BD0A
:1003D00008B5D0F8AC0300F0B1FD08BD08B5D0F801
:1003E000AC0300F0AFFD08BD08B5D0F8AC0300F0D9
:1003F000ABFD08BD38B503782BBB144CC4F8AC0377
:10040000C0F820424FF0A04323600723636002231B
:10041000E360002525616561A361E5612562656290
:10042000A562E562204602F09FFB2046802102F093
:1004300039FB20462946402202F010FB20460121CC
:10044000802202F00BFB002038BD00BF74030020A7
:1004500008B5D0F8200202F0F5FB002008BD00BF6F
:1004600010B51446D0F820021A46234602F03AFE90
:10047000002010BD08B5D0F8200202F067FE002071
:1004800008BD00BF08B5D0F8200202F05DFF0020D3
:1004900008BD00BF08B5D0F8200202F0F7FE00202A
:1004A00008BD00BF08B5D0F8200202F021FF0020EF
:1004B00008BD00BFD0F8202211F0800F08D001F055
:1004C0007F03C3EBC3039B00134493F832007047D0
:1004D00001F07F01C1EBC1018900114491F8D601FF
:1004E000704700BF08B5D0F8200202F0E9FD0020F7
:1004F00008BD00BF08B5D0F8200202F093FE00202E
:1005000008BD00BF08B5D0F8200202F04BFE002065
:1005100008BD00BF08B5D0F8200202F079FE08BD82
:1005200010B5094C20460949002200F0EBFB20469B
:10053000074900F0FBFB2046064901F061FA20461E
:1005400000F0FCFB10BD00BF2407002020000020AD
:10055000A000002000000020F0B587B0224B1A6BED
:1005600042F001021A631A6B42F002021A631A6B1C
:1005700042F004021A631A6B42F008021A6341F651
:10058000FF730193002502950127039704950595B4
:10059000164801A902F0F4FE4FF6E77301931448E0
:1005A00001A902F0EDFE4FF6FF730193114C2046B6
:1005B00001A902F0E5FE104801A902F0E1FE1023B6
:1005C000019303230293204601A902F0D9FE4FF4C0
:1005D0008056019602970395204601A902F0D0FEAD
:1005E000A66107B0F0BD00BF003802400000024025
:1005F0000004024000080240000C024008B5044814
:10060000044B03600023437102F0A0FF08BD00BF4C
:10061000480900200030024008B50D480D4B03602A
:10062000002380F851304FF4827242608360C360CF
:10063000036143614FF480228261C36103624362BC
:100640004FF4005383620723C36201F0C1FE08BD6B
:10065000500900200030014000B593B01B4A136CD4
:1006600043F080531364A2F5E432136823F440434B
:1006700043F40043136001230693079302230C9372
:100680004FF480030D9308230E934FF4A8730F9338
:10069000042310930723119306A801F0D9FE00B19B
:1006A000FEE70D23019302210291002303934FF4EF
:1006B000A05304934FF48053059301A802F050F81F
:1006C00000B1FEE713B05DF804FB00BF0038024044
:1006D00008B502F0B9FFFFF7BFFFFFF73DFFFFF7D7
:1006E0008DFFFFF799FFFFF71BFFFEE710B5054CE5
:1006F0004FF08053A361044802F0BAFA4FF48053DC
:10070000A36110BD000802407403002008B502F088
:10071000B5FF08BD08B54FF0FF300221002202F0FE
:1007200037FF08BD0268044B9A4204D1034A136B99
:1007300043F4805313637047003002400038024096
:1007400002680D4B9A4216D100B587B00B4A536C24
:1007500043F480535364F0230193022302930393E1
:100760000123049305230593054801A902F008FE1F
:1007700007B05DF804FB70470030014000380240CC
:100780000000024038B50D4613460222C0F8F4219D
:100790008361C36100212A46FFF7ACFE002038BD0B
:1007A00010B50C46134600212246FFF7A3FE002099
:1007B00010BD00BF10B50C46134600212246FFF7BE
:1007C000A1FE002010BD00BF08B50423C0F8F4311D
:1007D00000210A460B46FFF78DFE002008BD00BF32
:1007E00008B50523C0F8F43100210A460B46FFF78F
:1007F00089FE002008BD00BF0346002002E0013052
:10080000C0B201331A78002AF9D170474B88012B06
:100810000BD110B50446C0F80432D0F814329B68EE
:1008200098472046FFF7D0FF10BD70470B78037044
:100830004B7843708B78CA7803EB022343800B79A3
:100840004A7903EB022383808B79CA7903EB022375
:10085000C380704710B504468021FFF71BFE204679
:100860000021FFF717FE10BD30B583B004460D46DA
:100870004A88130A013B062B00F28580DFE803F06B
:10088000040D238383657300D0F810321B68007C4D
:100890000DF106019847014679E0037C4BB9D0F889
:1008A00014329B6A0DF106009847014602234370FB
:1008B0006DE0D0F81432DB6A0DF10600984701466E
:1008C0000223437063E0D2B2052A3AD8DFE802F08F
:1008D000030C151E2730D0F810325B68007C0DF138
:1008E00006019847014652E0D0F810329B68007C20
:1008F0000DF106019847014649E0D0F81032DB6857
:10090000007C0DF106019847014640E0D0F8103216
:100910001B69007C0DF106019847014637E0D0F8CD
:1009200010325B69007C0DF10601984701462EE00C
:10093000D0F810329B69007C0DF106019847014602
:1009400025E02946FFF786FF2EE0037C3BB9D0F86F
:1009500014325B6B0DF106009847014617E02946FB
:10096000FFF778FF20E0037C4BB9D0F814321B6B03
:100970000DF10600984701460723437007E029461A
:10098000FFF768FF10E02946FFF764FF0CE0BDF8B1
:1009900006304BB1EA883AB19A4228BF1A46ADF800
:1009A00006202046FFF7EEFE03B030BD38B5044602
:1009B0008B88E3B9CB88D3B98D7805F07F0590F8A3
:1009C000FC31032B02D1FFF745FF38BD80F8FE5103
:1009D0002946FFF787FD2046FFF7F6FE1DB10223EB
:1009E00084F8FC3138BD012384F8FC3138BD204641
:1009F000FFF730FF38BD00BF38B504460D46897893
:100A0000264B1970012903D92946FFF723FF38BD6A
:100A100090F8FC31022B02D0032B15D039E081B1C4
:100A20004160032380F8FC3100F08EF9022804D1E4
:100A300020462946FFF70EFF38BD2046FFF7C4FECB
:100A400038BDFFF7C1FE38BD49B9022380F8FC313B
:100A5000416000F087F92046FFF7B6FE38BD4368D5
:100A6000994213D0D9B200F07DF90C4B197861602E
:100A7000204600F069F9022804D120462946FFF7F4
:100A8000E9FE38BD2046FFF79FFE38BDFFF79CFE0C
:100A900038BD2946FFF7DEFE38BD00BF60010020EB
:100AA00008B50346CA88012A02D0FFF7D3FE08BD65
:100AB00090F8FC21022A02D0032A08D00CE001465B
:100AC000002241F8082F0122FFF75CFE08BD191D26
:100AD0000122FFF757FE08BDFFF7BCFE08BD00BFAF
:100AE00008B5034690F8FC21023A012A0DD80122EC
:100AF000C260D0F804220AB10322C260184603F192
:100B00000C010222FFF73EFE08BDFFF7A3FE08BD61
:100B100010B5044690F8FC31023B012B0DD84B88F0
:100B2000012B0CD10023C0F80432D0F814329B689A
:100B300098472046FFF748FE10BDFFF78BFE10BD1B
:100B400008B54B78092B1BD8DFE803F011171A14EE
:100B50001A08051A0E0BFFF787FE13E0FFF726FFB2
:100B600010E0FFF749FF0DE0FFF79AFF0AE0FFF7FB
:100B7000B7FF07E0FFF74AFE04E0FFF7C9FF01E017
:100B8000FFF768FE002008BD38B504460D4690F812
:100B9000FC31032B0FD10B79012B09D8D0F814327B
:100BA0009B689847EB8843B92046FFF70DFE04E0A9
:100BB000FFF750FE01E0FFF74DFE002038BD00BFFB
:100BC00038B505460C468A88D1B26378012B26D009
:100BD000002B48D0032B74D190F8FC31022B02D0AB
:100BE000032B07D017E000296BD0802969D0FFF7CD
:100BF00051FC66E0638823B919B1802901D0FFF761
:100C000049FCD5F814329B68284621469847284667
:100C1000FFF7DAFD55E02146FFF71CFE51E090F8A2
:100C2000FC31022B02D0032B07D018E0002948D05A
:100C3000802946D0FFF72EFC43E06388002B40D18B
:100C400011F07F0F07D0FFF72DFCD5F814329B6809
:100C50002846214698472846FFF7B6FD31E0214651
:100C6000FFF7F8FD2DE090F8FC31022B02D0032BAA
:100C700006D023E011F07F0F23D0FFF70BFC20E01C
:100C800012F0800F05D001F07F0400EB041414343F
:100C900005E001F07F0400EB041404F5827428469B
:100CA000FFF708FC10B10123236001E0002323605B
:100CB000284621460222FFF765FD02E02146FFF7A4
:100CC000C9FD002038BD00BFD0B170B50D46164635
:100CD0000446FFF791FD0130400080B2308028705B
:100CE00003236B70022307E05A1CD2B20134E9548B
:100CF000531CDBB20021A95421780029F4D170BD26
:100D0000704700BF80B108B503460020C3F8140245
:100D100009B1C3F81012012183F8FC111A701846AA
:100D2000FFF768FB002008BD0220704719B1C0F82A
:100D30001412002070470220704700BF08B5FFF76B
:100D400087FB002008BD00BF08B5D0F8143223B1DE
:100D50001B68984718B1022008BD022008BD00207A
:100D600008BD00BF08B5D0F814325B689847002072
:100D700008BD00BF38B5044600F502752846FFF7E8
:100D800055FD0123C4F8F431B4F80E32C4F8F8313B
:100D900094F8081201F01F03012B08D013B1022BA5
:100DA0000AD00EE020462946FFF7CAFE0EE0204694
:100DB0002946FFF7E9FE09E020462946FFF700FF34
:100DC00004E0204601F08001FFF764FB002038BDFD
:100DD00038B5044609BBD0F8F431032B26D1D0F83E
:100DE0000C31D0F810118B420AD95B1AC0F80C31C3
:100DF0008B4228BF0B4611469AB2FFF7DBFC15E089
:100E0000D0F814321B6923B190F8FC21032A00D1D9
:100E100098472046FFF7D8FC08E0D0F814329B69C9
:100E200023B190F8FC21032A00D19847002038BD57
:100E300038B50446B9BBD0F8F431022B2BD1C169C7
:100E4000036A994206D9CB1AC36111469AB2FFF7D9
:100E5000A7FC20E08169B1FBF3F203FB12126AB92F
:100E60008B420BD8D0F8F831994207D200210A46BC
:100E7000FFF796FC0023C4F8F8310CE0D4F81432E4
:100E8000DB682BB194F8FC21032A01D12046984756
:100E90002046FFF7A5FC94F80032012B0CD100236B
:100EA00084F8003208E0D0F814325B6923B190F87E
:100EB000FC21032A00D19847002038BD38B50446EC
:100EC00000210A464023FFF7CBFA4025C4F8105111
:100ED0002046802100222B46FFF7C2FA256201231B
:100EE00084F8FC31D4F818322BB1D4F814325B6892
:100EF000204621799847002038BD00BF01740020AA
:100F0000704700BF90F8FC3180F8FD31042380F871
:100F1000FC310020704700BF90F8FD3180F8FC31B3
:100F20000020704708B590F8FC31032B04D1D0F8AD
:100F30001432DB6903B19847002008BD00207047D8
:100F4000002070470020704708B5012280F8FC217E
:100F5000D0F81422526801799047002008BD00BFE4
:100F600010B4D0F81842537813F0010F0DD1D0F817
:100F70001C32D86901EBC1018900084401790531AF
:100F800013798B4203D90B4601E00723064863819E
:100F900004E0013B9BB2C15CE2181173002BF8D155
:100FA00000205DF8044B70474C390008D0F8180257
:100FB0000823438105E0013B9BB2044AD15CC2187F
:100FC0001173002BF7D10020704700BF5C39000877
:100FD000D0F818020823438105E0013B9BB2044A84
:100FE000D15CC2181173002BF7D10020704700BFED
:100FF0005439000810B4D0F81842002304E0E11876
:10100000002008730133DBB2112BF8D9702323734E
:101010000C23E37494F85C3294F85D128B4212D086
:1010200003F1470104EBC1010879A073487A2076E7
:10103000097A61760133DBB284F85C32042B02D189
:10104000002384F85C32122363811379122B00D8B9
:10105000638100205DF8044B704700BFD0F8183260
:1010600000205881704700BF10B4D0F8184294F89F
:101070005D1201F1470004EBC00002711B028360A6
:101080000131C9B284F85D12042902D1002384F829
:101090005D325DF8044B704770B50446D0F81852C5
:1010A000D5F814323BB195F8191205222023FFF729
:1010B000DBFFFF2313E00E46D0F81C329B68084686
:1010C0009847034648B12046314602223A23FFF7AB
:1010D000CBFF05232B72FF2301E000226A8158B267
:1010E00070BD00BF70B582B005460E46D0F81842FC
:1010F000002304E0E2180021117301339BB20B2B93
:10110000F8D9D5F81C325B68304669460DF1060205
:101110009847014638B12846314602223A23FFF764
:10112000A3FFFF2118E00823E373009A531E180E53
:101130002074C3F307406074C3F30723A374013A18
:10114000E27402232375BDF80630002262751A0A84
:10115000A275E3750C23638148B202B070BD00BF75
:1011600070B505460E46D0F81842D0F81C325B68C0
:10117000084604F5187104F25E22984738B12846F3
:10118000314602223A23FFF76FFFFF2117E00146A5
:10119000D4F86022531E180E2073C3F30740607307
:1011A000C3F30723A373013AE273B4F85E3200225B
:1011B000227462741A0AA274E3740823638148B229
:1011C00070BD00BF10B5D0F818421344D4F8604287
:1011D000A34205D905222123FFF746FFFF2000E0A7
:1011E000002040B210BD00BF2DE9F0410646884600
:1011F000D0F81842D4F86852B5F5007F28BF4FF4F4
:101200000075D0F81C32D3F810C004F10C07B4F804
:101210005E22B5FBF2FE08463946D4F86432B3FBD1
:10122000F2F21FFA8EF3E047002807DA3046414613
:1012300004221123FFF718FFFF201AE03046812116
:101240003A46ABB2FFF756F9D4F864322B44C4F8EF
:101250006432D4F868325B1BC4F86832D4F83422A4
:10126000551BC4F834521BB903232372002000E03D
:10127000002040B2BDE8F081F8B506460F46D0F830
:101280001842237A002B4FD1154694F91832002BBF
:1012900007DB94F8191205222023FFF7E5FEFF2053
:1012A0004BE0D0F81C329B680846984738B130466E
:1012B000394602223A23FFF7D7FEFF203DE0AA7805
:1012C000EB781B0443EA02632A7943EA02236A7932
:1012D0001A43C4F86422EB79297A41EA0323C4F85B
:1012E000683230463946FFF76DFF002824DB0223C1
:1012F0002372B4F85E12D4F8642201FB02F2C4F83F
:101300006422D4F8683203FB01F3C4F86832D4F8DD
:101310001422934208D0304694F819120522202353
:10132000FFF7A2FEFF2008E04FF400736381304610
:101330003946FFF759FF00E0FF2040B2F8BD00BF7B
:101340002DE9F04106468846D0F81842D4F8685294
:10135000B5F5007F28BF4FF40075D0F81C32D3F8E4
:1013600014C004F10C07B4F85E22B5FBF2FE084687
:101370003946D4F86432B3FBF2F21FFA8EF3E04739
:10138000002807DA3046414604220323FFF76CFEAB
:10139000FF2021E0D4F864322B44C4F86432D4F83E
:1013A00068325B1BC4F86832D4F83422551BC4F889
:1013B00034522BB93046002100F07CF900200BE0BC
:1013C000B3F5007F28BF4FF40073304601213A4641
:1013D0009BB2FFF797F8002040B2BDE8F08100BF54
:1013E0002DE9F04105460F46D0F81842237A002B2C
:1013F0006ED1164694F91832002B08DA94F81912B7
:1014000005222023FFF730FE4FF0FF0866E0D0F8FA
:101410001C329B680846984740B12846394602224C
:101420003A23FFF721FE4FF0FF0857E0D5F81C32B2
:10143000DB6838469847804640B128463946022244
:101440002723FFF711FE4FF0FF0847E0B278F3784B
:101450001B0443EA0263327943EA022372791A4396
:10146000C4F86422F379317A41EA0323C4F868327C
:1014700028463946FFF7A6FE00282DDBB4F85E1299
:10148000D4F8642201FB02F2C4F86422D4F8683272
:1014900003FB01F3C4F86832D4F81422934209D054
:1014A000284694F8191205222023FFF7DDFD4FF09E
:1014B000FF0813E001212172B3F5007F28BF4FF42C
:1014C0000073284604F10C029BB2FFF71BF805E0FD
:1014D000FFF736FF804601E04FF0FF084FFA88F033
:1014E000BDE8F08110B5D0F81842537813F0020F20
:1014F00005D005222423FFF7B7FDFF200BE0D4F829
:101500006422B4F86832FFF75DFE002802DB002099
:10151000608100E0FF2040B210BD00BF08B5137825
:101520005A2B53D8DFE803F02E5252315252525206
:1015300052525252525252525252345252525252A9
:1015400052523D3752523A525252524352465252DE
:1015500049524C525252524F52525252525252527D
:10156000525252525252525252525252525252525B
:10157000525252525252525252525252525252524B
:1015800052524000FFF788FD25E0FFF733FD22E0CF
:10159000FFF7E6FC1FE0FFF761FD1CE0FFF75EFDD3
:1015A00019E0FFF703FD16E0FFF712FD13E0FFF768
:1015B00099FD10E0FFF7D4FD0DE0FFF75DFE0AE0B6
:1015C000FFF70EFF07E0FFF78DFF04E00522202361
:1015D000FFF74AFDFF2040B208BD00BF38B5054601
:1015E000D0F8184294F818323BB9D4F8143223B129
:1015F000637A13B90121FEF74DFF28468121FEF7DA
:1016000049FF637A022B06D12846012104F50372B3
:101610001F23FEF777FF38BD10B50C46D0F818121F
:10162000D1F814329A4228BF1A4693B2D1F8342224
:10163000D21AC1F83422002281F8382204220A7218
:1016400081212246FEF756FF10BD00BF38B5054682
:10165000D0F8184200202072607284F85D0284F88D
:101660005C02D5F81C321B68984728460121FEF71A
:1016700009FF28468121FEF705FF2846012104F5D0
:1016800003721F23FEF73EFF38BD00BF08B5D0F838
:101690001822002313720121517202F503721F23D5
:1016A000FEF730FF08BD00BFD0F8183200221A72D2
:1016B000704700BF38B50546D0F818420A4BC4F849
:1016C0002C3284F8381200232372812104F50B7226
:1016D0000D23FEF70FFF2846012104F503721F2397
:1016E000FEF710FF38BD00BF5553425310B50446F6
:1016F000D0F81822137A022B03D012D3042B0DD961
:1017000010BD92F8191202F21B22FFF707FF002802
:1017100007DA20460121FFF7CDFF10BD0021FFF7BA
:10172000C9FF10BD38B50546D0F81842D4F81032BC
:10173000C4F83032D4F81432C4F834320121FEF740
:10174000E9FE1F280DD1D4F80C221F4B9A4208D174
:1017500094F81912012904D894F81A320BB1102BFD
:101760000CD9284694F8191205222023FFF77CFC97
:10177000022363722846FFF731FF38BD284604F282
:101780001B22FFF7CBFE00280BDA237A052B04D1AE
:1017900028460121FFF78EFF38BD2846FFF71EFFC0
:1017A00038BD237A013BDBB2022B0CD962892AB106
:1017B000284604F10C01FFF72FFF38BD1AB928465F
:1017C0000021FFF777FF38BD5553424310B504465B
:1017D000D0F81822137A13B1012B03D010BDFFF7F4
:1017E000A1FF10BD92F8191202F21B22FFF796FE1C
:1017F000002803DA20460121FFF75CFF10BD00BF7F
:1018000010B5D0F81842637A022B05D18121FEF77A
:1018100041FE0023637210BD11F0800F04D0012B34
:1018200002D00121FFF746FF10BD00BF2023038037
:101830000048704780000020202303800048704744
:10184000D800002020230380004870475400002067
:101850000A230380004870477400002010B5044636
:10186000037C6BB9012102224FF40073FEF7F8FDEF
:101870002046812102224FF40073FEF7F1FD0AE0B9
:10188000012102224023FEF7EBFD204681210222A6
:101890004023FEF7E5FD4FF41B7001F053FFC4F841
:1018A000180220B12046FFF7D1FE002010BD012014
:1018B00010BD00BF10B504460121FEF7DBFD204638
:1018C0008121FEF7D7FD2046FFF7EEFED4F818027F
:1018D00020B101F03FFF0023C4F81832002010BDF2
:1018E000F8B506460C46D0F818720B7813F0600570
:1018F00036D0202D75D14A78FE2A02D0FF2A1AD080
:101900002AE04A888AB9CA88012A0ED113F0800FCA
:101910000BD0D0F81C329B69984738603046394666
:101920000122FEF72FFF00255CE030462146FEF73E
:1019300091FF022556E04A8842B9CA8832B913F0AD
:10194000800F03D1FFF7A2FE00254BE03046214671
:10195000FEF780FF022545E0FEF77CFF022541E00F
:101960004B780A2B04D00B2B07D0012B3AD107E080
:10197000391D0122FEF706FF34E08B787B6031E0F1
:101980000979FEF77FFD30462179FEF773FD94F962
:101990000430002B10DA337C3BB93046812102221F
:1019A0004FF40073FEF75CFD16E030468121022201
:1019B0004023FEF755FD0FE0337C3BB93046012153
:1019C00002224FF40073FEF74BFD05E03046012183
:1019D00002224023FEF744FD30462179FFF710FF35
:1019E00000E000252846F8BD08B5FFF77FFE00207F
:1019F00008BD00BF08B5FFF7E9FE002008BD00BF25
:101A000009B1C0F81C120020704700BF0C4B01E068
:101A1000013B10D00269002AFADA036943F001039E
:101A20000361074B01E0013B07D0026912F0010F8F
:101A3000F9D100207047032070470320704700BF92
:101A4000400D030084B010B5044603A880E80E00E2
:101A5000089B012B18D1A36B23F48033A363E368A5
:101A600023F4840323F04003E360E36823F440138A
:101A7000E3600D9B012B03D1E36843F48013E36023
:101A80002046FFF7C3FF09E0E36843F04003E3604B
:101A90002046FFF7BBFF4FF48033A363069B012B67
:101AA00007D1A36843F00C03A360A36843F02003AD
:101AB000A3600020BDE8104004B07047836843F085
:101AC0000103836000207047836823F00103836073
:101AD0000020704708B5C36823F0C043C3600129E4
:101AE00004D1C36843F00053C36004E019B9C3686C
:101AF00043F08043C360322001F0CEFD002008BDDA
:101B0000490141F020010161054B01E0013B05D095
:101B1000026912F0200FF9D10020704703207047AE
:101B2000400D030010230361054B01E0013B05D08C
:101B3000026912F0100FF9D100207047032070479E
:101B4000400D0300D0F800381943C0F800180020F9
:101B5000704700BF84B0F8B5044607A880E80E00BF
:101B6000A36B43F40023A3630F9E1EB9A36B43F43E
:101B70000013A3630023C4F8003E04F50065D4F805
:101B80000038C4F800380C9B012B0BD1099B23B9FA
:101B900020460021FFF7D6FF08E020460121FFF78D
:101BA000D1FF03E020460321FFF7CCFF20461021A0
:101BB000FFF7A6FF2046FFF7B5FF00232B616B61FF
:101BC0004FF0FF32AA61EB61079848B304F5106348
:101BD000002219461F68002F03DA4FF090471F605C
:101BE00001E000271F6000270F61FF278F6001328F
:101BF00020338242EDD304F53063002219461F687A
:101C0000002F03DA4FF090471F6001E000271F60AC
:101C100000270F61FF278F60013220338242EDD110
:101C20002B6923F480732B610A9B012B0ED1184B77
:101C30002B632B6B43F4803343F003032B632B6B39
:101C40000023A3616FF08043636109E00022A26179
:101C50006FF0804262611BB9A36943F01003A36176
:101C6000A2690C4B1343A3610D9B1BB1A36943F005
:101C70000803A361012E05D1A36943F0804343F01B
:101C80000403A3610020BDE8F84004B0704700BF22
:101C90000001800000383C80D0F8083800F5006072
:101CA00013F0060F10D0836803F00603022B0DD04B
:101CB000836803F00603062B0AD0836803F006034B
:101CC000042B07D102207047002070470320704783
:101CD000032070470020704770B44B78012B1FD150
:101CE000D0F81C280D78AB409BB21343C0F81C38C9
:101CF0000E78730103F510631A5812F4004F2DD1BA
:101D00001C5844F0805545F400458A68C2F30A0423
:101D10002C43CA7844EA824242EA86521A501DE0B5
:101D2000D0F81C280D784FF48033AB401343C0F833
:101D30001C380B785B0103F530631A5812F4004F1E
:101D40000CD11A5842F0805444F400448A68C2F31B
:101D50000A022243C97842EA81421A50002070BC2C
:101D6000704700BF30B44B78012B1BD1D0F83C58E2
:101D70000C7803FA04F4A4B225EA0404C0F83C4841
:101D8000D0F81C480D78AB409BB224EA0303C0F89E
:101D90001C380B785B0103F510631A5822F40042DB
:101DA0001A5019E0D0F83C480D78012202FA05F5E6
:101DB00024EA0544C0F83C48D0F81C480D78AA40F5
:101DC00024EA0242C0F81C280B785B0103F530635B
:101DD0001A5822F400421A50002030BC704700BF4D
:101DE00030B44B78012B68D14B69EBB90B7800EB21
:101DF0004313D3F8104924F0FF5424F4C014C3F85B
:101E000010490B7800EB4313D3F8104944F4002435
:101E1000C3F810490B7800EB4313D3F81049E40CD6
:101E2000E404C3F810492CE00B7800EB4313D3F81B
:101E30001049E40CE404C3F810490B7800EB431399
:101E4000D3F8104924F0FF5424F4C014C3F8104907
:101E50008B684C699C4200D94B610B7800EB4313B3
:101E6000D3F8104944F40024C3F810490B7800EB70
:101E70004313D3F810594C69C4F312042C43C3F82C
:101E80001049012A06D10B7800EB43130A69C3F805
:101E9000142909E04B693BB1D0F834280D780123AF
:101EA000AB401343C0F834380B785B0103F5106383
:101EB000C25842F00442C2503BE00B7800EB43139F
:101EC000D3F8104BE40CE404C3F8104B0B7800EB90
:101ED0004313D3F8104B24F0FF5424F4C014C3F878
:101EE000104B4B690BB18B684B610B7800EB4313C4
:101EF000D3F8104B44F40024C3F8104B0B7800EBDC
:101F00004313D3F8105B8C68C4F312042C43C3F85A
:101F1000104B012A05D10B7800EB4313CA68C3F8B4
:101F2000142B0B785B0103F53063C25842F0044276
:101F3000C250002030BC704730B49DF8084064B9EE
:101F400003339B1009D000F5805000EB023251F8AA
:101F5000045B15600134A342F9D1002030BC704706
:101F600070B582B04B78012B40F0A9804B69EBB97A
:101F70000B7800EB4313D3F8104924F0FF5424F4FA
:101F8000C014C3F810490B7800EB4313D3F8104981
:101F900044F40024C3F810490B7800EB4313D3F842
:101FA0001049E40CE404C3F8104945E00B7800EB59
:101FB0004313D3F81049E40CE404C3F810490B7838
:101FC00000EB4313D3F8104924F0FF5424F4C01459
:101FD000C3F810490C7800EB4414D4F810598E68FB
:101FE0004B693344013BB3FBF6F3724E06EAC3433D
:101FF0002B43C4F810390B7800EB4313D3F8105976
:102000004C69C4F312042C43C3F81049CB78012B5C
:1020100040F0C8800B7800EB4313D3F8104924F04C
:10202000C044C3F810490B7800EB4313D3F81049B0
:1020300044F00054C3F81049012A06D10B7800EB94
:1020400043130C69C3F814490CE0CB78012B0CD076
:102050004B6903B3D0F834480E780123B3402343CF
:10206000C0F83438CB78012B15D1D0F8083813F4E8
:10207000807F08D10B785B0103F51063C45844F0EE
:102080000054C45007E00B785B0103F51063C4589B
:1020900044F08054C4500B785B0103F51063C458BE
:1020A00044F00444C450CB78012B7FD114460B4636
:1020B000C9681A789B8A0094FFF73EFF76E00B7898
:1020C00000EB4313D3F8104BE40CE404C3F8104BBB
:1020D0000B7800EB4313D3F8104B24F0FF5424F497
:1020E000C014C3F8104B4B69A3B90B7800EB431332
:1020F000D3F8105B8C68C4F312042C43C3F8104B64
:102100000B7800EB4313D3F8104B44F40024C3F8CE
:10211000104B1DE08D680C7800EB4414D4F8106B64
:102120002B44013BB3FBF5F39BB2224D05EAC345BB
:102130003543C4F8105B0C7800EB4414D4F8106BF2
:102140008D6805FB03F3C3F312033343C4F8103B5C
:10215000012A05D10B7800EB4313CA68C3F8142B8E
:10216000CB78012B15D1D0F8083813F4807F08D133
:102170000B785B0103F53063C25842F00052C25045
:1021800007E00B785B0103F53063C25842F08052E0
:10219000C2500B785B0103F53063C25842F0044231
:1021A000C25003E0012A7FF453AF47E7002002B09A
:1021B00070BD00BF0000F81F033292100FD030B482
:1021C0000C46002300F580552D6844F8045B01336C
:1021D0009A42F7D101EB8201084630BC70470846AD
:1021E000704700BF4B78012B13D10B785B0103F5CF
:1021F0001063C258002A03DBC25822F08042C2504A
:102200000B785B0103F51063C25842F40012C25010
:1022100012E00B785B0103F53063C258002A03DB40
:10222000C25822F08042C2500B785B0103F5306344
:10223000C25842F40012C250002070474B78012B64
:1022400015D10B785B0103F51063C25822F400121C
:10225000C250CB78023BDBB2012B1DD80B785B015F
:1022600003F51063C25842F08052C25014E00B785C
:102270005B0103F53063C25822F40012C250CB78E0
:10228000023BDBB2012B07D80B785B0103F530630F
:10229000C25842F08052C25000207047D0F8003837
:1022A00023F4FE63C0F80038D0F80038090101F4C7
:1022B000FE610B43C0F800380020704708B5D0F825
:1022C000043823F00203C0F80438032001F0E4F9D5
:1022D000002008BD08B5D0F8043843F00203C0F868
:1022E0000438032001F0D8F9002008BD4369806953
:1022F00018407047D0F8183800F50060C0691840E1
:10230000000C704700F50063D0F81808DB6918402E
:1023100080B2704700F5306303EB41118B6800F524
:10232000006040691840704710B4D0F81048D0F8E9
:10233000343800EB4110D0F80809CB40DB01DBB2A8
:10234000234318405DF8044B704700BF406900F01C
:1023500001007047D0F8003923F4FF6323F007032E
:10236000C0F8003900F500639A6802F00602042AFA
:1023700005D1D0F8002942F00302C0F800295A68BC
:1023800042F480725A600020704700BF10B40024ED
:10239000C0F8104BD0F8104B44F40024C0F8104B98
:1023A000D0F8104B44F01804C0F8104BD0F8104B84
:1023B00044F0C044C0F8104B012905D1C0F8142BDB
:1023C0004FF08023C0F8003B00205DF8044B7047BD
:1023D00000283AD010B5044690F8513013F0FF0FA2
:1023E00001D1FEF7ADF9022384F851302268136859
:1023F00023F04003136021686268A3681A43E3680E
:102400001A4323691A4363691A43A36903F40073E7
:102410001343E2691343226A1343A26A1A430A6010
:102420002168638B03F00402636A13434B602368E3
:10243000E26A1A612268D36923F40063D361002041
:102440006065012384F8513010BD0120704700BF42
:1024500038B50446036813F0010F3AD0B34B9B68BC
:1024600003F00C03042B00F04B81B04B9B6803F08E
:102470000C03082B05D1AD4B5B6813F4800F40F0C3
:1024800041810022AA4B1A7001F000F9054606E0CE
:1024900001F0FCF8401BB0F5FA7F00F23581A34B48
:1024A0001B6813F4003FF3D12279A14B1A706368C3
:1024B0007BB101F0EBF8054606E001F0E7F8401BC0
:1024C000B0F5FA7F00F22281984B1B6813F4003FAD
:1024D000F3D0236813F0020F49D0944B9B6813F09C
:1024E0000C0F0AD0914B9B6803F00C03082B09D109
:1024F0008E4B5B6813F4800F04D1E368012B40F02E
:10250000078126E0E36893B101228A4B1A6001F04B
:10251000BDF8054605E001F0B9F8401B642800F25B
:10252000F980824B1B6813F0020FF4D011E00022F7
:10253000804B1A6001F0AAF8054605E001F0A6F804
:10254000401B642800F2E880784B1B6813F0020FF0
:10255000F4D17648026822F0F8012269F82393FA50
:10256000A3F3B3FA83F3DBB29A400A430260236811
:1025700013F0080F26D0636993B101226E4B1A60E5
:1025800001F084F8054605E001F080F8401B64285E
:1025900000F2C480654B5B6F13F0020FF4D011E0C2
:1025A0000022654B1A6001F071F8054605E001F064
:1025B0006DF8401B642800F2B3805C4B5B6F13F036
:1025C000020FF4D1236813F0040F42D0574A136C62
:1025D00043F080531364A2F5E432136843F480732C
:1025E000136001F053F8054605E001F04FF8401B79
:1025F000642800F29780514B1B6813F4807FF4D05D
:1026000000224F4B1A7001F041F8054607E001F037
:102610003DF8401B41F28833984200F28580434BDD
:102620001B6F13F0020FF2D1227A454B1A70A36888
:102630007BB101F02BF8054606E001F027F8401BBE
:1026400041F2883398427FD8384B1B6F13F0020F4A
:10265000F3D0A369002B79D0344B9B6803F00C03B3
:10266000082B75D00022374B1A6001F00FF8054691
:1026700004E001F00BF8401B64286BD82B4B1B685F
:1026800013F0007FF5D1A369022B65D1216A626A3C
:1026900047F6C07393FAA3F3B3FA83F3DBB29A401D
:1026A0001143A36A5B08013B4FF4403292FAA2F255
:1026B000B2FA82F2D2B293400B43E2691343E26A68
:1026C0004FF0706191FAA1F1B1FA81F1C9B28A407B
:1026D000134343F00053154A53600122194B1A600B
:1026E00000F0D4FF044604E000F0D0FF001B642893
:1026F00034D80E4B1B6813F0007FF5D0002038BD96
:10270000012038BD012038BD032038BD032038BD6D
:10271000012038BD032038BD032038BD032038BD5B
:10272000032038BD032038BD032038BD00380240E7
:102730000238024000004742800E474200700040CD
:102740007038024060004742032038BD002038BD89
:10275000012038BD032038BD002038BD032038BD1E
:1027600070B504460D46874B1B6803F00F038B4280
:102770006BD2CAB2834B1A701B6803F00F038B42F3
:1027800040F0E480036813F0020F06D07E498B68A6
:1027900023F0F002836813438B60236813F0010F6A
:1027A00000F0B8806268012A05D1774B1B6813F4EA
:1027B000003F0ED1CCE0022A05D1734B1B6813F009
:1027C000007F06D1C6E0704B1B6813F0020F00F0CB
:1027D000C3806D498B6823F0030313438B6000F0C3
:1027E00055FF05466368012B0FD107E000F04EFF4F
:1027F000401B41F28833984200F2B080624B9B68E4
:1028000003F00C03042BF1D184E0022B17D107E075
:1028100000F03CFF401B41F28833984200F2A08058
:10282000594B9B6803F00C03082BF1D172E000F0C8
:102830002DFF401B41F28833984200F29380524BA7
:102840009B6813F00C0FF2D164E0036813F0020FE1
:1028500006D04D498B6823F0F002836813438B60E8
:10286000236813F0010F4DD06268012A05D1464B51
:102870001B6813F4003F0DD176E0022A05D1424BCC
:102880001B6813F0007F05D170E03F4B1B6813F00D
:10289000020F6DD03C498B6823F0030313438B6018
:1028A00000F0F4FE06466368012B0ED106E000F04E
:1028B000EDFE801B41F2883398425BD8324B9B6817
:1028C00003F00C03042BF2D11CE0022B15D106E01F
:1028D00000F0DCFE801B41F2883398424CD82A4B32
:1028E0009B6803F00C03082BF2D10BE000F0CEFE46
:1028F000801B41F28833984240D8234B9B6813F0E9
:102900000C0FF3D1EAB21F4B1A701B6803F00F03D0
:10291000AB4235D1236813F0040F06D01A498B68F7
:1029200023F4E052E36813438B60236813F0080F2D
:1029300007D0154A936823F46043216943EAC10331
:102940009360002000F072FE002070BD012070BD79
:10295000012070BD012070BD012070BD032070BD3D
:10296000032070BD032070BD012070BD012070BD2B
:10297000012070BD032070BD032070BD032070BD19
:10298000012070BD003C024000380240224B9B6891
:1029900003F00C03042B3DD0082B01D01F487047D7
:1029A0001D4B586800F03F005B6813F4800F10D097
:1029B0001B4BB3FBF0F3184A506847F6C072104047
:1029C00092FAA2F2B2FA82F2D2B2D04000FB03F342
:1029D0000FE0124BB3FBF0F30F4A506847F6C0729A
:1029E000104092FAA2F2B2FA82F2D2B2D04000FBC8
:1029F00003F3094A506800F440304FF4403292FA31
:102A0000A2F2B2FA82F2D2B2D04001304000B3FB5F
:102A1000F0F0704702487047003802400024F4008C
:102A200000127A0008B5FFF7B1FF094B9B6803F06D
:102A3000F002F02393FAA3F3B3FA83F3DBB222FAA2
:102A400003F3044AD35CD840034B186008BD00BFB1
:102A50000038024064390008F800002030B40468EF
:102A6000636A19B943EA0240A06218E00D46A06A01
:102A700003EB1040002308E003F1400104EB810167
:102A8000496800EB11400133DBB2691E8B42F3DB76
:102A900040EA024005F13F0104EB8101486000205B
:102AA00030BC704703685962002070472DE9F04739
:102AB00082B007460D46D0F80080CB005B1A9B0021
:102AC00003445E6C9A6CB61A9B6B9E4200D91E46FC
:102AD00016F1030901D509F103094FEAA90921E01B
:102AE0005E1AC5EBC5039B003B449B6B9E4200D91D
:102AF0001E4616F1030901D509F103094FEAA90998
:102B0000EC00641BA4003C44E16B3B7C009340461A
:102B1000EAB2B3B2FFF710FAE36B3344E363A36C9A
:102B20003344A364424608EB451303F510639B69E5
:102B30009BB24B4509D9EB005B1B9B003B44996C56
:102B40005B6C994201D2002BCAD1002E07DC012315
:102B5000AB40D2F8341821EA0303C2F8343800201D
:102B600002B0BDE8F08700BF002866D0F0B589B09C
:102B70000446032380F87933FDF7A4FB2068FEF7B1
:102B8000A3FF254655F8107B6E460FCD0FC695E87E
:102B90000F0086E80F00231D0ECB3846FEF752FFCC
:102BA00020680021FEF796FF002210E0D3009B1A58
:102BB0009B002344012183F8311083F83020DA860A
:102BC000002183F833109963D963596401320E2AC6
:102BD000ECD9002218E0D3009B1A9B00234400216B
:102BE00083F8D51183F8D421DA8683F8D711C3F896
:102BF000DC11C3F8E011C3F8E811236802F14000CA
:102C000003EB8003596001320E2AE4D9254655F8BA
:102C1000107B6E460FCD0FC695E80F0086E80F00BB
:102C2000231D0ECB3846FEF795FF012384F8793338
:102C30002068FFF74FFB002001E00120704709B03A
:102C4000F0BD00BF90F87833012B0ED010B50446CC
:102C5000012380F878330068FFF730FB2068FEF727
:102C60002DFF002084F8780310BD0220704700BFBC
:102C70002DE9F84F044606683046FFF767FB002849
:102C800040F01B822068FFF731FB002800F015821E
:102C90002068FFF72BFB10F0020F02D023680222FE
:102CA0005A612068FFF722FB10F4002F5CD02068E7
:102CB000FFF720FB0746002553E017F0010F4ED029
:102CC0005FFA85F920684946FFF724FB804610F03B
:102CD000010F31D006EB45130122C3F8082B03F591
:102CE00030632269012A12D1EA00521B9200224469
:102CF00002F5EC71D2F8DC011B69C3F31203C01AB0
:102D0000C2F8EC01D2F8E0214B6813448B602046F6
:102D10004946FDF70DFB2369012B0DD165B9C5EBC4
:102D2000C5039B002344D3F8E8312BB92068012167
:102D300004F55F72FFF72AFB18F0080F07D0204652
:102D4000FDF7ECFA06EB45130822C3F8082B18F040
:102D5000100F04D006EB45131022C3F8082B0135E1
:102D60007F08002FA9D100E000252068FFF7BEFAF8
:102D700010F4802F6BD02068FFF7C4FA07460025B7
:102D800063E017F0010F5ED05FFA85F920684946CD
:102D9000FFF7CAFA804610F0010F2DD0012202FA87
:102DA00005F0D6F8343823EA0003C6F8343806EBC9
:102DB0004513C3F808292369934209D1EB005B1B33
:102DC0009B00234403F13802D96B9B6B0B44536087
:102DD00020464946FDF7B8FA2369012B0CD15DB9AD
:102DE000C5EBC5039B0023445B6C2BB92068012114
:102DF00004F55F72FFF7CAFA18F0080F04D006EB6B
:102E000045130822C3F8082918F0100F04D006EB68
:102E100045131022C3F8082918F0400F04D006EB20
:102E200045134022C3F8082918F0020F04D006EB1E
:102E300045130222C3F8082918F0800F03D020465A
:102E40002946FFF733FE01357F08002F99D120680E
:102E5000FFF74CFA00280CDAD6F8043823F0010307
:102E6000C6F804382046FDF79FFA23684FF0004269
:102E70005A612068FFF73AFA10F4006F0BD0D6F8C9
:102E8000083813F0010F02D02046FDF77FFA2368BF
:102E90004FF400625A612068FFF728FA10F4805F4F
:102EA0004ED0374606F50068D8F8043023F0010309
:102EB000C8F8043020680021FEF722FE002207E057
:102EC00007EB4213FF21C3F80819C3F8081B0132AE
:102ED00063689342F4D84FF0FF33C8F81830D8F83D
:102EE0001C3043F00113C8F81C30A36A63B1D8F852
:102EF000843043F00B03C8F88430D8F8443043F0F2
:102F00000B03C8F844300BE0D8F8143043F00B033F
:102F1000C8F81430D8F8103043F00B03C8F810305C
:102F2000D6F8003823F4FE63C6F800382068217C08
:102F300004F55F72FFF72AFA23684FF480525A6152
:102F40002068FFF7D3F910F4005F26D02068FFF760
:102F500001FA2268D36823F47053D3602068FEF727
:102F60009BFE50B90023E3604FF400736361226855
:102F7000D36843F41053D36008E00323E360402395
:102F800063612268D36843F4A053D3602046FDF701
:102F9000EDF923684FF400525A612068FFF7A6F953
:102FA00010F0100F42D02268936923F01003936150
:102FB000376A07F00F08C7F34343022B1CD147F6CB
:102FC000F0731F402DD03F094FEAC809C8EB090A2A
:102FD0004FEA8A0AA2443046DAF8E0113A46FFF78F
:102FE000EBF8DAF8E0313B44CAF8E031DAF8EC31DA
:102FF0001F44CAF8EC7114E0062B12D1304604F5D8
:103000005F710822FFF7D8F8C7F30A174FEAC80321
:10301000C8EB030292002244D2F8EC313B44C2F8E0
:10302000EC312268936943F0100393612068FFF745
:103030005DF910F0080F05D02046FDF791F92368DF
:1030400008225A612068FFF751F910F4801F07D059
:103050002046E9B2FDF7BCF923684FF480125A61AB
:103060002068FFF743F910F4001F07D02046E9B2AB
:10307000FDF7A8F923684FF400125A612068FFF7A2
:1030800035F910F0804F06D02046FDF7A7F92368E8
:103090004FF080425A612068FFF728F910F0040FC2
:1030A0000BD023685D6815F0040F02D02046FDF7B1
:1030B0009BF923685A6815435D60BDE8F88F00BF2F
:1030C00090F87833012B0BD010B50446012380F81B
:1030D00078330068FFF7E2F8002084F8780310BD29
:1030E0000220704738B50546C8B210F0800F07D0EF
:1030F00001F07F04C4EBC404A40030342C4407E086
:1031000001F07F04C4EBC404A4002C4404F5EA7469
:1031100001F07F012170C0096070A260E37000B10E
:10312000E180022B01D10023237195F87833012B24
:103130000AD0012385F8783328682146FEF7CCFDB4
:10314000002085F8780338BD022038BD10B504464C
:10315000CAB212F0800F07D001F07F03C3EBC303A4
:103160009B003033034407E001F07F03C3EBC3034C
:103170009B00034403F5EA7301F07F011970D20943
:103180005A7094F87823012A0AD0012284F878230F
:1031900020681946FEF7E6FD002084F8780310BD8C
:1031A000022010BD70B501F07F06F400A51BAD0034
:1031B000054405F5EA712C46C5F8E021C5F8E8316B
:1031C0000023C4F8EC3184F8D53184F8D461036964
:1031D000012B05D1C6EBC604A4000444C4F8E421C5
:1031E00090F87823012A11D00446012280F8782330
:1031F00026B90068DAB2FEF7F3FD03E00068DAB240
:10320000FEF7AEFE002084F8780370BD022070BD8A
:1032100001F07F01C1EBC10189000844B0F8EC0165
:10322000704700BF70B501F07F06F400A51BAD002C
:1032300030354119A41BA4000444E26363640023F5
:10324000A364012384F8313084F830600369012BD2
:1032500004D1C6EBC604A4000444226490F8782389
:10326000012A11D00446012280F8782326B900688B
:10327000DAB2FEF7B5FD03E00068DAB2FEF770FEE1
:10328000002084F8780370BD022070BD38B5044674
:10329000CAB212F0800F07D001F07F03C3EBC30363
:1032A0009B003033034405E0C1EBC1039B000344A2
:1032B00003F5EA730120987001F07F051D70D209B3
:1032C0005A7094F87823824210D084F878032068EA
:1032D0001946FEF787FF2DB92068217C04F55F723F
:1032E000FFF754F8002084F8780338BD022038BD79
:1032F00010B50446CAB212F0800F07D001F07F0368
:10330000C3EBC3039B003033034405E0C1EBC103AF
:103310009B00034403F5EA730020987001F07F01DD
:103320001970D2095A7094F87823012A0AD0012220
:1033300084F8782320681946FEF780FF002084F87F
:10334000780310BD022010BD90F87833012B14D003
:1033500010B50446012380F8783311F0800F05D0B2
:10336000006801F07F01FEF7CBFB02E00068FEF78A
:10337000D9FB002084F8780310BD0220704700BFFD
:103380002DE9F0410023D3E09C4601229A400C68CD
:103390001440944240F0CB804D68022D01D0122D94
:1033A00014D14FEAD30808F1080850F8287003F048
:1033B000070E4FEA8E0E0F2505FA0EF527EA0506D1
:1033C0000D6905FA0EF5354340F8285006684FEAB6
:1033D000430E032505FA0EF5ED4305EA06074E6890
:1033E00006F0030606FA0EF63E4306604E68771EA8
:1033F000012F03D9112E01D0122E12D1866805EAB1
:103400000607CE6806FA0EF63E438660476827EA4E
:1034100002074E68C6F3001202FA0CF646EA0702EB
:103420004260C2682A408D6805FA0EF51543C560F2
:103430004A6812F0805F7AD0404D6A6C42F4804254
:103440006A649A08961CA5F5803555F8266003F045
:103450000307BF000F25BD4026EA0506384DA842E8
:1034600031D005F58065A8422BD005F58065A842CE
:1034700025D005F58065A8421FD005F58065A842D6
:1034800019D005F58065A84213D005F58065A842DE
:103490000DD005F58065A84207D005F58065A842E6
:1034A00001D1082510E009250EE007250CE00625CE
:1034B0000AE0052508E0042506E0032504E00225CE
:1034C00002E0012500E00025BD40354302321D4EDB
:1034D00046F822501C4A1568E24302EA05064F6886
:1034E00017F4803F01D044EA0506174D2E606D6841
:1034F00002EA05064F6817F4003F01D044EA0506CA
:10350000114D6E60AD6802EA05064F6817F4801F22
:1035100001D044EA05060C4DAE60ED682A404E68C5
:1035200016F4001F01D044EA0502074CE2600133A3
:103530000F2B7FF629AFBDE8F08100BF00380240B5
:103540000000024000380140003C014058B110B575
:103550000446437913F0FF0F01D1FDF7E3F801238F
:103560006371002010BD0120704700BF00F007000C
:10357000064AD36823F4E0631B041B0C43EA0020D3
:1035800040F0BF6040F40030D060704700ED00E0D4
:1035900030B4164BDC68C4F30224C4F10705042DD3
:1035A00028BF0425231D062B01D9033C00E000247D
:1035B000012303FA05F5013D2940A140A340013B49
:1035C0001A400A43002806DA00F00F001201D2B2B6
:1035D000074B1A5407E01201D2B200F1604000F527
:1035E000614080F8002330BC704700BF00ED00E070
:1035F00014ED00E0410900F01F0001238340024A5E
:1036000042F82130704700BF00E100E00138B0F11E
:10361000807F06D2044B58600020986007221A6011
:1036200070470120704700BF10E000E008B5FFF7C9
:10363000F9F9044BA3FB00308009FFF7E7FF0020F6
:1036400008BD00BFD34D621008B50B4B1A6842F499
:1036500000721A601A6842F480621A601A6842F4B2
:1036600080721A600320FFF781FF0020FFF7DEFF62
:10367000FDF750F8002008BD003C0240024A1368E4
:1036800001331360704700BF64010020014B1868CC
:10369000704700BF6401002010B582B00190FFF7B1
:1036A000F5FF0446FFF7F2FF001B019B9842F9D398
:1036B00002B010BD0C4B1A6842F001021A600021E2
:1036C00099601A6822F0847222F480321A60074AE4
:1036D0005A601A6822F480221A60D9604FF00062A2
:1036E000034B9A60704700BF00380240103000243E
:1036F00000ED00E0DFF830D0002103E00B4B5B5819
:10370000435004310A480B4B42189A42F6D30A4AF6
:1037100002E0002342F8043B084B9A42F9D3FFF73A
:10372000C9FFFCF7D5FF704700C0012076390008BB
:10373000000000206001002060010020AC09002092
:10374000FEE70000024B0146186800F04FB800BFCA
:103750005C010020024B0146186800F003B800BF6E
:103760005C01002030B500293CD051F8042C0B1F1F
:103770001D49002AB8BF9B180A680C4612B95A6046
:103780000B6030BD93420DD219685818904201BFAA
:103790005A5852181A60426823605A6030BD9942E4
:1037A00003D80A4651680029F9D1146815199D42B9
:1037B0000AD11B682344D0188842136012D10868CC
:1037C000034413604B680CE002D90C23036030BD46
:1037D0001C681819884201BF0868496800191860F8
:1037E0005960536030BD00BF6C01002070B5CC1C27
:1037F00024F0030408340C2C38BF0C24002C06469B
:1038000003DA0C233360002070BD8C42F9D3204AC8
:10381000136810461946A1B10A68121B0ED40B2A70
:1038200003D90A608B188C501FE08B420BBF5A687B
:103830004A6802605A6018BF0B4616E00B4649689A
:10384000E9E7144D2B681BB9304600F025F82860D5
:103850003046214600F020F8421C0346D1D0C51C5A
:1038600025F0030585420AD11C6003F10B001A1DE7
:1038700020F00700821A0AD05142995070BD30469C
:10388000E91A00F009F80130BBD02B46ECE770BD17
:103890006C0100206801002038B5064C0023054665
:1038A0000846236000F008F8431C02D1236803B1E6
:1038B0002B6038BDA8090020044A05491368002B75
:1038C00008BF0B461844106018467047700100206E
:1038D000AC090020008002021F00000053544D205C
:1038E0002020202050726F647563742020202020D7
:1038F00020202020302E303153544D3332204D6162
:1039000073732053746F72616765000053544D697F
:1039100063726F656C656374726F6E6963730000C8
:103920003030303030303030303031410000000045
:103930004D534320436F6E66696700004D5343202B
:10394000496E7465726661636500000000000003E3
:10395000008083000006000000000000000000005E
:103960000000000000000000010203040102030443
:06397000060708094300F0
:103976008901000895010008A9010008B5010008A1
:10398600C1010008F901000805020008D438000842
:1039960009020008150200083D020008210200087D
:1039A600590200087D020008A10200080403090468
:1039B600120100020000004083042A57000201029F
:1039C6000301000009072000010104C032090400B8
:1039D60000020806500507058102400000070501A0
:1039E600024000000A06000200000040010000003C
:1039F60009022000010104C0320904000002080681
:103A060050050705810200020007050102000200B9
:103A16005D180008B5180008E1180008000000004D
:103A260000000000E9190008F51900080000000070
:103A360000000000000000002D18000839180008DA
:103A4600451800085118000809022000010104C0A9
:103A560032090400000208065005070581024000ED
:103A660000070501024000000024F40000000000E9
:103A76000000000000000000000000000000000040
:103A8600000000000000000000000000743900087B
:103A96000000000000000000000000000000000020
:103AA6000000000000000000000000000000000010
:103AB6000000000000000000000000000000000000
:103AC600000000000000000000000000FC000020D4
:04000005080036F5C4
:00000001FF
